{
	"smart contract token.sol": {
		"TokenManager": {
			"abi": [
				{
					"inputs": [
						{
							"internalType": "string",
							"name": "_name",
							"type": "string"
						},
						{
							"internalType": "string",
							"name": "_symbol",
							"type": "string"
						},
						{
							"internalType": "uint256",
							"name": "_totalSupply",
							"type": "uint256"
						}
					],
					"name": "createToken",
					"outputs": [],
					"stateMutability": "nonpayable",
					"type": "function"
				},
				{
					"inputs": [
						{
							"internalType": "string",
							"name": "_symbol",
							"type": "string"
						},
						{
							"internalType": "address",
							"name": "_address",
							"type": "address"
						}
					],
					"name": "getBalanceByToken",
					"outputs": [
						{
							"internalType": "uint256",
							"name": "",
							"type": "uint256"
						}
					],
					"stateMutability": "view",
					"type": "function"
				},
				{
					"inputs": [],
					"name": "getTotalTokenCount",
					"outputs": [
						{
							"internalType": "uint256",
							"name": "",
							"type": "uint256"
						}
					],
					"stateMutability": "view",
					"type": "function"
				},
				{
					"inputs": [
						{
							"internalType": "uint256",
							"name": "",
							"type": "uint256"
						}
					],
					"name": "tokens",
					"outputs": [
						{
							"internalType": "string",
							"name": "name",
							"type": "string"
						},
						{
							"internalType": "string",
							"name": "symbol",
							"type": "string"
						},
						{
							"internalType": "uint256",
							"name": "totalSupply",
							"type": "uint256"
						}
					],
					"stateMutability": "view",
					"type": "function"
				},
				{
					"inputs": [
						{
							"internalType": "string",
							"name": "_symbol",
							"type": "string"
						},
						{
							"internalType": "address",
							"name": "_recipient",
							"type": "address"
						},
						{
							"internalType": "uint256",
							"name": "_amount",
							"type": "uint256"
						}
					],
					"name": "transferToken",
					"outputs": [],
					"stateMutability": "nonpayable",
					"type": "function"
				}
			],
			"devdoc": {
				"kind": "dev",
				"methods": {},
				"version": 1
			},
			"evm": {
				"assembly": "    /* \"smart contract token.sol\":64:1140  contract TokenManager {... */\n  mstore(0x40, 0x80)\n  callvalue\n  dup1\n  iszero\n  tag_1\n  jumpi\n  0x00\n  dup1\n  revert\ntag_1:\n  pop\n  dataSize(sub_0)\n  dup1\n  dataOffset(sub_0)\n  0x00\n  codecopy\n  0x00\n  return\nstop\n\nsub_0: assembly {\n        /* \"smart contract token.sol\":64:1140  contract TokenManager {... */\n      mstore(0x40, 0x80)\n      callvalue\n      dup1\n      iszero\n      tag_1\n      jumpi\n      0x00\n      dup1\n      revert\n    tag_1:\n      pop\n      jumpi(tag_2, lt(calldatasize, 0x04))\n      shr(0xe0, calldataload(0x00))\n      dup1\n      0x4a665464\n      eq\n      tag_3\n      jumpi\n      dup1\n      0x4f64b2be\n      eq\n      tag_4\n      jumpi\n      dup1\n      0x5b060530\n      eq\n      tag_5\n      jumpi\n      dup1\n      0xe5362667\n      eq\n      tag_6\n      jumpi\n      dup1\n      0xee91035e\n      eq\n      tag_7\n      jumpi\n    tag_2:\n      0x00\n      dup1\n      revert\n        /* \"smart contract token.sol\":877:1027  function getBalanceByToken(string memory _symbol, address _address) public view returns(uint256) {... */\n    tag_3:\n      tag_8\n      0x04\n      dup1\n      calldatasize\n      sub\n      dup2\n      add\n      swap1\n      tag_9\n      swap2\n      swap1\n      tag_10\n      jump\t// in\n    tag_9:\n      tag_11\n      jump\t// in\n    tag_8:\n      mload(0x40)\n      tag_12\n      swap2\n      swap1\n      tag_13\n      jump\t// in\n    tag_12:\n      mload(0x40)\n      dup1\n      swap2\n      sub\n      swap1\n      return\n        /* \"smart contract token.sol\":202:223  Token[] public tokens */\n    tag_4:\n      tag_14\n      0x04\n      dup1\n      calldatasize\n      sub\n      dup2\n      add\n      swap1\n      tag_15\n      swap2\n      swap1\n      tag_16\n      jump\t// in\n    tag_15:\n      tag_17\n      jump\t// in\n    tag_14:\n      mload(0x40)\n      tag_18\n      swap4\n      swap3\n      swap2\n      swap1\n      tag_19\n      jump\t// in\n    tag_18:\n      mload(0x40)\n      dup1\n      swap2\n      sub\n      swap1\n      return\n        /* \"smart contract token.sol\":300:559  function createToken(string memory _name, string memory _symbol, uint256 _totalSupply) public {... */\n    tag_5:\n      tag_20\n      0x04\n      dup1\n      calldatasize\n      sub\n      dup2\n      add\n      swap1\n      tag_21\n      swap2\n      swap1\n      tag_22\n      jump\t// in\n    tag_21:\n      tag_23\n      jump\t// in\n    tag_20:\n      stop\n        /* \"smart contract token.sol\":1039:1137  function getTotalTokenCount() public view returns(uint256) {... */\n    tag_6:\n      tag_24\n      tag_25\n      jump\t// in\n    tag_24:\n      mload(0x40)\n      tag_26\n      swap2\n      swap1\n      tag_13\n      jump\t// in\n    tag_26:\n      mload(0x40)\n      dup1\n      swap2\n      sub\n      swap1\n      return\n        /* \"smart contract token.sol\":571:865  function transferToken(string memory _symbol, address _recipient, uint256 _amount) public {... */\n    tag_7:\n      tag_27\n      0x04\n      dup1\n      calldatasize\n      sub\n      dup2\n      add\n      swap1\n      tag_28\n      swap2\n      swap1\n      tag_29\n      jump\t// in\n    tag_28:\n      tag_30\n      jump\t// in\n    tag_27:\n      stop\n        /* \"smart contract token.sol\":877:1027  function getBalanceByToken(string memory _symbol, address _address) public view returns(uint256) {... */\n    tag_11:\n        /* \"smart contract token.sol\":965:972  uint256 */\n      0x00\n        /* \"smart contract token.sol\":992:1000  balances */\n      0x01\n        /* \"smart contract token.sol\":1001:1008  _symbol */\n      dup4\n        /* \"smart contract token.sol\":992:1009  balances[_symbol] */\n      mload(0x40)\n      tag_32\n      swap2\n      swap1\n      tag_33\n      jump\t// in\n    tag_32:\n      swap1\n      dup2\n      mstore\n      0x20\n      add\n      mload(0x40)\n      dup1\n      swap2\n      sub\n      swap1\n      keccak256\n        /* \"smart contract token.sol\":992:1019  balances[_symbol][_address] */\n      0x00\n        /* \"smart contract token.sol\":1010:1018  _address */\n      dup4\n        /* \"smart contract token.sol\":992:1019  balances[_symbol][_address] */\n      0xffffffffffffffffffffffffffffffffffffffff\n      and\n      0xffffffffffffffffffffffffffffffffffffffff\n      and\n      dup2\n      mstore\n      0x20\n      add\n      swap1\n      dup2\n      mstore\n      0x20\n      add\n      0x00\n      keccak256\n      sload\n        /* \"smart contract token.sol\":985:1019  return balances[_symbol][_address] */\n      swap1\n      pop\n        /* \"smart contract token.sol\":877:1027  function getBalanceByToken(string memory _symbol, address _address) public view returns(uint256) {... */\n      swap3\n      swap2\n      pop\n      pop\n      jump\t// out\n        /* \"smart contract token.sol\":202:223  Token[] public tokens */\n    tag_17:\n      0x00\n      dup2\n      dup2\n      sload\n      dup2\n      lt\n      tag_34\n      jumpi\n      0x00\n      dup1\n      revert\n    tag_34:\n      swap1\n      0x00\n      mstore\n      keccak256(0x00, 0x20)\n      swap1\n      0x03\n      mul\n      add\n      0x00\n      swap2\n      pop\n      swap1\n      pop\n      dup1\n      0x00\n      add\n      dup1\n      sload\n      tag_36\n      swap1\n      tag_37\n      jump\t// in\n    tag_36:\n      dup1\n      0x1f\n      add\n      0x20\n      dup1\n      swap2\n      div\n      mul\n      0x20\n      add\n      mload(0x40)\n      swap1\n      dup2\n      add\n      0x40\n      mstore\n      dup1\n      swap3\n      swap2\n      swap1\n      dup2\n      dup2\n      mstore\n      0x20\n      add\n      dup3\n      dup1\n      sload\n      tag_38\n      swap1\n      tag_37\n      jump\t// in\n    tag_38:\n      dup1\n      iszero\n      tag_39\n      jumpi\n      dup1\n      0x1f\n      lt\n      tag_40\n      jumpi\n      0x0100\n      dup1\n      dup4\n      sload\n      div\n      mul\n      dup4\n      mstore\n      swap2\n      0x20\n      add\n      swap2\n      jump(tag_39)\n    tag_40:\n      dup3\n      add\n      swap2\n      swap1\n      0x00\n      mstore\n      keccak256(0x00, 0x20)\n      swap1\n    tag_41:\n      dup2\n      sload\n      dup2\n      mstore\n      swap1\n      0x01\n      add\n      swap1\n      0x20\n      add\n      dup1\n      dup4\n      gt\n      tag_41\n      jumpi\n      dup3\n      swap1\n      sub\n      0x1f\n      and\n      dup3\n      add\n      swap2\n    tag_39:\n      pop\n      pop\n      pop\n      pop\n      pop\n      swap1\n      dup1\n      0x01\n      add\n      dup1\n      sload\n      tag_42\n      swap1\n      tag_37\n      jump\t// in\n    tag_42:\n      dup1\n      0x1f\n      add\n      0x20\n      dup1\n      swap2\n      div\n      mul\n      0x20\n      add\n      mload(0x40)\n      swap1\n      dup2\n      add\n      0x40\n      mstore\n      dup1\n      swap3\n      swap2\n      swap1\n      dup2\n      dup2\n      mstore\n      0x20\n      add\n      dup3\n      dup1\n      sload\n      tag_43\n      swap1\n      tag_37\n      jump\t// in\n    tag_43:\n      dup1\n      iszero\n      tag_44\n      jumpi\n      dup1\n      0x1f\n      lt\n      tag_45\n      jumpi\n      0x0100\n      dup1\n      dup4\n      sload\n      div\n      mul\n      dup4\n      mstore\n      swap2\n      0x20\n      add\n      swap2\n      jump(tag_44)\n    tag_45:\n      dup3\n      add\n      swap2\n      swap1\n      0x00\n      mstore\n      keccak256(0x00, 0x20)\n      swap1\n    tag_46:\n      dup2\n      sload\n      dup2\n      mstore\n      swap1\n      0x01\n      add\n      swap1\n      0x20\n      add\n      dup1\n      dup4\n      gt\n      tag_46\n      jumpi\n      dup3\n      swap1\n      sub\n      0x1f\n      and\n      dup3\n      add\n      swap2\n    tag_44:\n      pop\n      pop\n      pop\n      pop\n      pop\n      swap1\n      dup1\n      0x02\n      add\n      sload\n      swap1\n      pop\n      dup4\n      jump\t// out\n        /* \"smart contract token.sol\":300:559  function createToken(string memory _name, string memory _symbol, uint256 _totalSupply) public {... */\n    tag_23:\n        /* \"smart contract token.sol\":405:426  Token memory newToken */\n      0x00\n        /* \"smart contract token.sol\":429:464  Token(_name, _symbol, _totalSupply) */\n      mload(0x40)\n      dup1\n      0x60\n      add\n      0x40\n      mstore\n      dup1\n        /* \"smart contract token.sol\":435:440  _name */\n      dup6\n        /* \"smart contract token.sol\":429:464  Token(_name, _symbol, _totalSupply) */\n      dup2\n      mstore\n      0x20\n      add\n        /* \"smart contract token.sol\":442:449  _symbol */\n      dup5\n        /* \"smart contract token.sol\":429:464  Token(_name, _symbol, _totalSupply) */\n      dup2\n      mstore\n      0x20\n      add\n        /* \"smart contract token.sol\":451:463  _totalSupply */\n      dup4\n        /* \"smart contract token.sol\":429:464  Token(_name, _symbol, _totalSupply) */\n      dup2\n      mstore\n      pop\n        /* \"smart contract token.sol\":405:464  Token memory newToken = Token(_name, _symbol, _totalSupply) */\n      swap1\n      pop\n        /* \"smart contract token.sol\":475:481  tokens */\n      0x00\n        /* \"smart contract token.sol\":487:495  newToken */\n      dup2\n        /* \"smart contract token.sol\":475:496  tokens.push(newToken) */\n      swap1\n      dup1\n      0x01\n      dup2\n      sload\n      add\n      dup1\n      dup3\n      sstore\n      dup1\n      swap2\n      pop\n      pop\n      0x01\n      swap1\n      sub\n      swap1\n      0x00\n      mstore\n      keccak256(0x00, 0x20)\n      swap1\n      0x03\n      mul\n      add\n      0x00\n      swap1\n      swap2\n      swap1\n      swap2\n      swap1\n      swap2\n      pop\n      0x00\n      dup3\n      add\n      mload\n      dup2\n      0x00\n      add\n      swap1\n      dup2\n      tag_49\n      swap2\n      swap1\n      tag_50\n      jump\t// in\n    tag_49:\n      pop\n      0x20\n      dup3\n      add\n      mload\n      dup2\n      0x01\n      add\n      swap1\n      dup2\n      tag_51\n      swap2\n      swap1\n      tag_50\n      jump\t// in\n    tag_51:\n      pop\n      0x40\n      dup3\n      add\n      mload\n      dup2\n      0x02\n      add\n      sstore\n      pop\n      pop\n        /* \"smart contract token.sol\":539:551  _totalSupply */\n      dup2\n        /* \"smart contract token.sol\":507:515  balances */\n      0x01\n        /* \"smart contract token.sol\":516:523  _symbol */\n      dup5\n        /* \"smart contract token.sol\":507:524  balances[_symbol] */\n      mload(0x40)\n      tag_52\n      swap2\n      swap1\n      tag_33\n      jump\t// in\n    tag_52:\n      swap1\n      dup2\n      mstore\n      0x20\n      add\n      mload(0x40)\n      dup1\n      swap2\n      sub\n      swap1\n      keccak256\n        /* \"smart contract token.sol\":507:536  balances[_symbol][msg.sender] */\n      0x00\n        /* \"smart contract token.sol\":525:535  msg.sender */\n      caller\n        /* \"smart contract token.sol\":507:536  balances[_symbol][msg.sender] */\n      0xffffffffffffffffffffffffffffffffffffffff\n      and\n      0xffffffffffffffffffffffffffffffffffffffff\n      and\n      dup2\n      mstore\n      0x20\n      add\n      swap1\n      dup2\n      mstore\n      0x20\n      add\n      0x00\n      keccak256\n        /* \"smart contract token.sol\":507:551  balances[_symbol][msg.sender] = _totalSupply */\n      dup2\n      swap1\n      sstore\n      pop\n        /* \"smart contract token.sol\":394:559  {... */\n      pop\n        /* \"smart contract token.sol\":300:559  function createToken(string memory _name, string memory _symbol, uint256 _totalSupply) public {... */\n      pop\n      pop\n      pop\n      jump\t// out\n        /* \"smart contract token.sol\":1039:1137  function getTotalTokenCount() public view returns(uint256) {... */\n    tag_25:\n        /* \"smart contract token.sol\":1089:1096  uint256 */\n      0x00\n        /* \"smart contract token.sol\":1116:1122  tokens */\n      dup1\n        /* \"smart contract token.sol\":1116:1129  tokens.length */\n      dup1\n      sload\n      swap1\n      pop\n        /* \"smart contract token.sol\":1109:1129  return tokens.length */\n      swap1\n      pop\n        /* \"smart contract token.sol\":1039:1137  function getTotalTokenCount() public view returns(uint256) {... */\n      swap1\n      jump\t// out\n        /* \"smart contract token.sol\":571:865  function transferToken(string memory _symbol, address _recipient, uint256 _amount) public {... */\n    tag_30:\n        /* \"smart contract token.sol\":713:720  _amount */\n      dup1\n        /* \"smart contract token.sol\":680:688  balances */\n      0x01\n        /* \"smart contract token.sol\":689:696  _symbol */\n      dup5\n        /* \"smart contract token.sol\":680:697  balances[_symbol] */\n      mload(0x40)\n      tag_55\n      swap2\n      swap1\n      tag_33\n      jump\t// in\n    tag_55:\n      swap1\n      dup2\n      mstore\n      0x20\n      add\n      mload(0x40)\n      dup1\n      swap2\n      sub\n      swap1\n      keccak256\n        /* \"smart contract token.sol\":680:709  balances[_symbol][msg.sender] */\n      0x00\n        /* \"smart contract token.sol\":698:708  msg.sender */\n      caller\n        /* \"smart contract token.sol\":680:709  balances[_symbol][msg.sender] */\n      0xffffffffffffffffffffffffffffffffffffffff\n      and\n      0xffffffffffffffffffffffffffffffffffffffff\n      and\n      dup2\n      mstore\n      0x20\n      add\n      swap1\n      dup2\n      mstore\n      0x20\n      add\n      0x00\n      keccak256\n      sload\n        /* \"smart contract token.sol\":680:720  balances[_symbol][msg.sender] >= _amount */\n      lt\n      iszero\n        /* \"smart contract token.sol\":672:745  require(balances[_symbol][msg.sender] >= _amount, \"Insufficient balance\") */\n      tag_56\n      jumpi\n      mload(0x40)\n      0x08c379a000000000000000000000000000000000000000000000000000000000\n      dup2\n      mstore\n      0x04\n      add\n      tag_57\n      swap1\n      tag_58\n      jump\t// in\n    tag_57:\n      mload(0x40)\n      dup1\n      swap2\n      sub\n      swap1\n      revert\n    tag_56:\n        /* \"smart contract token.sol\":799:806  _amount */\n      dup1\n        /* \"smart contract token.sol\":766:774  balances */\n      0x01\n        /* \"smart contract token.sol\":775:782  _symbol */\n      dup5\n        /* \"smart contract token.sol\":766:783  balances[_symbol] */\n      mload(0x40)\n      tag_59\n      swap2\n      swap1\n      tag_33\n      jump\t// in\n    tag_59:\n      swap1\n      dup2\n      mstore\n      0x20\n      add\n      mload(0x40)\n      dup1\n      swap2\n      sub\n      swap1\n      keccak256\n        /* \"smart contract token.sol\":766:795  balances[_symbol][msg.sender] */\n      0x00\n        /* \"smart contract token.sol\":784:794  msg.sender */\n      caller\n        /* \"smart contract token.sol\":766:795  balances[_symbol][msg.sender] */\n      0xffffffffffffffffffffffffffffffffffffffff\n      and\n      0xffffffffffffffffffffffffffffffffffffffff\n      and\n      dup2\n      mstore\n      0x20\n      add\n      swap1\n      dup2\n      mstore\n      0x20\n      add\n      0x00\n      keccak256\n      0x00\n        /* \"smart contract token.sol\":766:806  balances[_symbol][msg.sender] -= _amount */\n      dup3\n      dup3\n      sload\n      tag_60\n      swap2\n      swap1\n      tag_61\n      jump\t// in\n    tag_60:\n      swap3\n      pop\n      pop\n      dup2\n      swap1\n      sstore\n      pop\n        /* \"smart contract token.sol\":850:857  _amount */\n      dup1\n        /* \"smart contract token.sol\":817:825  balances */\n      0x01\n        /* \"smart contract token.sol\":826:833  _symbol */\n      dup5\n        /* \"smart contract token.sol\":817:834  balances[_symbol] */\n      mload(0x40)\n      tag_62\n      swap2\n      swap1\n      tag_33\n      jump\t// in\n    tag_62:\n      swap1\n      dup2\n      mstore\n      0x20\n      add\n      mload(0x40)\n      dup1\n      swap2\n      sub\n      swap1\n      keccak256\n        /* \"smart contract token.sol\":817:846  balances[_symbol][_recipient] */\n      0x00\n        /* \"smart contract token.sol\":835:845  _recipient */\n      dup5\n        /* \"smart contract token.sol\":817:846  balances[_symbol][_recipient] */\n      0xffffffffffffffffffffffffffffffffffffffff\n      and\n      0xffffffffffffffffffffffffffffffffffffffff\n      and\n      dup2\n      mstore\n      0x20\n      add\n      swap1\n      dup2\n      mstore\n      0x20\n      add\n      0x00\n      keccak256\n      0x00\n        /* \"smart contract token.sol\":817:857  balances[_symbol][_recipient] += _amount */\n      dup3\n      dup3\n      sload\n      tag_63\n      swap2\n      swap1\n      tag_64\n      jump\t// in\n    tag_63:\n      swap3\n      pop\n      pop\n      dup2\n      swap1\n      sstore\n      pop\n        /* \"smart contract token.sol\":571:865  function transferToken(string memory _symbol, address _recipient, uint256 _amount) public {... */\n      pop\n      pop\n      pop\n      jump\t// out\n        /* \"#utility.yul\":7:82   */\n    tag_65:\n        /* \"#utility.yul\":40:46   */\n      0x00\n        /* \"#utility.yul\":73:75   */\n      0x40\n        /* \"#utility.yul\":67:76   */\n      mload\n        /* \"#utility.yul\":57:76   */\n      swap1\n      pop\n        /* \"#utility.yul\":7:82   */\n      swap1\n      jump\t// out\n        /* \"#utility.yul\":88:205   */\n    tag_66:\n        /* \"#utility.yul\":197:198   */\n      0x00\n        /* \"#utility.yul\":194:195   */\n      dup1\n        /* \"#utility.yul\":187:199   */\n      revert\n        /* \"#utility.yul\":211:328   */\n    tag_67:\n        /* \"#utility.yul\":320:321   */\n      0x00\n        /* \"#utility.yul\":317:318   */\n      dup1\n        /* \"#utility.yul\":310:322   */\n      revert\n        /* \"#utility.yul\":334:451   */\n    tag_68:\n        /* \"#utility.yul\":443:444   */\n      0x00\n        /* \"#utility.yul\":440:441   */\n      dup1\n        /* \"#utility.yul\":433:445   */\n      revert\n        /* \"#utility.yul\":457:574   */\n    tag_69:\n        /* \"#utility.yul\":566:567   */\n      0x00\n        /* \"#utility.yul\":563:564   */\n      dup1\n        /* \"#utility.yul\":556:568   */\n      revert\n        /* \"#utility.yul\":580:682   */\n    tag_70:\n        /* \"#utility.yul\":621:627   */\n      0x00\n        /* \"#utility.yul\":672:674   */\n      0x1f\n        /* \"#utility.yul\":668:675   */\n      not\n        /* \"#utility.yul\":663:665   */\n      0x1f\n        /* \"#utility.yul\":656:661   */\n      dup4\n        /* \"#utility.yul\":652:666   */\n      add\n        /* \"#utility.yul\":648:676   */\n      and\n        /* \"#utility.yul\":638:676   */\n      swap1\n      pop\n        /* \"#utility.yul\":580:682   */\n      swap2\n      swap1\n      pop\n      jump\t// out\n        /* \"#utility.yul\":688:868   */\n    tag_71:\n        /* \"#utility.yul\":736:813   */\n      0x4e487b7100000000000000000000000000000000000000000000000000000000\n        /* \"#utility.yul\":733:734   */\n      0x00\n        /* \"#utility.yul\":726:814   */\n      mstore\n        /* \"#utility.yul\":833:837   */\n      0x41\n        /* \"#utility.yul\":830:831   */\n      0x04\n        /* \"#utility.yul\":823:838   */\n      mstore\n        /* \"#utility.yul\":857:861   */\n      0x24\n        /* \"#utility.yul\":854:855   */\n      0x00\n        /* \"#utility.yul\":847:862   */\n      revert\n        /* \"#utility.yul\":874:1155   */\n    tag_72:\n        /* \"#utility.yul\":957:984   */\n      tag_120\n        /* \"#utility.yul\":979:983   */\n      dup3\n        /* \"#utility.yul\":957:984   */\n      tag_70\n      jump\t// in\n    tag_120:\n        /* \"#utility.yul\":949:955   */\n      dup2\n        /* \"#utility.yul\":945:985   */\n      add\n        /* \"#utility.yul\":1087:1093   */\n      dup2\n        /* \"#utility.yul\":1075:1085   */\n      dup2\n        /* \"#utility.yul\":1072:1094   */\n      lt\n        /* \"#utility.yul\":1051:1069   */\n      0xffffffffffffffff\n        /* \"#utility.yul\":1039:1049   */\n      dup3\n        /* \"#utility.yul\":1036:1070   */\n      gt\n        /* \"#utility.yul\":1033:1095   */\n      or\n        /* \"#utility.yul\":1030:1118   */\n      iszero\n      tag_121\n      jumpi\n        /* \"#utility.yul\":1098:1116   */\n      tag_122\n      tag_71\n      jump\t// in\n    tag_122:\n        /* \"#utility.yul\":1030:1118   */\n    tag_121:\n        /* \"#utility.yul\":1138:1148   */\n      dup1\n        /* \"#utility.yul\":1134:1136   */\n      0x40\n        /* \"#utility.yul\":1127:1149   */\n      mstore\n        /* \"#utility.yul\":917:1155   */\n      pop\n        /* \"#utility.yul\":874:1155   */\n      pop\n      pop\n      jump\t// out\n        /* \"#utility.yul\":1161:1290   */\n    tag_73:\n        /* \"#utility.yul\":1195:1201   */\n      0x00\n        /* \"#utility.yul\":1222:1242   */\n      tag_124\n      tag_65\n      jump\t// in\n    tag_124:\n        /* \"#utility.yul\":1212:1242   */\n      swap1\n      pop\n        /* \"#utility.yul\":1251:1284   */\n      tag_125\n        /* \"#utility.yul\":1279:1283   */\n      dup3\n        /* \"#utility.yul\":1271:1277   */\n      dup3\n        /* \"#utility.yul\":1251:1284   */\n      tag_72\n      jump\t// in\n    tag_125:\n        /* \"#utility.yul\":1161:1290   */\n      swap2\n      swap1\n      pop\n      jump\t// out\n        /* \"#utility.yul\":1296:1604   */\n    tag_74:\n        /* \"#utility.yul\":1358:1362   */\n      0x00\n        /* \"#utility.yul\":1448:1466   */\n      0xffffffffffffffff\n        /* \"#utility.yul\":1440:1446   */\n      dup3\n        /* \"#utility.yul\":1437:1467   */\n      gt\n        /* \"#utility.yul\":1434:1490   */\n      iszero\n      tag_127\n      jumpi\n        /* \"#utility.yul\":1470:1488   */\n      tag_128\n      tag_71\n      jump\t// in\n    tag_128:\n        /* \"#utility.yul\":1434:1490   */\n    tag_127:\n        /* \"#utility.yul\":1508:1537   */\n      tag_129\n        /* \"#utility.yul\":1530:1536   */\n      dup3\n        /* \"#utility.yul\":1508:1537   */\n      tag_70\n      jump\t// in\n    tag_129:\n        /* \"#utility.yul\":1500:1537   */\n      swap1\n      pop\n        /* \"#utility.yul\":1592:1596   */\n      0x20\n        /* \"#utility.yul\":1586:1590   */\n      dup2\n        /* \"#utility.yul\":1582:1597   */\n      add\n        /* \"#utility.yul\":1574:1597   */\n      swap1\n      pop\n        /* \"#utility.yul\":1296:1604   */\n      swap2\n      swap1\n      pop\n      jump\t// out\n        /* \"#utility.yul\":1610:1756   */\n    tag_75:\n        /* \"#utility.yul\":1707:1713   */\n      dup3\n        /* \"#utility.yul\":1702:1705   */\n      dup2\n        /* \"#utility.yul\":1697:1700   */\n      dup4\n        /* \"#utility.yul\":1684:1714   */\n      calldatacopy\n        /* \"#utility.yul\":1748:1749   */\n      0x00\n        /* \"#utility.yul\":1739:1745   */\n      dup4\n        /* \"#utility.yul\":1734:1737   */\n      dup4\n        /* \"#utility.yul\":1730:1746   */\n      add\n        /* \"#utility.yul\":1723:1750   */\n      mstore\n        /* \"#utility.yul\":1610:1756   */\n      pop\n      pop\n      pop\n      jump\t// out\n        /* \"#utility.yul\":1762:2187   */\n    tag_76:\n        /* \"#utility.yul\":1840:1845   */\n      0x00\n        /* \"#utility.yul\":1865:1931   */\n      tag_132\n        /* \"#utility.yul\":1881:1930   */\n      tag_133\n        /* \"#utility.yul\":1923:1929   */\n      dup5\n        /* \"#utility.yul\":1881:1930   */\n      tag_74\n      jump\t// in\n    tag_133:\n        /* \"#utility.yul\":1865:1931   */\n      tag_73\n      jump\t// in\n    tag_132:\n        /* \"#utility.yul\":1856:1931   */\n      swap1\n      pop\n        /* \"#utility.yul\":1954:1960   */\n      dup3\n        /* \"#utility.yul\":1947:1952   */\n      dup2\n        /* \"#utility.yul\":1940:1961   */\n      mstore\n        /* \"#utility.yul\":1992:1996   */\n      0x20\n        /* \"#utility.yul\":1985:1990   */\n      dup2\n        /* \"#utility.yul\":1981:1997   */\n      add\n        /* \"#utility.yul\":2030:2033   */\n      dup5\n        /* \"#utility.yul\":2021:2027   */\n      dup5\n        /* \"#utility.yul\":2016:2019   */\n      dup5\n        /* \"#utility.yul\":2012:2028   */\n      add\n        /* \"#utility.yul\":2009:2034   */\n      gt\n        /* \"#utility.yul\":2006:2118   */\n      iszero\n      tag_134\n      jumpi\n        /* \"#utility.yul\":2037:2116   */\n      tag_135\n      tag_69\n      jump\t// in\n    tag_135:\n        /* \"#utility.yul\":2006:2118   */\n    tag_134:\n        /* \"#utility.yul\":2127:2181   */\n      tag_136\n        /* \"#utility.yul\":2174:2180   */\n      dup5\n        /* \"#utility.yul\":2169:2172   */\n      dup3\n        /* \"#utility.yul\":2164:2167   */\n      dup6\n        /* \"#utility.yul\":2127:2181   */\n      tag_75\n      jump\t// in\n    tag_136:\n        /* \"#utility.yul\":1846:2187   */\n      pop\n        /* \"#utility.yul\":1762:2187   */\n      swap4\n      swap3\n      pop\n      pop\n      pop\n      jump\t// out\n        /* \"#utility.yul\":2207:2547   */\n    tag_77:\n        /* \"#utility.yul\":2263:2268   */\n      0x00\n        /* \"#utility.yul\":2312:2315   */\n      dup3\n        /* \"#utility.yul\":2305:2309   */\n      0x1f\n        /* \"#utility.yul\":2297:2303   */\n      dup4\n        /* \"#utility.yul\":2293:2310   */\n      add\n        /* \"#utility.yul\":2289:2316   */\n      slt\n        /* \"#utility.yul\":2279:2401   */\n      tag_138\n      jumpi\n        /* \"#utility.yul\":2320:2399   */\n      tag_139\n      tag_68\n      jump\t// in\n    tag_139:\n        /* \"#utility.yul\":2279:2401   */\n    tag_138:\n        /* \"#utility.yul\":2437:2443   */\n      dup2\n        /* \"#utility.yul\":2424:2444   */\n      calldataload\n        /* \"#utility.yul\":2462:2541   */\n      tag_140\n        /* \"#utility.yul\":2537:2540   */\n      dup5\n        /* \"#utility.yul\":2529:2535   */\n      dup3\n        /* \"#utility.yul\":2522:2526   */\n      0x20\n        /* \"#utility.yul\":2514:2520   */\n      dup7\n        /* \"#utility.yul\":2510:2527   */\n      add\n        /* \"#utility.yul\":2462:2541   */\n      tag_76\n      jump\t// in\n    tag_140:\n        /* \"#utility.yul\":2453:2541   */\n      swap2\n      pop\n        /* \"#utility.yul\":2269:2547   */\n      pop\n        /* \"#utility.yul\":2207:2547   */\n      swap3\n      swap2\n      pop\n      pop\n      jump\t// out\n        /* \"#utility.yul\":2553:2679   */\n    tag_78:\n        /* \"#utility.yul\":2590:2597   */\n      0x00\n        /* \"#utility.yul\":2630:2672   */\n      0xffffffffffffffffffffffffffffffffffffffff\n        /* \"#utility.yul\":2623:2628   */\n      dup3\n        /* \"#utility.yul\":2619:2673   */\n      and\n        /* \"#utility.yul\":2608:2673   */\n      swap1\n      pop\n        /* \"#utility.yul\":2553:2679   */\n      swap2\n      swap1\n      pop\n      jump\t// out\n        /* \"#utility.yul\":2685:2781   */\n    tag_79:\n        /* \"#utility.yul\":2722:2729   */\n      0x00\n        /* \"#utility.yul\":2751:2775   */\n      tag_143\n        /* \"#utility.yul\":2769:2774   */\n      dup3\n        /* \"#utility.yul\":2751:2775   */\n      tag_78\n      jump\t// in\n    tag_143:\n        /* \"#utility.yul\":2740:2775   */\n      swap1\n      pop\n        /* \"#utility.yul\":2685:2781   */\n      swap2\n      swap1\n      pop\n      jump\t// out\n        /* \"#utility.yul\":2787:2909   */\n    tag_80:\n        /* \"#utility.yul\":2860:2884   */\n      tag_145\n        /* \"#utility.yul\":2878:2883   */\n      dup2\n        /* \"#utility.yul\":2860:2884   */\n      tag_79\n      jump\t// in\n    tag_145:\n        /* \"#utility.yul\":2853:2858   */\n      dup2\n        /* \"#utility.yul\":2850:2885   */\n      eq\n        /* \"#utility.yul\":2840:2903   */\n      tag_146\n      jumpi\n        /* \"#utility.yul\":2899:2900   */\n      0x00\n        /* \"#utility.yul\":2896:2897   */\n      dup1\n        /* \"#utility.yul\":2889:2901   */\n      revert\n        /* \"#utility.yul\":2840:2903   */\n    tag_146:\n        /* \"#utility.yul\":2787:2909   */\n      pop\n      jump\t// out\n        /* \"#utility.yul\":2915:3054   */\n    tag_81:\n        /* \"#utility.yul\":2961:2966   */\n      0x00\n        /* \"#utility.yul\":2999:3005   */\n      dup2\n        /* \"#utility.yul\":2986:3006   */\n      calldataload\n        /* \"#utility.yul\":2977:3006   */\n      swap1\n      pop\n        /* \"#utility.yul\":3015:3048   */\n      tag_148\n        /* \"#utility.yul\":3042:3047   */\n      dup2\n        /* \"#utility.yul\":3015:3048   */\n      tag_80\n      jump\t// in\n    tag_148:\n        /* \"#utility.yul\":2915:3054   */\n      swap3\n      swap2\n      pop\n      pop\n      jump\t// out\n        /* \"#utility.yul\":3060:3714   */\n    tag_10:\n        /* \"#utility.yul\":3138:3144   */\n      0x00\n        /* \"#utility.yul\":3146:3152   */\n      dup1\n        /* \"#utility.yul\":3195:3197   */\n      0x40\n        /* \"#utility.yul\":3183:3192   */\n      dup4\n        /* \"#utility.yul\":3174:3181   */\n      dup6\n        /* \"#utility.yul\":3170:3193   */\n      sub\n        /* \"#utility.yul\":3166:3198   */\n      slt\n        /* \"#utility.yul\":3163:3282   */\n      iszero\n      tag_150\n      jumpi\n        /* \"#utility.yul\":3201:3280   */\n      tag_151\n      tag_66\n      jump\t// in\n    tag_151:\n        /* \"#utility.yul\":3163:3282   */\n    tag_150:\n        /* \"#utility.yul\":3349:3350   */\n      0x00\n        /* \"#utility.yul\":3338:3347   */\n      dup4\n        /* \"#utility.yul\":3334:3351   */\n      add\n        /* \"#utility.yul\":3321:3352   */\n      calldataload\n        /* \"#utility.yul\":3379:3397   */\n      0xffffffffffffffff\n        /* \"#utility.yul\":3371:3377   */\n      dup2\n        /* \"#utility.yul\":3368:3398   */\n      gt\n        /* \"#utility.yul\":3365:3482   */\n      iszero\n      tag_152\n      jumpi\n        /* \"#utility.yul\":3401:3480   */\n      tag_153\n      tag_67\n      jump\t// in\n    tag_153:\n        /* \"#utility.yul\":3365:3482   */\n    tag_152:\n        /* \"#utility.yul\":3506:3569   */\n      tag_154\n        /* \"#utility.yul\":3561:3568   */\n      dup6\n        /* \"#utility.yul\":3552:3558   */\n      dup3\n        /* \"#utility.yul\":3541:3550   */\n      dup7\n        /* \"#utility.yul\":3537:3559   */\n      add\n        /* \"#utility.yul\":3506:3569   */\n      tag_77\n      jump\t// in\n    tag_154:\n        /* \"#utility.yul\":3496:3569   */\n      swap3\n      pop\n        /* \"#utility.yul\":3292:3579   */\n      pop\n        /* \"#utility.yul\":3618:3620   */\n      0x20\n        /* \"#utility.yul\":3644:3697   */\n      tag_155\n        /* \"#utility.yul\":3689:3696   */\n      dup6\n        /* \"#utility.yul\":3680:3686   */\n      dup3\n        /* \"#utility.yul\":3669:3678   */\n      dup7\n        /* \"#utility.yul\":3665:3687   */\n      add\n        /* \"#utility.yul\":3644:3697   */\n      tag_81\n      jump\t// in\n    tag_155:\n        /* \"#utility.yul\":3634:3697   */\n      swap2\n      pop\n        /* \"#utility.yul\":3589:3707   */\n      pop\n        /* \"#utility.yul\":3060:3714   */\n      swap3\n      pop\n      swap3\n      swap1\n      pop\n      jump\t// out\n        /* \"#utility.yul\":3720:3797   */\n    tag_82:\n        /* \"#utility.yul\":3757:3764   */\n      0x00\n        /* \"#utility.yul\":3786:3791   */\n      dup2\n        /* \"#utility.yul\":3775:3791   */\n      swap1\n      pop\n        /* \"#utility.yul\":3720:3797   */\n      swap2\n      swap1\n      pop\n      jump\t// out\n        /* \"#utility.yul\":3803:3921   */\n    tag_83:\n        /* \"#utility.yul\":3890:3914   */\n      tag_158\n        /* \"#utility.yul\":3908:3913   */\n      dup2\n        /* \"#utility.yul\":3890:3914   */\n      tag_82\n      jump\t// in\n    tag_158:\n        /* \"#utility.yul\":3885:3888   */\n      dup3\n        /* \"#utility.yul\":3878:3915   */\n      mstore\n        /* \"#utility.yul\":3803:3921   */\n      pop\n      pop\n      jump\t// out\n        /* \"#utility.yul\":3927:4149   */\n    tag_13:\n        /* \"#utility.yul\":4020:4024   */\n      0x00\n        /* \"#utility.yul\":4058:4060   */\n      0x20\n        /* \"#utility.yul\":4047:4056   */\n      dup3\n        /* \"#utility.yul\":4043:4061   */\n      add\n        /* \"#utility.yul\":4035:4061   */\n      swap1\n      pop\n        /* \"#utility.yul\":4071:4142   */\n      tag_160\n        /* \"#utility.yul\":4139:4140   */\n      0x00\n        /* \"#utility.yul\":4128:4137   */\n      dup4\n        /* \"#utility.yul\":4124:4141   */\n      add\n        /* \"#utility.yul\":4115:4121   */\n      dup5\n        /* \"#utility.yul\":4071:4142   */\n      tag_83\n      jump\t// in\n    tag_160:\n        /* \"#utility.yul\":3927:4149   */\n      swap3\n      swap2\n      pop\n      pop\n      jump\t// out\n        /* \"#utility.yul\":4155:4277   */\n    tag_84:\n        /* \"#utility.yul\":4228:4252   */\n      tag_162\n        /* \"#utility.yul\":4246:4251   */\n      dup2\n        /* \"#utility.yul\":4228:4252   */\n      tag_82\n      jump\t// in\n    tag_162:\n        /* \"#utility.yul\":4221:4226   */\n      dup2\n        /* \"#utility.yul\":4218:4253   */\n      eq\n        /* \"#utility.yul\":4208:4271   */\n      tag_163\n      jumpi\n        /* \"#utility.yul\":4267:4268   */\n      0x00\n        /* \"#utility.yul\":4264:4265   */\n      dup1\n        /* \"#utility.yul\":4257:4269   */\n      revert\n        /* \"#utility.yul\":4208:4271   */\n    tag_163:\n        /* \"#utility.yul\":4155:4277   */\n      pop\n      jump\t// out\n        /* \"#utility.yul\":4283:4422   */\n    tag_85:\n        /* \"#utility.yul\":4329:4334   */\n      0x00\n        /* \"#utility.yul\":4367:4373   */\n      dup2\n        /* \"#utility.yul\":4354:4374   */\n      calldataload\n        /* \"#utility.yul\":4345:4374   */\n      swap1\n      pop\n        /* \"#utility.yul\":4383:4416   */\n      tag_165\n        /* \"#utility.yul\":4410:4415   */\n      dup2\n        /* \"#utility.yul\":4383:4416   */\n      tag_84\n      jump\t// in\n    tag_165:\n        /* \"#utility.yul\":4283:4422   */\n      swap3\n      swap2\n      pop\n      pop\n      jump\t// out\n        /* \"#utility.yul\":4428:4757   */\n    tag_16:\n        /* \"#utility.yul\":4487:4493   */\n      0x00\n        /* \"#utility.yul\":4536:4538   */\n      0x20\n        /* \"#utility.yul\":4524:4533   */\n      dup3\n        /* \"#utility.yul\":4515:4522   */\n      dup5\n        /* \"#utility.yul\":4511:4534   */\n      sub\n        /* \"#utility.yul\":4507:4539   */\n      slt\n        /* \"#utility.yul\":4504:4623   */\n      iszero\n      tag_167\n      jumpi\n        /* \"#utility.yul\":4542:4621   */\n      tag_168\n      tag_66\n      jump\t// in\n    tag_168:\n        /* \"#utility.yul\":4504:4623   */\n    tag_167:\n        /* \"#utility.yul\":4662:4663   */\n      0x00\n        /* \"#utility.yul\":4687:4740   */\n      tag_169\n        /* \"#utility.yul\":4732:4739   */\n      dup5\n        /* \"#utility.yul\":4723:4729   */\n      dup3\n        /* \"#utility.yul\":4712:4721   */\n      dup6\n        /* \"#utility.yul\":4708:4730   */\n      add\n        /* \"#utility.yul\":4687:4740   */\n      tag_85\n      jump\t// in\n    tag_169:\n        /* \"#utility.yul\":4677:4740   */\n      swap2\n      pop\n        /* \"#utility.yul\":4633:4750   */\n      pop\n        /* \"#utility.yul\":4428:4757   */\n      swap3\n      swap2\n      pop\n      pop\n      jump\t// out\n        /* \"#utility.yul\":4763:4862   */\n    tag_86:\n        /* \"#utility.yul\":4815:4821   */\n      0x00\n        /* \"#utility.yul\":4849:4854   */\n      dup2\n        /* \"#utility.yul\":4843:4855   */\n      mload\n        /* \"#utility.yul\":4833:4855   */\n      swap1\n      pop\n        /* \"#utility.yul\":4763:4862   */\n      swap2\n      swap1\n      pop\n      jump\t// out\n        /* \"#utility.yul\":4868:5037   */\n    tag_87:\n        /* \"#utility.yul\":4952:4963   */\n      0x00\n        /* \"#utility.yul\":4986:4992   */\n      dup3\n        /* \"#utility.yul\":4981:4984   */\n      dup3\n        /* \"#utility.yul\":4974:4993   */\n      mstore\n        /* \"#utility.yul\":5026:5030   */\n      0x20\n        /* \"#utility.yul\":5021:5024   */\n      dup3\n        /* \"#utility.yul\":5017:5031   */\n      add\n        /* \"#utility.yul\":5002:5031   */\n      swap1\n      pop\n        /* \"#utility.yul\":4868:5037   */\n      swap3\n      swap2\n      pop\n      pop\n      jump\t// out\n        /* \"#utility.yul\":5043:5289   */\n    tag_88:\n        /* \"#utility.yul\":5124:5125   */\n      0x00\n        /* \"#utility.yul\":5134:5247   */\n    tag_173:\n        /* \"#utility.yul\":5148:5154   */\n      dup4\n        /* \"#utility.yul\":5145:5146   */\n      dup2\n        /* \"#utility.yul\":5142:5155   */\n      lt\n        /* \"#utility.yul\":5134:5247   */\n      iszero\n      tag_175\n      jumpi\n        /* \"#utility.yul\":5233:5234   */\n      dup1\n        /* \"#utility.yul\":5228:5231   */\n      dup3\n        /* \"#utility.yul\":5224:5235   */\n      add\n        /* \"#utility.yul\":5218:5236   */\n      mload\n        /* \"#utility.yul\":5214:5215   */\n      dup2\n        /* \"#utility.yul\":5209:5212   */\n      dup5\n        /* \"#utility.yul\":5205:5216   */\n      add\n        /* \"#utility.yul\":5198:5237   */\n      mstore\n        /* \"#utility.yul\":5170:5172   */\n      0x20\n        /* \"#utility.yul\":5167:5168   */\n      dup2\n        /* \"#utility.yul\":5163:5173   */\n      add\n        /* \"#utility.yul\":5158:5173   */\n      swap1\n      pop\n        /* \"#utility.yul\":5134:5247   */\n      jump(tag_173)\n    tag_175:\n        /* \"#utility.yul\":5281:5282   */\n      0x00\n        /* \"#utility.yul\":5272:5278   */\n      dup5\n        /* \"#utility.yul\":5267:5270   */\n      dup5\n        /* \"#utility.yul\":5263:5279   */\n      add\n        /* \"#utility.yul\":5256:5283   */\n      mstore\n        /* \"#utility.yul\":5105:5289   */\n      pop\n        /* \"#utility.yul\":5043:5289   */\n      pop\n      pop\n      pop\n      jump\t// out\n        /* \"#utility.yul\":5295:5672   */\n    tag_89:\n        /* \"#utility.yul\":5383:5386   */\n      0x00\n        /* \"#utility.yul\":5411:5450   */\n      tag_177\n        /* \"#utility.yul\":5444:5449   */\n      dup3\n        /* \"#utility.yul\":5411:5450   */\n      tag_86\n      jump\t// in\n    tag_177:\n        /* \"#utility.yul\":5466:5537   */\n      tag_178\n        /* \"#utility.yul\":5530:5536   */\n      dup2\n        /* \"#utility.yul\":5525:5528   */\n      dup6\n        /* \"#utility.yul\":5466:5537   */\n      tag_87\n      jump\t// in\n    tag_178:\n        /* \"#utility.yul\":5459:5537   */\n      swap4\n      pop\n        /* \"#utility.yul\":5546:5611   */\n      tag_179\n        /* \"#utility.yul\":5604:5610   */\n      dup2\n        /* \"#utility.yul\":5599:5602   */\n      dup6\n        /* \"#utility.yul\":5592:5596   */\n      0x20\n        /* \"#utility.yul\":5585:5590   */\n      dup7\n        /* \"#utility.yul\":5581:5597   */\n      add\n        /* \"#utility.yul\":5546:5611   */\n      tag_88\n      jump\t// in\n    tag_179:\n        /* \"#utility.yul\":5636:5665   */\n      tag_180\n        /* \"#utility.yul\":5658:5664   */\n      dup2\n        /* \"#utility.yul\":5636:5665   */\n      tag_70\n      jump\t// in\n    tag_180:\n        /* \"#utility.yul\":5631:5634   */\n      dup5\n        /* \"#utility.yul\":5627:5666   */\n      add\n        /* \"#utility.yul\":5620:5666   */\n      swap2\n      pop\n        /* \"#utility.yul\":5387:5672   */\n      pop\n        /* \"#utility.yul\":5295:5672   */\n      swap3\n      swap2\n      pop\n      pop\n      jump\t// out\n        /* \"#utility.yul\":5678:6302   */\n    tag_19:\n        /* \"#utility.yul\":5867:5871   */\n      0x00\n        /* \"#utility.yul\":5905:5907   */\n      0x60\n        /* \"#utility.yul\":5894:5903   */\n      dup3\n        /* \"#utility.yul\":5890:5908   */\n      add\n        /* \"#utility.yul\":5882:5908   */\n      swap1\n      pop\n        /* \"#utility.yul\":5954:5963   */\n      dup2\n        /* \"#utility.yul\":5948:5952   */\n      dup2\n        /* \"#utility.yul\":5944:5964   */\n      sub\n        /* \"#utility.yul\":5940:5941   */\n      0x00\n        /* \"#utility.yul\":5929:5938   */\n      dup4\n        /* \"#utility.yul\":5925:5942   */\n      add\n        /* \"#utility.yul\":5918:5965   */\n      mstore\n        /* \"#utility.yul\":5982:6060   */\n      tag_182\n        /* \"#utility.yul\":6055:6059   */\n      dup2\n        /* \"#utility.yul\":6046:6052   */\n      dup7\n        /* \"#utility.yul\":5982:6060   */\n      tag_89\n      jump\t// in\n    tag_182:\n        /* \"#utility.yul\":5974:6060   */\n      swap1\n      pop\n        /* \"#utility.yul\":6107:6116   */\n      dup2\n        /* \"#utility.yul\":6101:6105   */\n      dup2\n        /* \"#utility.yul\":6097:6117   */\n      sub\n        /* \"#utility.yul\":6092:6094   */\n      0x20\n        /* \"#utility.yul\":6081:6090   */\n      dup4\n        /* \"#utility.yul\":6077:6095   */\n      add\n        /* \"#utility.yul\":6070:6118   */\n      mstore\n        /* \"#utility.yul\":6135:6213   */\n      tag_183\n        /* \"#utility.yul\":6208:6212   */\n      dup2\n        /* \"#utility.yul\":6199:6205   */\n      dup6\n        /* \"#utility.yul\":6135:6213   */\n      tag_89\n      jump\t// in\n    tag_183:\n        /* \"#utility.yul\":6127:6213   */\n      swap1\n      pop\n        /* \"#utility.yul\":6223:6295   */\n      tag_184\n        /* \"#utility.yul\":6291:6293   */\n      0x40\n        /* \"#utility.yul\":6280:6289   */\n      dup4\n        /* \"#utility.yul\":6276:6294   */\n      add\n        /* \"#utility.yul\":6267:6273   */\n      dup5\n        /* \"#utility.yul\":6223:6295   */\n      tag_83\n      jump\t// in\n    tag_184:\n        /* \"#utility.yul\":5678:6302   */\n      swap5\n      swap4\n      pop\n      pop\n      pop\n      pop\n      jump\t// out\n        /* \"#utility.yul\":6308:7287   */\n    tag_22:\n        /* \"#utility.yul\":6405:6411   */\n      0x00\n        /* \"#utility.yul\":6413:6419   */\n      dup1\n        /* \"#utility.yul\":6421:6427   */\n      0x00\n        /* \"#utility.yul\":6470:6472   */\n      0x60\n        /* \"#utility.yul\":6458:6467   */\n      dup5\n        /* \"#utility.yul\":6449:6456   */\n      dup7\n        /* \"#utility.yul\":6445:6468   */\n      sub\n        /* \"#utility.yul\":6441:6473   */\n      slt\n        /* \"#utility.yul\":6438:6557   */\n      iszero\n      tag_186\n      jumpi\n        /* \"#utility.yul\":6476:6555   */\n      tag_187\n      tag_66\n      jump\t// in\n    tag_187:\n        /* \"#utility.yul\":6438:6557   */\n    tag_186:\n        /* \"#utility.yul\":6624:6625   */\n      0x00\n        /* \"#utility.yul\":6613:6622   */\n      dup5\n        /* \"#utility.yul\":6609:6626   */\n      add\n        /* \"#utility.yul\":6596:6627   */\n      calldataload\n        /* \"#utility.yul\":6654:6672   */\n      0xffffffffffffffff\n        /* \"#utility.yul\":6646:6652   */\n      dup2\n        /* \"#utility.yul\":6643:6673   */\n      gt\n        /* \"#utility.yul\":6640:6757   */\n      iszero\n      tag_188\n      jumpi\n        /* \"#utility.yul\":6676:6755   */\n      tag_189\n      tag_67\n      jump\t// in\n    tag_189:\n        /* \"#utility.yul\":6640:6757   */\n    tag_188:\n        /* \"#utility.yul\":6781:6844   */\n      tag_190\n        /* \"#utility.yul\":6836:6843   */\n      dup7\n        /* \"#utility.yul\":6827:6833   */\n      dup3\n        /* \"#utility.yul\":6816:6825   */\n      dup8\n        /* \"#utility.yul\":6812:6834   */\n      add\n        /* \"#utility.yul\":6781:6844   */\n      tag_77\n      jump\t// in\n    tag_190:\n        /* \"#utility.yul\":6771:6844   */\n      swap4\n      pop\n        /* \"#utility.yul\":6567:6854   */\n      pop\n        /* \"#utility.yul\":6921:6923   */\n      0x20\n        /* \"#utility.yul\":6910:6919   */\n      dup5\n        /* \"#utility.yul\":6906:6924   */\n      add\n        /* \"#utility.yul\":6893:6925   */\n      calldataload\n        /* \"#utility.yul\":6952:6970   */\n      0xffffffffffffffff\n        /* \"#utility.yul\":6944:6950   */\n      dup2\n        /* \"#utility.yul\":6941:6971   */\n      gt\n        /* \"#utility.yul\":6938:7055   */\n      iszero\n      tag_191\n      jumpi\n        /* \"#utility.yul\":6974:7053   */\n      tag_192\n      tag_67\n      jump\t// in\n    tag_192:\n        /* \"#utility.yul\":6938:7055   */\n    tag_191:\n        /* \"#utility.yul\":7079:7142   */\n      tag_193\n        /* \"#utility.yul\":7134:7141   */\n      dup7\n        /* \"#utility.yul\":7125:7131   */\n      dup3\n        /* \"#utility.yul\":7114:7123   */\n      dup8\n        /* \"#utility.yul\":7110:7132   */\n      add\n        /* \"#utility.yul\":7079:7142   */\n      tag_77\n      jump\t// in\n    tag_193:\n        /* \"#utility.yul\":7069:7142   */\n      swap3\n      pop\n        /* \"#utility.yul\":6864:7152   */\n      pop\n        /* \"#utility.yul\":7191:7193   */\n      0x40\n        /* \"#utility.yul\":7217:7270   */\n      tag_194\n        /* \"#utility.yul\":7262:7269   */\n      dup7\n        /* \"#utility.yul\":7253:7259   */\n      dup3\n        /* \"#utility.yul\":7242:7251   */\n      dup8\n        /* \"#utility.yul\":7238:7260   */\n      add\n        /* \"#utility.yul\":7217:7270   */\n      tag_85\n      jump\t// in\n    tag_194:\n        /* \"#utility.yul\":7207:7270   */\n      swap2\n      pop\n        /* \"#utility.yul\":7162:7280   */\n      pop\n        /* \"#utility.yul\":6308:7287   */\n      swap3\n      pop\n      swap3\n      pop\n      swap3\n      jump\t// out\n        /* \"#utility.yul\":7293:8092   */\n    tag_29:\n        /* \"#utility.yul\":7380:7386   */\n      0x00\n        /* \"#utility.yul\":7388:7394   */\n      dup1\n        /* \"#utility.yul\":7396:7402   */\n      0x00\n        /* \"#utility.yul\":7445:7447   */\n      0x60\n        /* \"#utility.yul\":7433:7442   */\n      dup5\n        /* \"#utility.yul\":7424:7431   */\n      dup7\n        /* \"#utility.yul\":7420:7443   */\n      sub\n        /* \"#utility.yul\":7416:7448   */\n      slt\n        /* \"#utility.yul\":7413:7532   */\n      iszero\n      tag_196\n      jumpi\n        /* \"#utility.yul\":7451:7530   */\n      tag_197\n      tag_66\n      jump\t// in\n    tag_197:\n        /* \"#utility.yul\":7413:7532   */\n    tag_196:\n        /* \"#utility.yul\":7599:7600   */\n      0x00\n        /* \"#utility.yul\":7588:7597   */\n      dup5\n        /* \"#utility.yul\":7584:7601   */\n      add\n        /* \"#utility.yul\":7571:7602   */\n      calldataload\n        /* \"#utility.yul\":7629:7647   */\n      0xffffffffffffffff\n        /* \"#utility.yul\":7621:7627   */\n      dup2\n        /* \"#utility.yul\":7618:7648   */\n      gt\n        /* \"#utility.yul\":7615:7732   */\n      iszero\n      tag_198\n      jumpi\n        /* \"#utility.yul\":7651:7730   */\n      tag_199\n      tag_67\n      jump\t// in\n    tag_199:\n        /* \"#utility.yul\":7615:7732   */\n    tag_198:\n        /* \"#utility.yul\":7756:7819   */\n      tag_200\n        /* \"#utility.yul\":7811:7818   */\n      dup7\n        /* \"#utility.yul\":7802:7808   */\n      dup3\n        /* \"#utility.yul\":7791:7800   */\n      dup8\n        /* \"#utility.yul\":7787:7809   */\n      add\n        /* \"#utility.yul\":7756:7819   */\n      tag_77\n      jump\t// in\n    tag_200:\n        /* \"#utility.yul\":7746:7819   */\n      swap4\n      pop\n        /* \"#utility.yul\":7542:7829   */\n      pop\n        /* \"#utility.yul\":7868:7870   */\n      0x20\n        /* \"#utility.yul\":7894:7947   */\n      tag_201\n        /* \"#utility.yul\":7939:7946   */\n      dup7\n        /* \"#utility.yul\":7930:7936   */\n      dup3\n        /* \"#utility.yul\":7919:7928   */\n      dup8\n        /* \"#utility.yul\":7915:7937   */\n      add\n        /* \"#utility.yul\":7894:7947   */\n      tag_81\n      jump\t// in\n    tag_201:\n        /* \"#utility.yul\":7884:7947   */\n      swap3\n      pop\n        /* \"#utility.yul\":7839:7957   */\n      pop\n        /* \"#utility.yul\":7996:7998   */\n      0x40\n        /* \"#utility.yul\":8022:8075   */\n      tag_202\n        /* \"#utility.yul\":8067:8074   */\n      dup7\n        /* \"#utility.yul\":8058:8064   */\n      dup3\n        /* \"#utility.yul\":8047:8056   */\n      dup8\n        /* \"#utility.yul\":8043:8065   */\n      add\n        /* \"#utility.yul\":8022:8075   */\n      tag_85\n      jump\t// in\n    tag_202:\n        /* \"#utility.yul\":8012:8075   */\n      swap2\n      pop\n        /* \"#utility.yul\":7967:8085   */\n      pop\n        /* \"#utility.yul\":7293:8092   */\n      swap3\n      pop\n      swap3\n      pop\n      swap3\n      jump\t// out\n        /* \"#utility.yul\":8098:8246   */\n    tag_90:\n        /* \"#utility.yul\":8200:8211   */\n      0x00\n        /* \"#utility.yul\":8237:8240   */\n      dup2\n        /* \"#utility.yul\":8222:8240   */\n      swap1\n      pop\n        /* \"#utility.yul\":8098:8246   */\n      swap3\n      swap2\n      pop\n      pop\n      jump\t// out\n        /* \"#utility.yul\":8252:8642   */\n    tag_91:\n        /* \"#utility.yul\":8358:8361   */\n      0x00\n        /* \"#utility.yul\":8386:8425   */\n      tag_205\n        /* \"#utility.yul\":8419:8424   */\n      dup3\n        /* \"#utility.yul\":8386:8425   */\n      tag_86\n      jump\t// in\n    tag_205:\n        /* \"#utility.yul\":8441:8530   */\n      tag_206\n        /* \"#utility.yul\":8523:8529   */\n      dup2\n        /* \"#utility.yul\":8518:8521   */\n      dup6\n        /* \"#utility.yul\":8441:8530   */\n      tag_90\n      jump\t// in\n    tag_206:\n        /* \"#utility.yul\":8434:8530   */\n      swap4\n      pop\n        /* \"#utility.yul\":8539:8604   */\n      tag_207\n        /* \"#utility.yul\":8597:8603   */\n      dup2\n        /* \"#utility.yul\":8592:8595   */\n      dup6\n        /* \"#utility.yul\":8585:8589   */\n      0x20\n        /* \"#utility.yul\":8578:8583   */\n      dup7\n        /* \"#utility.yul\":8574:8590   */\n      add\n        /* \"#utility.yul\":8539:8604   */\n      tag_88\n      jump\t// in\n    tag_207:\n        /* \"#utility.yul\":8629:8635   */\n      dup1\n        /* \"#utility.yul\":8624:8627   */\n      dup5\n        /* \"#utility.yul\":8620:8636   */\n      add\n        /* \"#utility.yul\":8613:8636   */\n      swap2\n      pop\n        /* \"#utility.yul\":8362:8642   */\n      pop\n        /* \"#utility.yul\":8252:8642   */\n      swap3\n      swap2\n      pop\n      pop\n      jump\t// out\n        /* \"#utility.yul\":8648:8923   */\n    tag_33:\n        /* \"#utility.yul\":8780:8783   */\n      0x00\n        /* \"#utility.yul\":8802:8897   */\n      tag_209\n        /* \"#utility.yul\":8893:8896   */\n      dup3\n        /* \"#utility.yul\":8884:8890   */\n      dup5\n        /* \"#utility.yul\":8802:8897   */\n      tag_91\n      jump\t// in\n    tag_209:\n        /* \"#utility.yul\":8795:8897   */\n      swap2\n      pop\n        /* \"#utility.yul\":8914:8917   */\n      dup2\n        /* \"#utility.yul\":8907:8917   */\n      swap1\n      pop\n        /* \"#utility.yul\":8648:8923   */\n      swap3\n      swap2\n      pop\n      pop\n      jump\t// out\n        /* \"#utility.yul\":8929:9109   */\n    tag_92:\n        /* \"#utility.yul\":8977:9054   */\n      0x4e487b7100000000000000000000000000000000000000000000000000000000\n        /* \"#utility.yul\":8974:8975   */\n      0x00\n        /* \"#utility.yul\":8967:9055   */\n      mstore\n        /* \"#utility.yul\":9074:9078   */\n      0x22\n        /* \"#utility.yul\":9071:9072   */\n      0x04\n        /* \"#utility.yul\":9064:9079   */\n      mstore\n        /* \"#utility.yul\":9098:9102   */\n      0x24\n        /* \"#utility.yul\":9095:9096   */\n      0x00\n        /* \"#utility.yul\":9088:9103   */\n      revert\n        /* \"#utility.yul\":9115:9435   */\n    tag_37:\n        /* \"#utility.yul\":9159:9165   */\n      0x00\n        /* \"#utility.yul\":9196:9197   */\n      0x02\n        /* \"#utility.yul\":9190:9194   */\n      dup3\n        /* \"#utility.yul\":9186:9198   */\n      div\n        /* \"#utility.yul\":9176:9198   */\n      swap1\n      pop\n        /* \"#utility.yul\":9243:9244   */\n      0x01\n        /* \"#utility.yul\":9237:9241   */\n      dup3\n        /* \"#utility.yul\":9233:9245   */\n      and\n        /* \"#utility.yul\":9264:9282   */\n      dup1\n        /* \"#utility.yul\":9254:9335   */\n      tag_212\n      jumpi\n        /* \"#utility.yul\":9320:9324   */\n      0x7f\n        /* \"#utility.yul\":9312:9318   */\n      dup3\n        /* \"#utility.yul\":9308:9325   */\n      and\n        /* \"#utility.yul\":9298:9325   */\n      swap2\n      pop\n        /* \"#utility.yul\":9254:9335   */\n    tag_212:\n        /* \"#utility.yul\":9382:9384   */\n      0x20\n        /* \"#utility.yul\":9374:9380   */\n      dup3\n        /* \"#utility.yul\":9371:9385   */\n      lt\n        /* \"#utility.yul\":9351:9369   */\n      dup2\n        /* \"#utility.yul\":9348:9386   */\n      sub\n        /* \"#utility.yul\":9345:9429   */\n      tag_213\n      jumpi\n        /* \"#utility.yul\":9401:9419   */\n      tag_214\n      tag_92\n      jump\t// in\n    tag_214:\n        /* \"#utility.yul\":9345:9429   */\n    tag_213:\n        /* \"#utility.yul\":9166:9435   */\n      pop\n        /* \"#utility.yul\":9115:9435   */\n      swap2\n      swap1\n      pop\n      jump\t// out\n        /* \"#utility.yul\":9441:9582   */\n    tag_93:\n        /* \"#utility.yul\":9490:9494   */\n      0x00\n        /* \"#utility.yul\":9513:9516   */\n      dup2\n        /* \"#utility.yul\":9505:9516   */\n      swap1\n      pop\n        /* \"#utility.yul\":9536:9539   */\n      dup2\n        /* \"#utility.yul\":9533:9534   */\n      0x00\n        /* \"#utility.yul\":9526:9540   */\n      mstore\n        /* \"#utility.yul\":9570:9574   */\n      0x20\n        /* \"#utility.yul\":9567:9568   */\n      0x00\n        /* \"#utility.yul\":9557:9575   */\n      keccak256\n        /* \"#utility.yul\":9549:9575   */\n      swap1\n      pop\n        /* \"#utility.yul\":9441:9582   */\n      swap2\n      swap1\n      pop\n      jump\t// out\n        /* \"#utility.yul\":9588:9681   */\n    tag_94:\n        /* \"#utility.yul\":9625:9631   */\n      0x00\n        /* \"#utility.yul\":9672:9674   */\n      0x20\n        /* \"#utility.yul\":9667:9669   */\n      0x1f\n        /* \"#utility.yul\":9660:9665   */\n      dup4\n        /* \"#utility.yul\":9656:9670   */\n      add\n        /* \"#utility.yul\":9652:9675   */\n      div\n        /* \"#utility.yul\":9642:9675   */\n      swap1\n      pop\n        /* \"#utility.yul\":9588:9681   */\n      swap2\n      swap1\n      pop\n      jump\t// out\n        /* \"#utility.yul\":9687:9794   */\n    tag_95:\n        /* \"#utility.yul\":9731:9739   */\n      0x00\n        /* \"#utility.yul\":9781:9786   */\n      dup3\n        /* \"#utility.yul\":9775:9779   */\n      dup3\n        /* \"#utility.yul\":9771:9787   */\n      shl\n        /* \"#utility.yul\":9750:9787   */\n      swap1\n      pop\n        /* \"#utility.yul\":9687:9794   */\n      swap3\n      swap2\n      pop\n      pop\n      jump\t// out\n        /* \"#utility.yul\":9800:10193   */\n    tag_96:\n        /* \"#utility.yul\":9869:9875   */\n      0x00\n        /* \"#utility.yul\":9919:9920   */\n      0x08\n        /* \"#utility.yul\":9907:9917   */\n      dup4\n        /* \"#utility.yul\":9903:9921   */\n      mul\n        /* \"#utility.yul\":9942:10039   */\n      tag_219\n        /* \"#utility.yul\":9972:10038   */\n      0xffffffffffffffffffffffffffffffffffffffffffffffffffffffffffffffff\n        /* \"#utility.yul\":9961:9970   */\n      dup3\n        /* \"#utility.yul\":9942:10039   */\n      tag_95\n      jump\t// in\n    tag_219:\n        /* \"#utility.yul\":10060:10099   */\n      tag_220\n        /* \"#utility.yul\":10090:10098   */\n      dup7\n        /* \"#utility.yul\":10079:10088   */\n      dup4\n        /* \"#utility.yul\":10060:10099   */\n      tag_95\n      jump\t// in\n    tag_220:\n        /* \"#utility.yul\":10048:10099   */\n      swap6\n      pop\n        /* \"#utility.yul\":10132:10136   */\n      dup1\n        /* \"#utility.yul\":10128:10137   */\n      not\n        /* \"#utility.yul\":10121:10126   */\n      dup5\n        /* \"#utility.yul\":10117:10138   */\n      and\n        /* \"#utility.yul\":10108:10138   */\n      swap4\n      pop\n        /* \"#utility.yul\":10181:10185   */\n      dup1\n        /* \"#utility.yul\":10171:10179   */\n      dup7\n        /* \"#utility.yul\":10167:10186   */\n      and\n        /* \"#utility.yul\":10160:10165   */\n      dup5\n        /* \"#utility.yul\":10157:10187   */\n      or\n        /* \"#utility.yul\":10147:10187   */\n      swap3\n      pop\n        /* \"#utility.yul\":9876:10193   */\n      pop\n      pop\n        /* \"#utility.yul\":9800:10193   */\n      swap4\n      swap3\n      pop\n      pop\n      pop\n      jump\t// out\n        /* \"#utility.yul\":10199:10259   */\n    tag_97:\n        /* \"#utility.yul\":10227:10230   */\n      0x00\n        /* \"#utility.yul\":10248:10253   */\n      dup2\n        /* \"#utility.yul\":10241:10253   */\n      swap1\n      pop\n        /* \"#utility.yul\":10199:10259   */\n      swap2\n      swap1\n      pop\n      jump\t// out\n        /* \"#utility.yul\":10265:10407   */\n    tag_98:\n        /* \"#utility.yul\":10315:10324   */\n      0x00\n        /* \"#utility.yul\":10348:10401   */\n      tag_223\n        /* \"#utility.yul\":10366:10400   */\n      tag_224\n        /* \"#utility.yul\":10375:10399   */\n      tag_225\n        /* \"#utility.yul\":10393:10398   */\n      dup5\n        /* \"#utility.yul\":10375:10399   */\n      tag_82\n      jump\t// in\n    tag_225:\n        /* \"#utility.yul\":10366:10400   */\n      tag_97\n      jump\t// in\n    tag_224:\n        /* \"#utility.yul\":10348:10401   */\n      tag_82\n      jump\t// in\n    tag_223:\n        /* \"#utility.yul\":10335:10401   */\n      swap1\n      pop\n        /* \"#utility.yul\":10265:10407   */\n      swap2\n      swap1\n      pop\n      jump\t// out\n        /* \"#utility.yul\":10413:10488   */\n    tag_99:\n        /* \"#utility.yul\":10456:10459   */\n      0x00\n        /* \"#utility.yul\":10477:10482   */\n      dup2\n        /* \"#utility.yul\":10470:10482   */\n      swap1\n      pop\n        /* \"#utility.yul\":10413:10488   */\n      swap2\n      swap1\n      pop\n      jump\t// out\n        /* \"#utility.yul\":10494:10763   */\n    tag_100:\n        /* \"#utility.yul\":10604:10643   */\n      tag_228\n        /* \"#utility.yul\":10635:10642   */\n      dup4\n        /* \"#utility.yul\":10604:10643   */\n      tag_98\n      jump\t// in\n    tag_228:\n        /* \"#utility.yul\":10665:10756   */\n      tag_229\n        /* \"#utility.yul\":10714:10755   */\n      tag_230\n        /* \"#utility.yul\":10738:10754   */\n      dup3\n        /* \"#utility.yul\":10714:10755   */\n      tag_99\n      jump\t// in\n    tag_230:\n        /* \"#utility.yul\":10706:10712   */\n      dup5\n        /* \"#utility.yul\":10699:10703   */\n      dup5\n        /* \"#utility.yul\":10693:10704   */\n      sload\n        /* \"#utility.yul\":10665:10756   */\n      tag_96\n      jump\t// in\n    tag_229:\n        /* \"#utility.yul\":10659:10663   */\n      dup3\n        /* \"#utility.yul\":10652:10757   */\n      sstore\n        /* \"#utility.yul\":10570:10763   */\n      pop\n        /* \"#utility.yul\":10494:10763   */\n      pop\n      pop\n      pop\n      jump\t// out\n        /* \"#utility.yul\":10769:10842   */\n    tag_101:\n        /* \"#utility.yul\":10814:10817   */\n      0x00\n        /* \"#utility.yul\":10769:10842   */\n      swap1\n      jump\t// out\n        /* \"#utility.yul\":10848:11037   */\n    tag_102:\n        /* \"#utility.yul\":10925:10957   */\n      tag_233\n      tag_101\n      jump\t// in\n    tag_233:\n        /* \"#utility.yul\":10966:11031   */\n      tag_234\n        /* \"#utility.yul\":11024:11030   */\n      dup2\n        /* \"#utility.yul\":11016:11022   */\n      dup5\n        /* \"#utility.yul\":11010:11014   */\n      dup5\n        /* \"#utility.yul\":10966:11031   */\n      tag_100\n      jump\t// in\n    tag_234:\n        /* \"#utility.yul\":10901:11037   */\n      pop\n        /* \"#utility.yul\":10848:11037   */\n      pop\n      pop\n      jump\t// out\n        /* \"#utility.yul\":11043:11229   */\n    tag_103:\n        /* \"#utility.yul\":11103:11223   */\n    tag_236:\n        /* \"#utility.yul\":11120:11123   */\n      dup2\n        /* \"#utility.yul\":11113:11118   */\n      dup2\n        /* \"#utility.yul\":11110:11124   */\n      lt\n        /* \"#utility.yul\":11103:11223   */\n      iszero\n      tag_238\n      jumpi\n        /* \"#utility.yul\":11174:11213   */\n      tag_239\n        /* \"#utility.yul\":11211:11212   */\n      0x00\n        /* \"#utility.yul\":11204:11209   */\n      dup3\n        /* \"#utility.yul\":11174:11213   */\n      tag_102\n      jump\t// in\n    tag_239:\n        /* \"#utility.yul\":11147:11148   */\n      0x01\n        /* \"#utility.yul\":11140:11145   */\n      dup2\n        /* \"#utility.yul\":11136:11149   */\n      add\n        /* \"#utility.yul\":11127:11149   */\n      swap1\n      pop\n        /* \"#utility.yul\":11103:11223   */\n      jump(tag_236)\n    tag_238:\n        /* \"#utility.yul\":11043:11229   */\n      pop\n      pop\n      jump\t// out\n        /* \"#utility.yul\":11235:11778   */\n    tag_104:\n        /* \"#utility.yul\":11336:11338   */\n      0x1f\n        /* \"#utility.yul\":11331:11334   */\n      dup3\n        /* \"#utility.yul\":11328:11339   */\n      gt\n        /* \"#utility.yul\":11325:11771   */\n      iszero\n      tag_241\n      jumpi\n        /* \"#utility.yul\":11370:11408   */\n      tag_242\n        /* \"#utility.yul\":11402:11407   */\n      dup2\n        /* \"#utility.yul\":11370:11408   */\n      tag_93\n      jump\t// in\n    tag_242:\n        /* \"#utility.yul\":11454:11483   */\n      tag_243\n        /* \"#utility.yul\":11472:11482   */\n      dup5\n        /* \"#utility.yul\":11454:11483   */\n      tag_94\n      jump\t// in\n    tag_243:\n        /* \"#utility.yul\":11444:11452   */\n      dup2\n        /* \"#utility.yul\":11440:11484   */\n      add\n        /* \"#utility.yul\":11637:11639   */\n      0x20\n        /* \"#utility.yul\":11625:11635   */\n      dup6\n        /* \"#utility.yul\":11622:11640   */\n      lt\n        /* \"#utility.yul\":11619:11668   */\n      iszero\n      tag_244\n      jumpi\n        /* \"#utility.yul\":11658:11666   */\n      dup2\n        /* \"#utility.yul\":11643:11666   */\n      swap1\n      pop\n        /* \"#utility.yul\":11619:11668   */\n    tag_244:\n        /* \"#utility.yul\":11681:11761   */\n      tag_245\n        /* \"#utility.yul\":11737:11759   */\n      tag_246\n        /* \"#utility.yul\":11755:11758   */\n      dup6\n        /* \"#utility.yul\":11737:11759   */\n      tag_94\n      jump\t// in\n    tag_246:\n        /* \"#utility.yul\":11727:11735   */\n      dup4\n        /* \"#utility.yul\":11723:11760   */\n      add\n        /* \"#utility.yul\":11710:11721   */\n      dup3\n        /* \"#utility.yul\":11681:11761   */\n      tag_103\n      jump\t// in\n    tag_245:\n        /* \"#utility.yul\":11340:11771   */\n      pop\n      pop\n        /* \"#utility.yul\":11325:11771   */\n    tag_241:\n        /* \"#utility.yul\":11235:11778   */\n      pop\n      pop\n      pop\n      jump\t// out\n        /* \"#utility.yul\":11784:11901   */\n    tag_105:\n        /* \"#utility.yul\":11838:11846   */\n      0x00\n        /* \"#utility.yul\":11888:11893   */\n      dup3\n        /* \"#utility.yul\":11882:11886   */\n      dup3\n        /* \"#utility.yul\":11878:11894   */\n      shr\n        /* \"#utility.yul\":11857:11894   */\n      swap1\n      pop\n        /* \"#utility.yul\":11784:11901   */\n      swap3\n      swap2\n      pop\n      pop\n      jump\t// out\n        /* \"#utility.yul\":11907:12076   */\n    tag_106:\n        /* \"#utility.yul\":11951:11957   */\n      0x00\n        /* \"#utility.yul\":11984:12035   */\n      tag_249\n        /* \"#utility.yul\":12032:12033   */\n      0x00\n        /* \"#utility.yul\":12028:12034   */\n      not\n        /* \"#utility.yul\":12020:12025   */\n      dup5\n        /* \"#utility.yul\":12017:12018   */\n      0x08\n        /* \"#utility.yul\":12013:12026   */\n      mul\n        /* \"#utility.yul\":11984:12035   */\n      tag_105\n      jump\t// in\n    tag_249:\n        /* \"#utility.yul\":11980:12036   */\n      not\n        /* \"#utility.yul\":12065:12069   */\n      dup1\n        /* \"#utility.yul\":12059:12063   */\n      dup4\n        /* \"#utility.yul\":12055:12070   */\n      and\n        /* \"#utility.yul\":12045:12070   */\n      swap2\n      pop\n        /* \"#utility.yul\":11958:12076   */\n      pop\n        /* \"#utility.yul\":11907:12076   */\n      swap3\n      swap2\n      pop\n      pop\n      jump\t// out\n        /* \"#utility.yul\":12081:12376   */\n    tag_107:\n        /* \"#utility.yul\":12157:12161   */\n      0x00\n        /* \"#utility.yul\":12303:12332   */\n      tag_251\n        /* \"#utility.yul\":12328:12331   */\n      dup4\n        /* \"#utility.yul\":12322:12326   */\n      dup4\n        /* \"#utility.yul\":12303:12332   */\n      tag_106\n      jump\t// in\n    tag_251:\n        /* \"#utility.yul\":12295:12332   */\n      swap2\n      pop\n        /* \"#utility.yul\":12365:12368   */\n      dup3\n        /* \"#utility.yul\":12362:12363   */\n      0x02\n        /* \"#utility.yul\":12358:12369   */\n      mul\n        /* \"#utility.yul\":12352:12356   */\n      dup3\n        /* \"#utility.yul\":12349:12370   */\n      or\n        /* \"#utility.yul\":12341:12370   */\n      swap1\n      pop\n        /* \"#utility.yul\":12081:12376   */\n      swap3\n      swap2\n      pop\n      pop\n      jump\t// out\n        /* \"#utility.yul\":12381:13776   */\n    tag_50:\n        /* \"#utility.yul\":12498:12535   */\n      tag_253\n        /* \"#utility.yul\":12531:12534   */\n      dup3\n        /* \"#utility.yul\":12498:12535   */\n      tag_86\n      jump\t// in\n    tag_253:\n        /* \"#utility.yul\":12600:12618   */\n      0xffffffffffffffff\n        /* \"#utility.yul\":12592:12598   */\n      dup2\n        /* \"#utility.yul\":12589:12619   */\n      gt\n        /* \"#utility.yul\":12586:12642   */\n      iszero\n      tag_254\n      jumpi\n        /* \"#utility.yul\":12622:12640   */\n      tag_255\n      tag_71\n      jump\t// in\n    tag_255:\n        /* \"#utility.yul\":12586:12642   */\n    tag_254:\n        /* \"#utility.yul\":12666:12704   */\n      tag_256\n        /* \"#utility.yul\":12698:12702   */\n      dup3\n        /* \"#utility.yul\":12692:12703   */\n      sload\n        /* \"#utility.yul\":12666:12704   */\n      tag_37\n      jump\t// in\n    tag_256:\n        /* \"#utility.yul\":12751:12818   */\n      tag_257\n        /* \"#utility.yul\":12811:12817   */\n      dup3\n        /* \"#utility.yul\":12803:12809   */\n      dup3\n        /* \"#utility.yul\":12797:12801   */\n      dup6\n        /* \"#utility.yul\":12751:12818   */\n      tag_104\n      jump\t// in\n    tag_257:\n        /* \"#utility.yul\":12845:12846   */\n      0x00\n        /* \"#utility.yul\":12869:12873   */\n      0x20\n        /* \"#utility.yul\":12856:12873   */\n      swap1\n      pop\n        /* \"#utility.yul\":12901:12903   */\n      0x1f\n        /* \"#utility.yul\":12893:12899   */\n      dup4\n        /* \"#utility.yul\":12890:12904   */\n      gt\n        /* \"#utility.yul\":12918:12919   */\n      0x01\n        /* \"#utility.yul\":12913:13531   */\n      dup2\n      eq\n      tag_259\n      jumpi\n        /* \"#utility.yul\":13575:13576   */\n      0x00\n        /* \"#utility.yul\":13592:13598   */\n      dup5\n        /* \"#utility.yul\":13589:13666   */\n      iszero\n      tag_260\n      jumpi\n        /* \"#utility.yul\":13641:13650   */\n      dup3\n        /* \"#utility.yul\":13636:13639   */\n      dup8\n        /* \"#utility.yul\":13632:13651   */\n      add\n        /* \"#utility.yul\":13626:13652   */\n      mload\n        /* \"#utility.yul\":13617:13652   */\n      swap1\n      pop\n        /* \"#utility.yul\":13589:13666   */\n    tag_260:\n        /* \"#utility.yul\":13692:13759   */\n      tag_261\n        /* \"#utility.yul\":13752:13758   */\n      dup6\n        /* \"#utility.yul\":13745:13750   */\n      dup3\n        /* \"#utility.yul\":13692:13759   */\n      tag_107\n      jump\t// in\n    tag_261:\n        /* \"#utility.yul\":13686:13690   */\n      dup7\n        /* \"#utility.yul\":13679:13760   */\n      sstore\n        /* \"#utility.yul\":13548:13770   */\n      pop\n        /* \"#utility.yul\":12883:13770   */\n      jump(tag_258)\n        /* \"#utility.yul\":12913:13531   */\n    tag_259:\n        /* \"#utility.yul\":12965:12969   */\n      0x1f\n        /* \"#utility.yul\":12961:12970   */\n      not\n        /* \"#utility.yul\":12953:12959   */\n      dup5\n        /* \"#utility.yul\":12949:12971   */\n      and\n        /* \"#utility.yul\":12999:13036   */\n      tag_262\n        /* \"#utility.yul\":13031:13035   */\n      dup7\n        /* \"#utility.yul\":12999:13036   */\n      tag_93\n      jump\t// in\n    tag_262:\n        /* \"#utility.yul\":13058:13059   */\n      0x00\n        /* \"#utility.yul\":13072:13280   */\n    tag_263:\n        /* \"#utility.yul\":13086:13093   */\n      dup3\n        /* \"#utility.yul\":13083:13084   */\n      dup2\n        /* \"#utility.yul\":13080:13094   */\n      lt\n        /* \"#utility.yul\":13072:13280   */\n      iszero\n      tag_265\n      jumpi\n        /* \"#utility.yul\":13165:13174   */\n      dup5\n        /* \"#utility.yul\":13160:13163   */\n      dup10\n        /* \"#utility.yul\":13156:13175   */\n      add\n        /* \"#utility.yul\":13150:13176   */\n      mload\n        /* \"#utility.yul\":13142:13148   */\n      dup3\n        /* \"#utility.yul\":13135:13177   */\n      sstore\n        /* \"#utility.yul\":13216:13217   */\n      0x01\n        /* \"#utility.yul\":13208:13214   */\n      dup3\n        /* \"#utility.yul\":13204:13218   */\n      add\n        /* \"#utility.yul\":13194:13218   */\n      swap2\n      pop\n        /* \"#utility.yul\":13263:13265   */\n      0x20\n        /* \"#utility.yul\":13252:13261   */\n      dup6\n        /* \"#utility.yul\":13248:13266   */\n      add\n        /* \"#utility.yul\":13235:13266   */\n      swap5\n      pop\n        /* \"#utility.yul\":13109:13113   */\n      0x20\n        /* \"#utility.yul\":13106:13107   */\n      dup2\n        /* \"#utility.yul\":13102:13114   */\n      add\n        /* \"#utility.yul\":13097:13114   */\n      swap1\n      pop\n        /* \"#utility.yul\":13072:13280   */\n      jump(tag_263)\n    tag_265:\n        /* \"#utility.yul\":13308:13314   */\n      dup7\n        /* \"#utility.yul\":13299:13306   */\n      dup4\n        /* \"#utility.yul\":13296:13315   */\n      lt\n        /* \"#utility.yul\":13293:13472   */\n      iszero\n      tag_266\n      jumpi\n        /* \"#utility.yul\":13366:13375   */\n      dup5\n        /* \"#utility.yul\":13361:13364   */\n      dup10\n        /* \"#utility.yul\":13357:13376   */\n      add\n        /* \"#utility.yul\":13351:13377   */\n      mload\n        /* \"#utility.yul\":13409:13457   */\n      tag_267\n        /* \"#utility.yul\":13451:13455   */\n      0x1f\n        /* \"#utility.yul\":13443:13449   */\n      dup10\n        /* \"#utility.yul\":13439:13456   */\n      and\n        /* \"#utility.yul\":13428:13437   */\n      dup3\n        /* \"#utility.yul\":13409:13457   */\n      tag_106\n      jump\t// in\n    tag_267:\n        /* \"#utility.yul\":13401:13407   */\n      dup4\n        /* \"#utility.yul\":13394:13458   */\n      sstore\n        /* \"#utility.yul\":13316:13472   */\n      pop\n        /* \"#utility.yul\":13293:13472   */\n    tag_266:\n        /* \"#utility.yul\":13518:13519   */\n      0x01\n        /* \"#utility.yul\":13514:13515   */\n      0x02\n        /* \"#utility.yul\":13506:13512   */\n      dup9\n        /* \"#utility.yul\":13502:13516   */\n      mul\n        /* \"#utility.yul\":13498:13520   */\n      add\n        /* \"#utility.yul\":13492:13496   */\n      dup9\n        /* \"#utility.yul\":13485:13521   */\n      sstore\n        /* \"#utility.yul\":12920:13531   */\n      pop\n      pop\n      pop\n        /* \"#utility.yul\":12883:13770   */\n    tag_258:\n      pop\n        /* \"#utility.yul\":12473:13776   */\n      pop\n      pop\n      pop\n        /* \"#utility.yul\":12381:13776   */\n      pop\n      pop\n      jump\t// out\n        /* \"#utility.yul\":13782:13952   */\n    tag_108:\n        /* \"#utility.yul\":13922:13944   */\n      0x496e73756666696369656e742062616c616e6365000000000000000000000000\n        /* \"#utility.yul\":13918:13919   */\n      0x00\n        /* \"#utility.yul\":13910:13916   */\n      dup3\n        /* \"#utility.yul\":13906:13920   */\n      add\n        /* \"#utility.yul\":13899:13945   */\n      mstore\n        /* \"#utility.yul\":13782:13952   */\n      pop\n      jump\t// out\n        /* \"#utility.yul\":13958:14324   */\n    tag_109:\n        /* \"#utility.yul\":14100:14103   */\n      0x00\n        /* \"#utility.yul\":14121:14188   */\n      tag_270\n        /* \"#utility.yul\":14185:14187   */\n      0x14\n        /* \"#utility.yul\":14180:14183   */\n      dup4\n        /* \"#utility.yul\":14121:14188   */\n      tag_87\n      jump\t// in\n    tag_270:\n        /* \"#utility.yul\":14114:14188   */\n      swap2\n      pop\n        /* \"#utility.yul\":14197:14290   */\n      tag_271\n        /* \"#utility.yul\":14286:14289   */\n      dup3\n        /* \"#utility.yul\":14197:14290   */\n      tag_108\n      jump\t// in\n    tag_271:\n        /* \"#utility.yul\":14315:14317   */\n      0x20\n        /* \"#utility.yul\":14310:14313   */\n      dup3\n        /* \"#utility.yul\":14306:14318   */\n      add\n        /* \"#utility.yul\":14299:14318   */\n      swap1\n      pop\n        /* \"#utility.yul\":13958:14324   */\n      swap2\n      swap1\n      pop\n      jump\t// out\n        /* \"#utility.yul\":14330:14749   */\n    tag_58:\n        /* \"#utility.yul\":14496:14500   */\n      0x00\n        /* \"#utility.yul\":14534:14536   */\n      0x20\n        /* \"#utility.yul\":14523:14532   */\n      dup3\n        /* \"#utility.yul\":14519:14537   */\n      add\n        /* \"#utility.yul\":14511:14537   */\n      swap1\n      pop\n        /* \"#utility.yul\":14583:14592   */\n      dup2\n        /* \"#utility.yul\":14577:14581   */\n      dup2\n        /* \"#utility.yul\":14573:14593   */\n      sub\n        /* \"#utility.yul\":14569:14570   */\n      0x00\n        /* \"#utility.yul\":14558:14567   */\n      dup4\n        /* \"#utility.yul\":14554:14571   */\n      add\n        /* \"#utility.yul\":14547:14594   */\n      mstore\n        /* \"#utility.yul\":14611:14742   */\n      tag_273\n        /* \"#utility.yul\":14737:14741   */\n      dup2\n        /* \"#utility.yul\":14611:14742   */\n      tag_109\n      jump\t// in\n    tag_273:\n        /* \"#utility.yul\":14603:14742   */\n      swap1\n      pop\n        /* \"#utility.yul\":14330:14749   */\n      swap2\n      swap1\n      pop\n      jump\t// out\n        /* \"#utility.yul\":14755:14935   */\n    tag_110:\n        /* \"#utility.yul\":14803:14880   */\n      0x4e487b7100000000000000000000000000000000000000000000000000000000\n        /* \"#utility.yul\":14800:14801   */\n      0x00\n        /* \"#utility.yul\":14793:14881   */\n      mstore\n        /* \"#utility.yul\":14900:14904   */\n      0x11\n        /* \"#utility.yul\":14897:14898   */\n      0x04\n        /* \"#utility.yul\":14890:14905   */\n      mstore\n        /* \"#utility.yul\":14924:14928   */\n      0x24\n        /* \"#utility.yul\":14921:14922   */\n      0x00\n        /* \"#utility.yul\":14914:14929   */\n      revert\n        /* \"#utility.yul\":14941:15135   */\n    tag_61:\n        /* \"#utility.yul\":14981:14985   */\n      0x00\n        /* \"#utility.yul\":15001:15021   */\n      tag_276\n        /* \"#utility.yul\":15019:15020   */\n      dup3\n        /* \"#utility.yul\":15001:15021   */\n      tag_82\n      jump\t// in\n    tag_276:\n        /* \"#utility.yul\":14996:15021   */\n      swap2\n      pop\n        /* \"#utility.yul\":15035:15055   */\n      tag_277\n        /* \"#utility.yul\":15053:15054   */\n      dup4\n        /* \"#utility.yul\":15035:15055   */\n      tag_82\n      jump\t// in\n    tag_277:\n        /* \"#utility.yul\":15030:15055   */\n      swap3\n      pop\n        /* \"#utility.yul\":15079:15080   */\n      dup3\n        /* \"#utility.yul\":15076:15077   */\n      dup3\n        /* \"#utility.yul\":15072:15081   */\n      sub\n        /* \"#utility.yul\":15064:15081   */\n      swap1\n      pop\n        /* \"#utility.yul\":15103:15104   */\n      dup2\n        /* \"#utility.yul\":15097:15101   */\n      dup2\n        /* \"#utility.yul\":15094:15105   */\n      gt\n        /* \"#utility.yul\":15091:15128   */\n      iszero\n      tag_278\n      jumpi\n        /* \"#utility.yul\":15108:15126   */\n      tag_279\n      tag_110\n      jump\t// in\n    tag_279:\n        /* \"#utility.yul\":15091:15128   */\n    tag_278:\n        /* \"#utility.yul\":14941:15135   */\n      swap3\n      swap2\n      pop\n      pop\n      jump\t// out\n        /* \"#utility.yul\":15141:15332   */\n    tag_64:\n        /* \"#utility.yul\":15181:15184   */\n      0x00\n        /* \"#utility.yul\":15200:15220   */\n      tag_281\n        /* \"#utility.yul\":15218:15219   */\n      dup3\n        /* \"#utility.yul\":15200:15220   */\n      tag_82\n      jump\t// in\n    tag_281:\n        /* \"#utility.yul\":15195:15220   */\n      swap2\n      pop\n        /* \"#utility.yul\":15234:15254   */\n      tag_282\n        /* \"#utility.yul\":15252:15253   */\n      dup4\n        /* \"#utility.yul\":15234:15254   */\n      tag_82\n      jump\t// in\n    tag_282:\n        /* \"#utility.yul\":15229:15254   */\n      swap3\n      pop\n        /* \"#utility.yul\":15277:15278   */\n      dup3\n        /* \"#utility.yul\":15274:15275   */\n      dup3\n        /* \"#utility.yul\":15270:15279   */\n      add\n        /* \"#utility.yul\":15263:15279   */\n      swap1\n      pop\n        /* \"#utility.yul\":15298:15301   */\n      dup1\n        /* \"#utility.yul\":15295:15296   */\n      dup3\n        /* \"#utility.yul\":15292:15302   */\n      gt\n        /* \"#utility.yul\":15289:15325   */\n      iszero\n      tag_283\n      jumpi\n        /* \"#utility.yul\":15305:15323   */\n      tag_284\n      tag_110\n      jump\t// in\n    tag_284:\n        /* \"#utility.yul\":15289:15325   */\n    tag_283:\n        /* \"#utility.yul\":15141:15332   */\n      swap3\n      swap2\n      pop\n      pop\n      jump\t// out\n\n    auxdata: 0xa2646970667358221220864a229124a3cf3a40a32ab5148c236694bd898ac1626f8b434511f43da6068464736f6c63430008120033\n}\n",
				"bytecode": {
					"linkReferences": {},
					"object": "608060405234801561001057600080fd5b50610e09806100206000396000f3fe608060405234801561001057600080fd5b50600436106100575760003560e01c80634a6654641461005c5780634f64b2be1461008c5780635b060530146100be578063e5362667146100da578063ee91035e146100f8575b600080fd5b610076600480360381019061007191906106f8565b610114565b604051610083919061076d565b60405180910390f35b6100a660048036038101906100a191906107b4565b61017a565b6040516100b593929190610860565b60405180910390f35b6100d860048036038101906100d391906108a5565b6102c4565b005b6100e26103ad565b6040516100ef919061076d565b60405180910390f35b610112600480360381019061010d9190610930565b6103b9565b005b600060018360405161012691906109db565b908152602001604051809103902060008373ffffffffffffffffffffffffffffffffffffffff1673ffffffffffffffffffffffffffffffffffffffff16815260200190815260200160002054905092915050565b6000818154811061018a57600080fd5b90600052602060002090600302016000915090508060000180546101ad90610a21565b80601f01602080910402602001604051908101604052809291908181526020018280546101d990610a21565b80156102265780601f106101fb57610100808354040283529160200191610226565b820191906000526020600020905b81548152906001019060200180831161020957829003601f168201915b50505050509080600101805461023b90610a21565b80601f016020809104026020016040519081016040528092919081815260200182805461026790610a21565b80156102b45780601f10610289576101008083540402835291602001916102b4565b820191906000526020600020905b81548152906001019060200180831161029757829003601f168201915b5050505050908060020154905083565b60006040518060600160405280858152602001848152602001838152509050600081908060018154018082558091505060019003906000526020600020906003020160009091909190915060008201518160000190816103249190610bfe565b50602082015181600101908161033a9190610bfe565b506040820151816002015550508160018460405161035891906109db565b908152602001604051809103902060003373ffffffffffffffffffffffffffffffffffffffff1673ffffffffffffffffffffffffffffffffffffffff1681526020019081526020016000208190555050505050565b60008080549050905090565b806001846040516103ca91906109db565b908152602001604051809103902060003373ffffffffffffffffffffffffffffffffffffffff1673ffffffffffffffffffffffffffffffffffffffff168152602001908152602001600020541015610457576040517f08c379a000000000000000000000000000000000000000000000000000000000815260040161044e90610d1c565b60405180910390fd5b8060018460405161046891906109db565b908152602001604051809103902060003373ffffffffffffffffffffffffffffffffffffffff1673ffffffffffffffffffffffffffffffffffffffff16815260200190815260200160002060008282546104c29190610d6b565b92505081905550806001846040516104da91906109db565b908152602001604051809103902060008473ffffffffffffffffffffffffffffffffffffffff1673ffffffffffffffffffffffffffffffffffffffff16815260200190815260200160002060008282546105349190610d9f565b92505081905550505050565b6000604051905090565b600080fd5b600080fd5b600080fd5b600080fd5b6000601f19601f8301169050919050565b7f4e487b7100000000000000000000000000000000000000000000000000000000600052604160045260246000fd5b6105a78261055e565b810181811067ffffffffffffffff821117156105c6576105c561056f565b5b80604052505050565b60006105d9610540565b90506105e5828261059e565b919050565b600067ffffffffffffffff8211156106055761060461056f565b5b61060e8261055e565b9050602081019050919050565b82818337600083830152505050565b600061063d610638846105ea565b6105cf565b90508281526020810184848401111561065957610658610559565b5b61066484828561061b565b509392505050565b600082601f83011261068157610680610554565b5b813561069184826020860161062a565b91505092915050565b600073ffffffffffffffffffffffffffffffffffffffff82169050919050565b60006106c58261069a565b9050919050565b6106d5816106ba565b81146106e057600080fd5b50565b6000813590506106f2816106cc565b92915050565b6000806040838503121561070f5761070e61054a565b5b600083013567ffffffffffffffff81111561072d5761072c61054f565b5b6107398582860161066c565b925050602061074a858286016106e3565b9150509250929050565b6000819050919050565b61076781610754565b82525050565b6000602082019050610782600083018461075e565b92915050565b61079181610754565b811461079c57600080fd5b50565b6000813590506107ae81610788565b92915050565b6000602082840312156107ca576107c961054a565b5b60006107d88482850161079f565b91505092915050565b600081519050919050565b600082825260208201905092915050565b60005b8381101561081b578082015181840152602081019050610800565b60008484015250505050565b6000610832826107e1565b61083c81856107ec565b935061084c8185602086016107fd565b6108558161055e565b840191505092915050565b6000606082019050818103600083015261087a8186610827565b9050818103602083015261088e8185610827565b905061089d604083018461075e565b949350505050565b6000806000606084860312156108be576108bd61054a565b5b600084013567ffffffffffffffff8111156108dc576108db61054f565b5b6108e88682870161066c565b935050602084013567ffffffffffffffff8111156109095761090861054f565b5b6109158682870161066c565b92505060406109268682870161079f565b9150509250925092565b6000806000606084860312156109495761094861054a565b5b600084013567ffffffffffffffff8111156109675761096661054f565b5b6109738682870161066c565b9350506020610984868287016106e3565b92505060406109958682870161079f565b9150509250925092565b600081905092915050565b60006109b5826107e1565b6109bf818561099f565b93506109cf8185602086016107fd565b80840191505092915050565b60006109e782846109aa565b915081905092915050565b7f4e487b7100000000000000000000000000000000000000000000000000000000600052602260045260246000fd5b60006002820490506001821680610a3957607f821691505b602082108103610a4c57610a4b6109f2565b5b50919050565b60008190508160005260206000209050919050565b60006020601f8301049050919050565b600082821b905092915050565b600060088302610ab47fffffffffffffffffffffffffffffffffffffffffffffffffffffffffffffffff82610a77565b610abe8683610a77565b95508019841693508086168417925050509392505050565b6000819050919050565b6000610afb610af6610af184610754565b610ad6565b610754565b9050919050565b6000819050919050565b610b1583610ae0565b610b29610b2182610b02565b848454610a84565b825550505050565b600090565b610b3e610b31565b610b49818484610b0c565b505050565b5b81811015610b6d57610b62600082610b36565b600181019050610b4f565b5050565b601f821115610bb257610b8381610a52565b610b8c84610a67565b81016020851015610b9b578190505b610baf610ba785610a67565b830182610b4e565b50505b505050565b600082821c905092915050565b6000610bd560001984600802610bb7565b1980831691505092915050565b6000610bee8383610bc4565b9150826002028217905092915050565b610c07826107e1565b67ffffffffffffffff811115610c2057610c1f61056f565b5b610c2a8254610a21565b610c35828285610b71565b600060209050601f831160018114610c685760008415610c56578287015190505b610c608582610be2565b865550610cc8565b601f198416610c7686610a52565b60005b82811015610c9e57848901518255600182019150602085019450602081019050610c79565b86831015610cbb5784890151610cb7601f891682610bc4565b8355505b6001600288020188555050505b505050505050565b7f496e73756666696369656e742062616c616e6365000000000000000000000000600082015250565b6000610d066014836107ec565b9150610d1182610cd0565b602082019050919050565b60006020820190508181036000830152610d3581610cf9565b9050919050565b7f4e487b7100000000000000000000000000000000000000000000000000000000600052601160045260246000fd5b6000610d7682610754565b9150610d8183610754565b9250828203905081811115610d9957610d98610d3c565b5b92915050565b6000610daa82610754565b9150610db583610754565b9250828201905080821115610dcd57610dcc610d3c565b5b9291505056fea2646970667358221220864a229124a3cf3a40a32ab5148c236694bd898ac1626f8b434511f43da6068464736f6c63430008120033",
					"opcodes": "PUSH1 0x80 PUSH1 0x40 MSTORE CALLVALUE DUP1 ISZERO PUSH2 0x10 JUMPI PUSH1 0x0 DUP1 REVERT JUMPDEST POP PUSH2 0xE09 DUP1 PUSH2 0x20 PUSH1 0x0 CODECOPY PUSH1 0x0 RETURN INVALID PUSH1 0x80 PUSH1 0x40 MSTORE CALLVALUE DUP1 ISZERO PUSH2 0x10 JUMPI PUSH1 0x0 DUP1 REVERT JUMPDEST POP PUSH1 0x4 CALLDATASIZE LT PUSH2 0x57 JUMPI PUSH1 0x0 CALLDATALOAD PUSH1 0xE0 SHR DUP1 PUSH4 0x4A665464 EQ PUSH2 0x5C JUMPI DUP1 PUSH4 0x4F64B2BE EQ PUSH2 0x8C JUMPI DUP1 PUSH4 0x5B060530 EQ PUSH2 0xBE JUMPI DUP1 PUSH4 0xE5362667 EQ PUSH2 0xDA JUMPI DUP1 PUSH4 0xEE91035E EQ PUSH2 0xF8 JUMPI JUMPDEST PUSH1 0x0 DUP1 REVERT JUMPDEST PUSH2 0x76 PUSH1 0x4 DUP1 CALLDATASIZE SUB DUP2 ADD SWAP1 PUSH2 0x71 SWAP2 SWAP1 PUSH2 0x6F8 JUMP JUMPDEST PUSH2 0x114 JUMP JUMPDEST PUSH1 0x40 MLOAD PUSH2 0x83 SWAP2 SWAP1 PUSH2 0x76D JUMP JUMPDEST PUSH1 0x40 MLOAD DUP1 SWAP2 SUB SWAP1 RETURN JUMPDEST PUSH2 0xA6 PUSH1 0x4 DUP1 CALLDATASIZE SUB DUP2 ADD SWAP1 PUSH2 0xA1 SWAP2 SWAP1 PUSH2 0x7B4 JUMP JUMPDEST PUSH2 0x17A JUMP JUMPDEST PUSH1 0x40 MLOAD PUSH2 0xB5 SWAP4 SWAP3 SWAP2 SWAP1 PUSH2 0x860 JUMP JUMPDEST PUSH1 0x40 MLOAD DUP1 SWAP2 SUB SWAP1 RETURN JUMPDEST PUSH2 0xD8 PUSH1 0x4 DUP1 CALLDATASIZE SUB DUP2 ADD SWAP1 PUSH2 0xD3 SWAP2 SWAP1 PUSH2 0x8A5 JUMP JUMPDEST PUSH2 0x2C4 JUMP JUMPDEST STOP JUMPDEST PUSH2 0xE2 PUSH2 0x3AD JUMP JUMPDEST PUSH1 0x40 MLOAD PUSH2 0xEF SWAP2 SWAP1 PUSH2 0x76D JUMP JUMPDEST PUSH1 0x40 MLOAD DUP1 SWAP2 SUB SWAP1 RETURN JUMPDEST PUSH2 0x112 PUSH1 0x4 DUP1 CALLDATASIZE SUB DUP2 ADD SWAP1 PUSH2 0x10D SWAP2 SWAP1 PUSH2 0x930 JUMP JUMPDEST PUSH2 0x3B9 JUMP JUMPDEST STOP JUMPDEST PUSH1 0x0 PUSH1 0x1 DUP4 PUSH1 0x40 MLOAD PUSH2 0x126 SWAP2 SWAP1 PUSH2 0x9DB JUMP JUMPDEST SWAP1 DUP2 MSTORE PUSH1 0x20 ADD PUSH1 0x40 MLOAD DUP1 SWAP2 SUB SWAP1 KECCAK256 PUSH1 0x0 DUP4 PUSH20 0xFFFFFFFFFFFFFFFFFFFFFFFFFFFFFFFFFFFFFFFF AND PUSH20 0xFFFFFFFFFFFFFFFFFFFFFFFFFFFFFFFFFFFFFFFF AND DUP2 MSTORE PUSH1 0x20 ADD SWAP1 DUP2 MSTORE PUSH1 0x20 ADD PUSH1 0x0 KECCAK256 SLOAD SWAP1 POP SWAP3 SWAP2 POP POP JUMP JUMPDEST PUSH1 0x0 DUP2 DUP2 SLOAD DUP2 LT PUSH2 0x18A JUMPI PUSH1 0x0 DUP1 REVERT JUMPDEST SWAP1 PUSH1 0x0 MSTORE PUSH1 0x20 PUSH1 0x0 KECCAK256 SWAP1 PUSH1 0x3 MUL ADD PUSH1 0x0 SWAP2 POP SWAP1 POP DUP1 PUSH1 0x0 ADD DUP1 SLOAD PUSH2 0x1AD SWAP1 PUSH2 0xA21 JUMP JUMPDEST DUP1 PUSH1 0x1F ADD PUSH1 0x20 DUP1 SWAP2 DIV MUL PUSH1 0x20 ADD PUSH1 0x40 MLOAD SWAP1 DUP2 ADD PUSH1 0x40 MSTORE DUP1 SWAP3 SWAP2 SWAP1 DUP2 DUP2 MSTORE PUSH1 0x20 ADD DUP3 DUP1 SLOAD PUSH2 0x1D9 SWAP1 PUSH2 0xA21 JUMP JUMPDEST DUP1 ISZERO PUSH2 0x226 JUMPI DUP1 PUSH1 0x1F LT PUSH2 0x1FB JUMPI PUSH2 0x100 DUP1 DUP4 SLOAD DIV MUL DUP4 MSTORE SWAP2 PUSH1 0x20 ADD SWAP2 PUSH2 0x226 JUMP JUMPDEST DUP3 ADD SWAP2 SWAP1 PUSH1 0x0 MSTORE PUSH1 0x20 PUSH1 0x0 KECCAK256 SWAP1 JUMPDEST DUP2 SLOAD DUP2 MSTORE SWAP1 PUSH1 0x1 ADD SWAP1 PUSH1 0x20 ADD DUP1 DUP4 GT PUSH2 0x209 JUMPI DUP3 SWAP1 SUB PUSH1 0x1F AND DUP3 ADD SWAP2 JUMPDEST POP POP POP POP POP SWAP1 DUP1 PUSH1 0x1 ADD DUP1 SLOAD PUSH2 0x23B SWAP1 PUSH2 0xA21 JUMP JUMPDEST DUP1 PUSH1 0x1F ADD PUSH1 0x20 DUP1 SWAP2 DIV MUL PUSH1 0x20 ADD PUSH1 0x40 MLOAD SWAP1 DUP2 ADD PUSH1 0x40 MSTORE DUP1 SWAP3 SWAP2 SWAP1 DUP2 DUP2 MSTORE PUSH1 0x20 ADD DUP3 DUP1 SLOAD PUSH2 0x267 SWAP1 PUSH2 0xA21 JUMP JUMPDEST DUP1 ISZERO PUSH2 0x2B4 JUMPI DUP1 PUSH1 0x1F LT PUSH2 0x289 JUMPI PUSH2 0x100 DUP1 DUP4 SLOAD DIV MUL DUP4 MSTORE SWAP2 PUSH1 0x20 ADD SWAP2 PUSH2 0x2B4 JUMP JUMPDEST DUP3 ADD SWAP2 SWAP1 PUSH1 0x0 MSTORE PUSH1 0x20 PUSH1 0x0 KECCAK256 SWAP1 JUMPDEST DUP2 SLOAD DUP2 MSTORE SWAP1 PUSH1 0x1 ADD SWAP1 PUSH1 0x20 ADD DUP1 DUP4 GT PUSH2 0x297 JUMPI DUP3 SWAP1 SUB PUSH1 0x1F AND DUP3 ADD SWAP2 JUMPDEST POP POP POP POP POP SWAP1 DUP1 PUSH1 0x2 ADD SLOAD SWAP1 POP DUP4 JUMP JUMPDEST PUSH1 0x0 PUSH1 0x40 MLOAD DUP1 PUSH1 0x60 ADD PUSH1 0x40 MSTORE DUP1 DUP6 DUP2 MSTORE PUSH1 0x20 ADD DUP5 DUP2 MSTORE PUSH1 0x20 ADD DUP4 DUP2 MSTORE POP SWAP1 POP PUSH1 0x0 DUP2 SWAP1 DUP1 PUSH1 0x1 DUP2 SLOAD ADD DUP1 DUP3 SSTORE DUP1 SWAP2 POP POP PUSH1 0x1 SWAP1 SUB SWAP1 PUSH1 0x0 MSTORE PUSH1 0x20 PUSH1 0x0 KECCAK256 SWAP1 PUSH1 0x3 MUL ADD PUSH1 0x0 SWAP1 SWAP2 SWAP1 SWAP2 SWAP1 SWAP2 POP PUSH1 0x0 DUP3 ADD MLOAD DUP2 PUSH1 0x0 ADD SWAP1 DUP2 PUSH2 0x324 SWAP2 SWAP1 PUSH2 0xBFE JUMP JUMPDEST POP PUSH1 0x20 DUP3 ADD MLOAD DUP2 PUSH1 0x1 ADD SWAP1 DUP2 PUSH2 0x33A SWAP2 SWAP1 PUSH2 0xBFE JUMP JUMPDEST POP PUSH1 0x40 DUP3 ADD MLOAD DUP2 PUSH1 0x2 ADD SSTORE POP POP DUP2 PUSH1 0x1 DUP5 PUSH1 0x40 MLOAD PUSH2 0x358 SWAP2 SWAP1 PUSH2 0x9DB JUMP JUMPDEST SWAP1 DUP2 MSTORE PUSH1 0x20 ADD PUSH1 0x40 MLOAD DUP1 SWAP2 SUB SWAP1 KECCAK256 PUSH1 0x0 CALLER PUSH20 0xFFFFFFFFFFFFFFFFFFFFFFFFFFFFFFFFFFFFFFFF AND PUSH20 0xFFFFFFFFFFFFFFFFFFFFFFFFFFFFFFFFFFFFFFFF AND DUP2 MSTORE PUSH1 0x20 ADD SWAP1 DUP2 MSTORE PUSH1 0x20 ADD PUSH1 0x0 KECCAK256 DUP2 SWAP1 SSTORE POP POP POP POP POP JUMP JUMPDEST PUSH1 0x0 DUP1 DUP1 SLOAD SWAP1 POP SWAP1 POP SWAP1 JUMP JUMPDEST DUP1 PUSH1 0x1 DUP5 PUSH1 0x40 MLOAD PUSH2 0x3CA SWAP2 SWAP1 PUSH2 0x9DB JUMP JUMPDEST SWAP1 DUP2 MSTORE PUSH1 0x20 ADD PUSH1 0x40 MLOAD DUP1 SWAP2 SUB SWAP1 KECCAK256 PUSH1 0x0 CALLER PUSH20 0xFFFFFFFFFFFFFFFFFFFFFFFFFFFFFFFFFFFFFFFF AND PUSH20 0xFFFFFFFFFFFFFFFFFFFFFFFFFFFFFFFFFFFFFFFF AND DUP2 MSTORE PUSH1 0x20 ADD SWAP1 DUP2 MSTORE PUSH1 0x20 ADD PUSH1 0x0 KECCAK256 SLOAD LT ISZERO PUSH2 0x457 JUMPI PUSH1 0x40 MLOAD PUSH32 0x8C379A000000000000000000000000000000000000000000000000000000000 DUP2 MSTORE PUSH1 0x4 ADD PUSH2 0x44E SWAP1 PUSH2 0xD1C JUMP JUMPDEST PUSH1 0x40 MLOAD DUP1 SWAP2 SUB SWAP1 REVERT JUMPDEST DUP1 PUSH1 0x1 DUP5 PUSH1 0x40 MLOAD PUSH2 0x468 SWAP2 SWAP1 PUSH2 0x9DB JUMP JUMPDEST SWAP1 DUP2 MSTORE PUSH1 0x20 ADD PUSH1 0x40 MLOAD DUP1 SWAP2 SUB SWAP1 KECCAK256 PUSH1 0x0 CALLER PUSH20 0xFFFFFFFFFFFFFFFFFFFFFFFFFFFFFFFFFFFFFFFF AND PUSH20 0xFFFFFFFFFFFFFFFFFFFFFFFFFFFFFFFFFFFFFFFF AND DUP2 MSTORE PUSH1 0x20 ADD SWAP1 DUP2 MSTORE PUSH1 0x20 ADD PUSH1 0x0 KECCAK256 PUSH1 0x0 DUP3 DUP3 SLOAD PUSH2 0x4C2 SWAP2 SWAP1 PUSH2 0xD6B JUMP JUMPDEST SWAP3 POP POP DUP2 SWAP1 SSTORE POP DUP1 PUSH1 0x1 DUP5 PUSH1 0x40 MLOAD PUSH2 0x4DA SWAP2 SWAP1 PUSH2 0x9DB JUMP JUMPDEST SWAP1 DUP2 MSTORE PUSH1 0x20 ADD PUSH1 0x40 MLOAD DUP1 SWAP2 SUB SWAP1 KECCAK256 PUSH1 0x0 DUP5 PUSH20 0xFFFFFFFFFFFFFFFFFFFFFFFFFFFFFFFFFFFFFFFF AND PUSH20 0xFFFFFFFFFFFFFFFFFFFFFFFFFFFFFFFFFFFFFFFF AND DUP2 MSTORE PUSH1 0x20 ADD SWAP1 DUP2 MSTORE PUSH1 0x20 ADD PUSH1 0x0 KECCAK256 PUSH1 0x0 DUP3 DUP3 SLOAD PUSH2 0x534 SWAP2 SWAP1 PUSH2 0xD9F JUMP JUMPDEST SWAP3 POP POP DUP2 SWAP1 SSTORE POP POP POP POP JUMP JUMPDEST PUSH1 0x0 PUSH1 0x40 MLOAD SWAP1 POP SWAP1 JUMP JUMPDEST PUSH1 0x0 DUP1 REVERT JUMPDEST PUSH1 0x0 DUP1 REVERT JUMPDEST PUSH1 0x0 DUP1 REVERT JUMPDEST PUSH1 0x0 DUP1 REVERT JUMPDEST PUSH1 0x0 PUSH1 0x1F NOT PUSH1 0x1F DUP4 ADD AND SWAP1 POP SWAP2 SWAP1 POP JUMP JUMPDEST PUSH32 0x4E487B7100000000000000000000000000000000000000000000000000000000 PUSH1 0x0 MSTORE PUSH1 0x41 PUSH1 0x4 MSTORE PUSH1 0x24 PUSH1 0x0 REVERT JUMPDEST PUSH2 0x5A7 DUP3 PUSH2 0x55E JUMP JUMPDEST DUP2 ADD DUP2 DUP2 LT PUSH8 0xFFFFFFFFFFFFFFFF DUP3 GT OR ISZERO PUSH2 0x5C6 JUMPI PUSH2 0x5C5 PUSH2 0x56F JUMP JUMPDEST JUMPDEST DUP1 PUSH1 0x40 MSTORE POP POP POP JUMP JUMPDEST PUSH1 0x0 PUSH2 0x5D9 PUSH2 0x540 JUMP JUMPDEST SWAP1 POP PUSH2 0x5E5 DUP3 DUP3 PUSH2 0x59E JUMP JUMPDEST SWAP2 SWAP1 POP JUMP JUMPDEST PUSH1 0x0 PUSH8 0xFFFFFFFFFFFFFFFF DUP3 GT ISZERO PUSH2 0x605 JUMPI PUSH2 0x604 PUSH2 0x56F JUMP JUMPDEST JUMPDEST PUSH2 0x60E DUP3 PUSH2 0x55E JUMP JUMPDEST SWAP1 POP PUSH1 0x20 DUP2 ADD SWAP1 POP SWAP2 SWAP1 POP JUMP JUMPDEST DUP3 DUP2 DUP4 CALLDATACOPY PUSH1 0x0 DUP4 DUP4 ADD MSTORE POP POP POP JUMP JUMPDEST PUSH1 0x0 PUSH2 0x63D PUSH2 0x638 DUP5 PUSH2 0x5EA JUMP JUMPDEST PUSH2 0x5CF JUMP JUMPDEST SWAP1 POP DUP3 DUP2 MSTORE PUSH1 0x20 DUP2 ADD DUP5 DUP5 DUP5 ADD GT ISZERO PUSH2 0x659 JUMPI PUSH2 0x658 PUSH2 0x559 JUMP JUMPDEST JUMPDEST PUSH2 0x664 DUP5 DUP3 DUP6 PUSH2 0x61B JUMP JUMPDEST POP SWAP4 SWAP3 POP POP POP JUMP JUMPDEST PUSH1 0x0 DUP3 PUSH1 0x1F DUP4 ADD SLT PUSH2 0x681 JUMPI PUSH2 0x680 PUSH2 0x554 JUMP JUMPDEST JUMPDEST DUP2 CALLDATALOAD PUSH2 0x691 DUP5 DUP3 PUSH1 0x20 DUP7 ADD PUSH2 0x62A JUMP JUMPDEST SWAP2 POP POP SWAP3 SWAP2 POP POP JUMP JUMPDEST PUSH1 0x0 PUSH20 0xFFFFFFFFFFFFFFFFFFFFFFFFFFFFFFFFFFFFFFFF DUP3 AND SWAP1 POP SWAP2 SWAP1 POP JUMP JUMPDEST PUSH1 0x0 PUSH2 0x6C5 DUP3 PUSH2 0x69A JUMP JUMPDEST SWAP1 POP SWAP2 SWAP1 POP JUMP JUMPDEST PUSH2 0x6D5 DUP2 PUSH2 0x6BA JUMP JUMPDEST DUP2 EQ PUSH2 0x6E0 JUMPI PUSH1 0x0 DUP1 REVERT JUMPDEST POP JUMP JUMPDEST PUSH1 0x0 DUP2 CALLDATALOAD SWAP1 POP PUSH2 0x6F2 DUP2 PUSH2 0x6CC JUMP JUMPDEST SWAP3 SWAP2 POP POP JUMP JUMPDEST PUSH1 0x0 DUP1 PUSH1 0x40 DUP4 DUP6 SUB SLT ISZERO PUSH2 0x70F JUMPI PUSH2 0x70E PUSH2 0x54A JUMP JUMPDEST JUMPDEST PUSH1 0x0 DUP4 ADD CALLDATALOAD PUSH8 0xFFFFFFFFFFFFFFFF DUP2 GT ISZERO PUSH2 0x72D JUMPI PUSH2 0x72C PUSH2 0x54F JUMP JUMPDEST JUMPDEST PUSH2 0x739 DUP6 DUP3 DUP7 ADD PUSH2 0x66C JUMP JUMPDEST SWAP3 POP POP PUSH1 0x20 PUSH2 0x74A DUP6 DUP3 DUP7 ADD PUSH2 0x6E3 JUMP JUMPDEST SWAP2 POP POP SWAP3 POP SWAP3 SWAP1 POP JUMP JUMPDEST PUSH1 0x0 DUP2 SWAP1 POP SWAP2 SWAP1 POP JUMP JUMPDEST PUSH2 0x767 DUP2 PUSH2 0x754 JUMP JUMPDEST DUP3 MSTORE POP POP JUMP JUMPDEST PUSH1 0x0 PUSH1 0x20 DUP3 ADD SWAP1 POP PUSH2 0x782 PUSH1 0x0 DUP4 ADD DUP5 PUSH2 0x75E JUMP JUMPDEST SWAP3 SWAP2 POP POP JUMP JUMPDEST PUSH2 0x791 DUP2 PUSH2 0x754 JUMP JUMPDEST DUP2 EQ PUSH2 0x79C JUMPI PUSH1 0x0 DUP1 REVERT JUMPDEST POP JUMP JUMPDEST PUSH1 0x0 DUP2 CALLDATALOAD SWAP1 POP PUSH2 0x7AE DUP2 PUSH2 0x788 JUMP JUMPDEST SWAP3 SWAP2 POP POP JUMP JUMPDEST PUSH1 0x0 PUSH1 0x20 DUP3 DUP5 SUB SLT ISZERO PUSH2 0x7CA JUMPI PUSH2 0x7C9 PUSH2 0x54A JUMP JUMPDEST JUMPDEST PUSH1 0x0 PUSH2 0x7D8 DUP5 DUP3 DUP6 ADD PUSH2 0x79F JUMP JUMPDEST SWAP2 POP POP SWAP3 SWAP2 POP POP JUMP JUMPDEST PUSH1 0x0 DUP2 MLOAD SWAP1 POP SWAP2 SWAP1 POP JUMP JUMPDEST PUSH1 0x0 DUP3 DUP3 MSTORE PUSH1 0x20 DUP3 ADD SWAP1 POP SWAP3 SWAP2 POP POP JUMP JUMPDEST PUSH1 0x0 JUMPDEST DUP4 DUP2 LT ISZERO PUSH2 0x81B JUMPI DUP1 DUP3 ADD MLOAD DUP2 DUP5 ADD MSTORE PUSH1 0x20 DUP2 ADD SWAP1 POP PUSH2 0x800 JUMP JUMPDEST PUSH1 0x0 DUP5 DUP5 ADD MSTORE POP POP POP POP JUMP JUMPDEST PUSH1 0x0 PUSH2 0x832 DUP3 PUSH2 0x7E1 JUMP JUMPDEST PUSH2 0x83C DUP2 DUP6 PUSH2 0x7EC JUMP JUMPDEST SWAP4 POP PUSH2 0x84C DUP2 DUP6 PUSH1 0x20 DUP7 ADD PUSH2 0x7FD JUMP JUMPDEST PUSH2 0x855 DUP2 PUSH2 0x55E JUMP JUMPDEST DUP5 ADD SWAP2 POP POP SWAP3 SWAP2 POP POP JUMP JUMPDEST PUSH1 0x0 PUSH1 0x60 DUP3 ADD SWAP1 POP DUP2 DUP2 SUB PUSH1 0x0 DUP4 ADD MSTORE PUSH2 0x87A DUP2 DUP7 PUSH2 0x827 JUMP JUMPDEST SWAP1 POP DUP2 DUP2 SUB PUSH1 0x20 DUP4 ADD MSTORE PUSH2 0x88E DUP2 DUP6 PUSH2 0x827 JUMP JUMPDEST SWAP1 POP PUSH2 0x89D PUSH1 0x40 DUP4 ADD DUP5 PUSH2 0x75E JUMP JUMPDEST SWAP5 SWAP4 POP POP POP POP JUMP JUMPDEST PUSH1 0x0 DUP1 PUSH1 0x0 PUSH1 0x60 DUP5 DUP7 SUB SLT ISZERO PUSH2 0x8BE JUMPI PUSH2 0x8BD PUSH2 0x54A JUMP JUMPDEST JUMPDEST PUSH1 0x0 DUP5 ADD CALLDATALOAD PUSH8 0xFFFFFFFFFFFFFFFF DUP2 GT ISZERO PUSH2 0x8DC JUMPI PUSH2 0x8DB PUSH2 0x54F JUMP JUMPDEST JUMPDEST PUSH2 0x8E8 DUP7 DUP3 DUP8 ADD PUSH2 0x66C JUMP JUMPDEST SWAP4 POP POP PUSH1 0x20 DUP5 ADD CALLDATALOAD PUSH8 0xFFFFFFFFFFFFFFFF DUP2 GT ISZERO PUSH2 0x909 JUMPI PUSH2 0x908 PUSH2 0x54F JUMP JUMPDEST JUMPDEST PUSH2 0x915 DUP7 DUP3 DUP8 ADD PUSH2 0x66C JUMP JUMPDEST SWAP3 POP POP PUSH1 0x40 PUSH2 0x926 DUP7 DUP3 DUP8 ADD PUSH2 0x79F JUMP JUMPDEST SWAP2 POP POP SWAP3 POP SWAP3 POP SWAP3 JUMP JUMPDEST PUSH1 0x0 DUP1 PUSH1 0x0 PUSH1 0x60 DUP5 DUP7 SUB SLT ISZERO PUSH2 0x949 JUMPI PUSH2 0x948 PUSH2 0x54A JUMP JUMPDEST JUMPDEST PUSH1 0x0 DUP5 ADD CALLDATALOAD PUSH8 0xFFFFFFFFFFFFFFFF DUP2 GT ISZERO PUSH2 0x967 JUMPI PUSH2 0x966 PUSH2 0x54F JUMP JUMPDEST JUMPDEST PUSH2 0x973 DUP7 DUP3 DUP8 ADD PUSH2 0x66C JUMP JUMPDEST SWAP4 POP POP PUSH1 0x20 PUSH2 0x984 DUP7 DUP3 DUP8 ADD PUSH2 0x6E3 JUMP JUMPDEST SWAP3 POP POP PUSH1 0x40 PUSH2 0x995 DUP7 DUP3 DUP8 ADD PUSH2 0x79F JUMP JUMPDEST SWAP2 POP POP SWAP3 POP SWAP3 POP SWAP3 JUMP JUMPDEST PUSH1 0x0 DUP2 SWAP1 POP SWAP3 SWAP2 POP POP JUMP JUMPDEST PUSH1 0x0 PUSH2 0x9B5 DUP3 PUSH2 0x7E1 JUMP JUMPDEST PUSH2 0x9BF DUP2 DUP6 PUSH2 0x99F JUMP JUMPDEST SWAP4 POP PUSH2 0x9CF DUP2 DUP6 PUSH1 0x20 DUP7 ADD PUSH2 0x7FD JUMP JUMPDEST DUP1 DUP5 ADD SWAP2 POP POP SWAP3 SWAP2 POP POP JUMP JUMPDEST PUSH1 0x0 PUSH2 0x9E7 DUP3 DUP5 PUSH2 0x9AA JUMP JUMPDEST SWAP2 POP DUP2 SWAP1 POP SWAP3 SWAP2 POP POP JUMP JUMPDEST PUSH32 0x4E487B7100000000000000000000000000000000000000000000000000000000 PUSH1 0x0 MSTORE PUSH1 0x22 PUSH1 0x4 MSTORE PUSH1 0x24 PUSH1 0x0 REVERT JUMPDEST PUSH1 0x0 PUSH1 0x2 DUP3 DIV SWAP1 POP PUSH1 0x1 DUP3 AND DUP1 PUSH2 0xA39 JUMPI PUSH1 0x7F DUP3 AND SWAP2 POP JUMPDEST PUSH1 0x20 DUP3 LT DUP2 SUB PUSH2 0xA4C JUMPI PUSH2 0xA4B PUSH2 0x9F2 JUMP JUMPDEST JUMPDEST POP SWAP2 SWAP1 POP JUMP JUMPDEST PUSH1 0x0 DUP2 SWAP1 POP DUP2 PUSH1 0x0 MSTORE PUSH1 0x20 PUSH1 0x0 KECCAK256 SWAP1 POP SWAP2 SWAP1 POP JUMP JUMPDEST PUSH1 0x0 PUSH1 0x20 PUSH1 0x1F DUP4 ADD DIV SWAP1 POP SWAP2 SWAP1 POP JUMP JUMPDEST PUSH1 0x0 DUP3 DUP3 SHL SWAP1 POP SWAP3 SWAP2 POP POP JUMP JUMPDEST PUSH1 0x0 PUSH1 0x8 DUP4 MUL PUSH2 0xAB4 PUSH32 0xFFFFFFFFFFFFFFFFFFFFFFFFFFFFFFFFFFFFFFFFFFFFFFFFFFFFFFFFFFFFFFFF DUP3 PUSH2 0xA77 JUMP JUMPDEST PUSH2 0xABE DUP7 DUP4 PUSH2 0xA77 JUMP JUMPDEST SWAP6 POP DUP1 NOT DUP5 AND SWAP4 POP DUP1 DUP7 AND DUP5 OR SWAP3 POP POP POP SWAP4 SWAP3 POP POP POP JUMP JUMPDEST PUSH1 0x0 DUP2 SWAP1 POP SWAP2 SWAP1 POP JUMP JUMPDEST PUSH1 0x0 PUSH2 0xAFB PUSH2 0xAF6 PUSH2 0xAF1 DUP5 PUSH2 0x754 JUMP JUMPDEST PUSH2 0xAD6 JUMP JUMPDEST PUSH2 0x754 JUMP JUMPDEST SWAP1 POP SWAP2 SWAP1 POP JUMP JUMPDEST PUSH1 0x0 DUP2 SWAP1 POP SWAP2 SWAP1 POP JUMP JUMPDEST PUSH2 0xB15 DUP4 PUSH2 0xAE0 JUMP JUMPDEST PUSH2 0xB29 PUSH2 0xB21 DUP3 PUSH2 0xB02 JUMP JUMPDEST DUP5 DUP5 SLOAD PUSH2 0xA84 JUMP JUMPDEST DUP3 SSTORE POP POP POP POP JUMP JUMPDEST PUSH1 0x0 SWAP1 JUMP JUMPDEST PUSH2 0xB3E PUSH2 0xB31 JUMP JUMPDEST PUSH2 0xB49 DUP2 DUP5 DUP5 PUSH2 0xB0C JUMP JUMPDEST POP POP POP JUMP JUMPDEST JUMPDEST DUP2 DUP2 LT ISZERO PUSH2 0xB6D JUMPI PUSH2 0xB62 PUSH1 0x0 DUP3 PUSH2 0xB36 JUMP JUMPDEST PUSH1 0x1 DUP2 ADD SWAP1 POP PUSH2 0xB4F JUMP JUMPDEST POP POP JUMP JUMPDEST PUSH1 0x1F DUP3 GT ISZERO PUSH2 0xBB2 JUMPI PUSH2 0xB83 DUP2 PUSH2 0xA52 JUMP JUMPDEST PUSH2 0xB8C DUP5 PUSH2 0xA67 JUMP JUMPDEST DUP2 ADD PUSH1 0x20 DUP6 LT ISZERO PUSH2 0xB9B JUMPI DUP2 SWAP1 POP JUMPDEST PUSH2 0xBAF PUSH2 0xBA7 DUP6 PUSH2 0xA67 JUMP JUMPDEST DUP4 ADD DUP3 PUSH2 0xB4E JUMP JUMPDEST POP POP JUMPDEST POP POP POP JUMP JUMPDEST PUSH1 0x0 DUP3 DUP3 SHR SWAP1 POP SWAP3 SWAP2 POP POP JUMP JUMPDEST PUSH1 0x0 PUSH2 0xBD5 PUSH1 0x0 NOT DUP5 PUSH1 0x8 MUL PUSH2 0xBB7 JUMP JUMPDEST NOT DUP1 DUP4 AND SWAP2 POP POP SWAP3 SWAP2 POP POP JUMP JUMPDEST PUSH1 0x0 PUSH2 0xBEE DUP4 DUP4 PUSH2 0xBC4 JUMP JUMPDEST SWAP2 POP DUP3 PUSH1 0x2 MUL DUP3 OR SWAP1 POP SWAP3 SWAP2 POP POP JUMP JUMPDEST PUSH2 0xC07 DUP3 PUSH2 0x7E1 JUMP JUMPDEST PUSH8 0xFFFFFFFFFFFFFFFF DUP2 GT ISZERO PUSH2 0xC20 JUMPI PUSH2 0xC1F PUSH2 0x56F JUMP JUMPDEST JUMPDEST PUSH2 0xC2A DUP3 SLOAD PUSH2 0xA21 JUMP JUMPDEST PUSH2 0xC35 DUP3 DUP3 DUP6 PUSH2 0xB71 JUMP JUMPDEST PUSH1 0x0 PUSH1 0x20 SWAP1 POP PUSH1 0x1F DUP4 GT PUSH1 0x1 DUP2 EQ PUSH2 0xC68 JUMPI PUSH1 0x0 DUP5 ISZERO PUSH2 0xC56 JUMPI DUP3 DUP8 ADD MLOAD SWAP1 POP JUMPDEST PUSH2 0xC60 DUP6 DUP3 PUSH2 0xBE2 JUMP JUMPDEST DUP7 SSTORE POP PUSH2 0xCC8 JUMP JUMPDEST PUSH1 0x1F NOT DUP5 AND PUSH2 0xC76 DUP7 PUSH2 0xA52 JUMP JUMPDEST PUSH1 0x0 JUMPDEST DUP3 DUP2 LT ISZERO PUSH2 0xC9E JUMPI DUP5 DUP10 ADD MLOAD DUP3 SSTORE PUSH1 0x1 DUP3 ADD SWAP2 POP PUSH1 0x20 DUP6 ADD SWAP5 POP PUSH1 0x20 DUP2 ADD SWAP1 POP PUSH2 0xC79 JUMP JUMPDEST DUP7 DUP4 LT ISZERO PUSH2 0xCBB JUMPI DUP5 DUP10 ADD MLOAD PUSH2 0xCB7 PUSH1 0x1F DUP10 AND DUP3 PUSH2 0xBC4 JUMP JUMPDEST DUP4 SSTORE POP JUMPDEST PUSH1 0x1 PUSH1 0x2 DUP9 MUL ADD DUP9 SSTORE POP POP POP JUMPDEST POP POP POP POP POP POP JUMP JUMPDEST PUSH32 0x496E73756666696369656E742062616C616E6365000000000000000000000000 PUSH1 0x0 DUP3 ADD MSTORE POP JUMP JUMPDEST PUSH1 0x0 PUSH2 0xD06 PUSH1 0x14 DUP4 PUSH2 0x7EC JUMP JUMPDEST SWAP2 POP PUSH2 0xD11 DUP3 PUSH2 0xCD0 JUMP JUMPDEST PUSH1 0x20 DUP3 ADD SWAP1 POP SWAP2 SWAP1 POP JUMP JUMPDEST PUSH1 0x0 PUSH1 0x20 DUP3 ADD SWAP1 POP DUP2 DUP2 SUB PUSH1 0x0 DUP4 ADD MSTORE PUSH2 0xD35 DUP2 PUSH2 0xCF9 JUMP JUMPDEST SWAP1 POP SWAP2 SWAP1 POP JUMP JUMPDEST PUSH32 0x4E487B7100000000000000000000000000000000000000000000000000000000 PUSH1 0x0 MSTORE PUSH1 0x11 PUSH1 0x4 MSTORE PUSH1 0x24 PUSH1 0x0 REVERT JUMPDEST PUSH1 0x0 PUSH2 0xD76 DUP3 PUSH2 0x754 JUMP JUMPDEST SWAP2 POP PUSH2 0xD81 DUP4 PUSH2 0x754 JUMP JUMPDEST SWAP3 POP DUP3 DUP3 SUB SWAP1 POP DUP2 DUP2 GT ISZERO PUSH2 0xD99 JUMPI PUSH2 0xD98 PUSH2 0xD3C JUMP JUMPDEST JUMPDEST SWAP3 SWAP2 POP POP JUMP JUMPDEST PUSH1 0x0 PUSH2 0xDAA DUP3 PUSH2 0x754 JUMP JUMPDEST SWAP2 POP PUSH2 0xDB5 DUP4 PUSH2 0x754 JUMP JUMPDEST SWAP3 POP DUP3 DUP3 ADD SWAP1 POP DUP1 DUP3 GT ISZERO PUSH2 0xDCD JUMPI PUSH2 0xDCC PUSH2 0xD3C JUMP JUMPDEST JUMPDEST SWAP3 SWAP2 POP POP JUMP INVALID LOG2 PUSH5 0x6970667358 0x22 SLT KECCAK256 DUP7 0x4A 0x22 SWAP2 0x24 LOG3 0xCF GASPRICE BLOCKHASH LOG3 0x2A 0xB5 EQ DUP13 0x23 PUSH7 0x94BD898AC1626F DUP12 NUMBER GASLIMIT GT DELEGATECALL RETURNDATASIZE 0xA6 MOD DUP5 PUSH5 0x736F6C6343 STOP ADDMOD SLT STOP CALLER "
				},
				"gasEstimates": {
					"creation": {
						"codeDepositCost": "718600",
						"executionCost": "753",
						"totalCost": "719353"
					},
					"external": {
						"createToken(string,string,uint256)": "infinite",
						"getBalanceByToken(string,address)": "infinite",
						"getTotalTokenCount()": "2489",
						"tokens(uint256)": "infinite",
						"transferToken(string,address,uint256)": "infinite"
					}
				},
				"methodIdentifiers": {
					"createToken(string,string,uint256)": "5b060530",
					"getBalanceByToken(string,address)": "4a665464",
					"getTotalTokenCount()": "e5362667",
					"tokens(uint256)": "4f64b2be",
					"transferToken(string,address,uint256)": "ee91035e"
				}
			},
			"storageLayout": {
				"storage": [
					{
						"astId": 12,
						"contract": "smart contract token.sol:TokenManager",
						"label": "tokens",
						"offset": 0,
						"slot": "0",
						"type": "t_array(t_struct(Token)8_storage)dyn_storage"
					},
					{
						"astId": 18,
						"contract": "smart contract token.sol:TokenManager",
						"label": "balances",
						"offset": 0,
						"slot": "1",
						"type": "t_mapping(t_string_memory_ptr,t_mapping(t_address,t_uint256))"
					}
				],
				"types": {
					"t_address": {
						"encoding": "inplace",
						"label": "address",
						"numberOfBytes": "20"
					},
					"t_array(t_struct(Token)8_storage)dyn_storage": {
						"base": "t_struct(Token)8_storage",
						"encoding": "dynamic_array",
						"label": "struct TokenManager.Token[]",
						"numberOfBytes": "32"
					},
					"t_mapping(t_address,t_uint256)": {
						"encoding": "mapping",
						"key": "t_address",
						"label": "mapping(address => uint256)",
						"numberOfBytes": "32",
						"value": "t_uint256"
					},
					"t_mapping(t_string_memory_ptr,t_mapping(t_address,t_uint256))": {
						"encoding": "mapping",
						"key": "t_string_memory_ptr",
						"label": "mapping(string => mapping(address => uint256))",
						"numberOfBytes": "32",
						"value": "t_mapping(t_address,t_uint256)"
					},
					"t_string_memory_ptr": {
						"encoding": "bytes",
						"label": "string",
						"numberOfBytes": "32"
					},
					"t_string_storage": {
						"encoding": "bytes",
						"label": "string",
						"numberOfBytes": "32"
					},
					"t_struct(Token)8_storage": {
						"encoding": "inplace",
						"label": "struct TokenManager.Token",
						"members": [
							{
								"astId": 3,
								"contract": "smart contract token.sol:TokenManager",
								"label": "name",
								"offset": 0,
								"slot": "0",
								"type": "t_string_storage"
							},
							{
								"astId": 5,
								"contract": "smart contract token.sol:TokenManager",
								"label": "symbol",
								"offset": 0,
								"slot": "1",
								"type": "t_string_storage"
							},
							{
								"astId": 7,
								"contract": "smart contract token.sol:TokenManager",
								"label": "totalSupply",
								"offset": 0,
								"slot": "2",
								"type": "t_uint256"
							}
						],
						"numberOfBytes": "96"
					},
					"t_uint256": {
						"encoding": "inplace",
						"label": "uint256",
						"numberOfBytes": "32"
					}
				}
			},
			"userdoc": {
				"kind": "user",
				"methods": {},
				"version": 1
			}
		}
	}
}