{
	"Basic calculator2.sol": {
		"BasicCalculator": {
			"abi": [
				{
					"inputs": [],
					"stateMutability": "nonpayable",
					"type": "constructor"
				},
				{
					"inputs": [
						{
							"internalType": "uint256",
							"name": "x",
							"type": "uint256"
						},
						{
							"internalType": "uint256",
							"name": "y",
							"type": "uint256"
						}
					],
					"name": "add",
					"outputs": [],
					"stateMutability": "nonpayable",
					"type": "function"
				},
				{
					"inputs": [
						{
							"internalType": "uint256",
							"name": "x",
							"type": "uint256"
						},
						{
							"internalType": "uint256",
							"name": "y",
							"type": "uint256"
						}
					],
					"name": "divide",
					"outputs": [],
					"stateMutability": "nonpayable",
					"type": "function"
				},
				{
					"inputs": [],
					"name": "getResult",
					"outputs": [
						{
							"internalType": "uint256",
							"name": "",
							"type": "uint256"
						}
					],
					"stateMutability": "view",
					"type": "function"
				},
				{
					"inputs": [
						{
							"internalType": "uint256",
							"name": "x",
							"type": "uint256"
						},
						{
							"internalType": "uint256",
							"name": "y",
							"type": "uint256"
						}
					],
					"name": "multiply",
					"outputs": [],
					"stateMutability": "nonpayable",
					"type": "function"
				},
				{
					"inputs": [
						{
							"internalType": "uint256",
							"name": "x",
							"type": "uint256"
						},
						{
							"internalType": "uint256",
							"name": "y",
							"type": "uint256"
						}
					],
					"name": "subtract",
					"outputs": [],
					"stateMutability": "nonpayable",
					"type": "function"
				}
			],
			"devdoc": {
				"kind": "dev",
				"methods": {},
				"version": 1
			},
			"evm": {
				"assembly": "    /* \"Basic calculator2.sol\":65:890  contract BasicCalculator {... */\n  mstore(0x40, 0x80)\n    /* \"Basic calculator2.sol\":128:171  constructor() {... */\n  callvalue\n  dup1\n  iszero\n  tag_1\n  jumpi\n  0x00\n  dup1\n  revert\ntag_1:\n  pop\n    /* \"Basic calculator2.sol\":162:163  0 */\n  0x00\n    /* \"Basic calculator2.sol\":153:159  result */\n  dup1\n    /* \"Basic calculator2.sol\":153:163  result = 0 */\n  dup2\n  swap1\n  sstore\n  pop\n    /* \"Basic calculator2.sol\":65:890  contract BasicCalculator {... */\n  dataSize(sub_0)\n  dup1\n  dataOffset(sub_0)\n  0x00\n  codecopy\n  0x00\n  return\nstop\n\nsub_0: assembly {\n        /* \"Basic calculator2.sol\":65:890  contract BasicCalculator {... */\n      mstore(0x40, 0x80)\n      callvalue\n      dup1\n      iszero\n      tag_1\n      jumpi\n      0x00\n      dup1\n      revert\n    tag_1:\n      pop\n      jumpi(tag_2, lt(calldatasize, 0x04))\n      shr(0xe0, calldataload(0x00))\n      dup1\n      0x165c4a16\n      eq\n      tag_3\n      jumpi\n      dup1\n      0x3ef5e445\n      eq\n      tag_4\n      jumpi\n      dup1\n      0x771602f7\n      eq\n      tag_5\n      jumpi\n      dup1\n      0xde292789\n      eq\n      tag_6\n      jumpi\n      dup1\n      0xf88e9fbf\n      eq\n      tag_7\n      jumpi\n    tag_2:\n      0x00\n      dup1\n      revert\n        /* \"Basic calculator2.sol\":535:632  function multiply(uint256 x, uint256 y) public validInput(x, y) {... */\n    tag_3:\n      tag_8\n      0x04\n      dup1\n      calldatasize\n      sub\n      dup2\n      add\n      swap1\n      tag_9\n      swap2\n      swap1\n      tag_10\n      jump\t// in\n    tag_9:\n      tag_11\n      jump\t// in\n    tag_8:\n      stop\n        /* \"Basic calculator2.sol\":430:527  function subtract(uint256 x, uint256 y) public validInput(x, y) {... */\n    tag_4:\n      tag_12\n      0x04\n      dup1\n      calldatasize\n      sub\n      dup2\n      add\n      swap1\n      tag_13\n      swap2\n      swap1\n      tag_10\n      jump\t// in\n    tag_13:\n      tag_14\n      jump\t// in\n    tag_12:\n      stop\n        /* \"Basic calculator2.sol\":330:422  function add(uint256 x, uint256 y) public validInput(x, y) {... */\n    tag_5:\n      tag_15\n      0x04\n      dup1\n      calldatasize\n      sub\n      dup2\n      add\n      swap1\n      tag_16\n      swap2\n      swap1\n      tag_10\n      jump\t// in\n    tag_16:\n      tag_17\n      jump\t// in\n    tag_15:\n      stop\n        /* \"Basic calculator2.sol\":804:887  function getResult() public view returns (uint256) {... */\n    tag_6:\n      tag_18\n      tag_19\n      jump\t// in\n    tag_18:\n      mload(0x40)\n      tag_20\n      swap2\n      swap1\n      tag_21\n      jump\t// in\n    tag_20:\n      mload(0x40)\n      dup1\n      swap2\n      sub\n      swap1\n      return\n        /* \"Basic calculator2.sol\":640:796  function divide(uint256 x, uint256 y) public validInput(x, y) {... */\n    tag_7:\n      tag_22\n      0x04\n      dup1\n      calldatasize\n      sub\n      dup2\n      add\n      swap1\n      tag_23\n      swap2\n      swap1\n      tag_10\n      jump\t// in\n    tag_23:\n      tag_24\n      jump\t// in\n    tag_22:\n      stop\n        /* \"Basic calculator2.sol\":535:632  function multiply(uint256 x, uint256 y) public validInput(x, y) {... */\n    tag_11:\n        /* \"Basic calculator2.sol\":593:594  x */\n      dup2\n        /* \"Basic calculator2.sol\":596:597  y */\n      dup2\n        /* \"Basic calculator2.sol\":245:246  0 */\n      0x00\n        /* \"Basic calculator2.sol\":240:241  x */\n      dup3\n        /* \"Basic calculator2.sol\":240:246  x >= 0 */\n      lt\n      iszero\n        /* \"Basic calculator2.sol\":240:256  x >= 0 && y >= 0 */\n      dup1\n      iszero\n      tag_26\n      jumpi\n      pop\n        /* \"Basic calculator2.sol\":255:256  0 */\n      0x00\n        /* \"Basic calculator2.sol\":250:251  y */\n      dup2\n        /* \"Basic calculator2.sol\":250:256  y >= 0 */\n      lt\n      iszero\n        /* \"Basic calculator2.sol\":240:256  x >= 0 && y >= 0 */\n    tag_26:\n        /* \"Basic calculator2.sol\":232:302  require(x >= 0 && y >= 0, \"Inputs must be equal or greater than zero\") */\n      tag_27\n      jumpi\n      mload(0x40)\n      0x08c379a000000000000000000000000000000000000000000000000000000000\n      dup2\n      mstore\n      0x04\n      add\n      tag_28\n      swap1\n      tag_29\n      jump\t// in\n    tag_28:\n      mload(0x40)\n      dup1\n      swap2\n      sub\n      swap1\n      revert\n    tag_27:\n        /* \"Basic calculator2.sol\":623:624  y */\n      dup3\n        /* \"Basic calculator2.sol\":619:620  x */\n      dup5\n        /* \"Basic calculator2.sol\":619:624  x * y */\n      tag_31\n      swap2\n      swap1\n      tag_32\n      jump\t// in\n    tag_31:\n        /* \"Basic calculator2.sol\":610:616  result */\n      0x00\n        /* \"Basic calculator2.sol\":610:624  result = x * y */\n      dup2\n      swap1\n      sstore\n      pop\n        /* \"Basic calculator2.sol\":535:632  function multiply(uint256 x, uint256 y) public validInput(x, y) {... */\n      pop\n      pop\n      pop\n      pop\n      jump\t// out\n        /* \"Basic calculator2.sol\":430:527  function subtract(uint256 x, uint256 y) public validInput(x, y) {... */\n    tag_14:\n        /* \"Basic calculator2.sol\":488:489  x */\n      dup2\n        /* \"Basic calculator2.sol\":491:492  y */\n      dup2\n        /* \"Basic calculator2.sol\":245:246  0 */\n      0x00\n        /* \"Basic calculator2.sol\":240:241  x */\n      dup3\n        /* \"Basic calculator2.sol\":240:246  x >= 0 */\n      lt\n      iszero\n        /* \"Basic calculator2.sol\":240:256  x >= 0 && y >= 0 */\n      dup1\n      iszero\n      tag_34\n      jumpi\n      pop\n        /* \"Basic calculator2.sol\":255:256  0 */\n      0x00\n        /* \"Basic calculator2.sol\":250:251  y */\n      dup2\n        /* \"Basic calculator2.sol\":250:256  y >= 0 */\n      lt\n      iszero\n        /* \"Basic calculator2.sol\":240:256  x >= 0 && y >= 0 */\n    tag_34:\n        /* \"Basic calculator2.sol\":232:302  require(x >= 0 && y >= 0, \"Inputs must be equal or greater than zero\") */\n      tag_35\n      jumpi\n      mload(0x40)\n      0x08c379a000000000000000000000000000000000000000000000000000000000\n      dup2\n      mstore\n      0x04\n      add\n      tag_36\n      swap1\n      tag_29\n      jump\t// in\n    tag_36:\n      mload(0x40)\n      dup1\n      swap2\n      sub\n      swap1\n      revert\n    tag_35:\n        /* \"Basic calculator2.sol\":518:519  y */\n      dup3\n        /* \"Basic calculator2.sol\":514:515  x */\n      dup5\n        /* \"Basic calculator2.sol\":514:519  x - y */\n      tag_38\n      swap2\n      swap1\n      tag_39\n      jump\t// in\n    tag_38:\n        /* \"Basic calculator2.sol\":505:511  result */\n      0x00\n        /* \"Basic calculator2.sol\":505:519  result = x - y */\n      dup2\n      swap1\n      sstore\n      pop\n        /* \"Basic calculator2.sol\":430:527  function subtract(uint256 x, uint256 y) public validInput(x, y) {... */\n      pop\n      pop\n      pop\n      pop\n      jump\t// out\n        /* \"Basic calculator2.sol\":330:422  function add(uint256 x, uint256 y) public validInput(x, y) {... */\n    tag_17:\n        /* \"Basic calculator2.sol\":383:384  x */\n      dup2\n        /* \"Basic calculator2.sol\":386:387  y */\n      dup2\n        /* \"Basic calculator2.sol\":245:246  0 */\n      0x00\n        /* \"Basic calculator2.sol\":240:241  x */\n      dup3\n        /* \"Basic calculator2.sol\":240:246  x >= 0 */\n      lt\n      iszero\n        /* \"Basic calculator2.sol\":240:256  x >= 0 && y >= 0 */\n      dup1\n      iszero\n      tag_41\n      jumpi\n      pop\n        /* \"Basic calculator2.sol\":255:256  0 */\n      0x00\n        /* \"Basic calculator2.sol\":250:251  y */\n      dup2\n        /* \"Basic calculator2.sol\":250:256  y >= 0 */\n      lt\n      iszero\n        /* \"Basic calculator2.sol\":240:256  x >= 0 && y >= 0 */\n    tag_41:\n        /* \"Basic calculator2.sol\":232:302  require(x >= 0 && y >= 0, \"Inputs must be equal or greater than zero\") */\n      tag_42\n      jumpi\n      mload(0x40)\n      0x08c379a000000000000000000000000000000000000000000000000000000000\n      dup2\n      mstore\n      0x04\n      add\n      tag_43\n      swap1\n      tag_29\n      jump\t// in\n    tag_43:\n      mload(0x40)\n      dup1\n      swap2\n      sub\n      swap1\n      revert\n    tag_42:\n        /* \"Basic calculator2.sol\":413:414  y */\n      dup3\n        /* \"Basic calculator2.sol\":409:410  x */\n      dup5\n        /* \"Basic calculator2.sol\":409:414  x + y */\n      tag_45\n      swap2\n      swap1\n      tag_46\n      jump\t// in\n    tag_45:\n        /* \"Basic calculator2.sol\":400:406  result */\n      0x00\n        /* \"Basic calculator2.sol\":400:414  result = x + y */\n      dup2\n      swap1\n      sstore\n      pop\n        /* \"Basic calculator2.sol\":330:422  function add(uint256 x, uint256 y) public validInput(x, y) {... */\n      pop\n      pop\n      pop\n      pop\n      jump\t// out\n        /* \"Basic calculator2.sol\":804:887  function getResult() public view returns (uint256) {... */\n    tag_19:\n        /* \"Basic calculator2.sol\":846:853  uint256 */\n      0x00\n        /* \"Basic calculator2.sol\":873:879  result */\n      dup1\n      sload\n        /* \"Basic calculator2.sol\":866:879  return result */\n      swap1\n      pop\n        /* \"Basic calculator2.sol\":804:887  function getResult() public view returns (uint256) {... */\n      swap1\n      jump\t// out\n        /* \"Basic calculator2.sol\":640:796  function divide(uint256 x, uint256 y) public validInput(x, y) {... */\n    tag_24:\n        /* \"Basic calculator2.sol\":696:697  x */\n      dup2\n        /* \"Basic calculator2.sol\":699:700  y */\n      dup2\n        /* \"Basic calculator2.sol\":245:246  0 */\n      0x00\n        /* \"Basic calculator2.sol\":240:241  x */\n      dup3\n        /* \"Basic calculator2.sol\":240:246  x >= 0 */\n      lt\n      iszero\n        /* \"Basic calculator2.sol\":240:256  x >= 0 && y >= 0 */\n      dup1\n      iszero\n      tag_49\n      jumpi\n      pop\n        /* \"Basic calculator2.sol\":255:256  0 */\n      0x00\n        /* \"Basic calculator2.sol\":250:251  y */\n      dup2\n        /* \"Basic calculator2.sol\":250:256  y >= 0 */\n      lt\n      iszero\n        /* \"Basic calculator2.sol\":240:256  x >= 0 && y >= 0 */\n    tag_49:\n        /* \"Basic calculator2.sol\":232:302  require(x >= 0 && y >= 0, \"Inputs must be equal or greater than zero\") */\n      tag_50\n      jumpi\n      mload(0x40)\n      0x08c379a000000000000000000000000000000000000000000000000000000000\n      dup2\n      mstore\n      0x04\n      add\n      tag_51\n      swap1\n      tag_29\n      jump\t// in\n    tag_51:\n      mload(0x40)\n      dup1\n      swap2\n      sub\n      swap1\n      revert\n    tag_50:\n        /* \"Basic calculator2.sol\":726:727  0 */\n      0x00\n        /* \"Basic calculator2.sol\":721:722  y */\n      dup4\n        /* \"Basic calculator2.sol\":721:727  y != 0 */\n      sub\n        /* \"Basic calculator2.sol\":713:763  require(y != 0, \"Division by zero is not allowed\") */\n      tag_53\n      jumpi\n      mload(0x40)\n      0x08c379a000000000000000000000000000000000000000000000000000000000\n      dup2\n      mstore\n      0x04\n      add\n      tag_54\n      swap1\n      tag_55\n      jump\t// in\n    tag_54:\n      mload(0x40)\n      dup1\n      swap2\n      sub\n      swap1\n      revert\n    tag_53:\n        /* \"Basic calculator2.sol\":787:788  y */\n      dup3\n        /* \"Basic calculator2.sol\":783:784  x */\n      dup5\n        /* \"Basic calculator2.sol\":783:788  x / y */\n      tag_56\n      swap2\n      swap1\n      tag_57\n      jump\t// in\n    tag_56:\n        /* \"Basic calculator2.sol\":774:780  result */\n      0x00\n        /* \"Basic calculator2.sol\":774:788  result = x / y */\n      dup2\n      swap1\n      sstore\n      pop\n        /* \"Basic calculator2.sol\":640:796  function divide(uint256 x, uint256 y) public validInput(x, y) {... */\n      pop\n      pop\n      pop\n      pop\n      jump\t// out\n        /* \"#utility.yul\":88:205   */\n    tag_59:\n        /* \"#utility.yul\":197:198   */\n      0x00\n        /* \"#utility.yul\":194:195   */\n      dup1\n        /* \"#utility.yul\":187:199   */\n      revert\n        /* \"#utility.yul\":334:411   */\n    tag_61:\n        /* \"#utility.yul\":371:378   */\n      0x00\n        /* \"#utility.yul\":400:405   */\n      dup2\n        /* \"#utility.yul\":389:405   */\n      swap1\n      pop\n        /* \"#utility.yul\":334:411   */\n      swap2\n      swap1\n      pop\n      jump\t// out\n        /* \"#utility.yul\":417:539   */\n    tag_62:\n        /* \"#utility.yul\":490:514   */\n      tag_78\n        /* \"#utility.yul\":508:513   */\n      dup2\n        /* \"#utility.yul\":490:514   */\n      tag_61\n      jump\t// in\n    tag_78:\n        /* \"#utility.yul\":483:488   */\n      dup2\n        /* \"#utility.yul\":480:515   */\n      eq\n        /* \"#utility.yul\":470:533   */\n      tag_79\n      jumpi\n        /* \"#utility.yul\":529:530   */\n      0x00\n        /* \"#utility.yul\":526:527   */\n      dup1\n        /* \"#utility.yul\":519:531   */\n      revert\n        /* \"#utility.yul\":470:533   */\n    tag_79:\n        /* \"#utility.yul\":417:539   */\n      pop\n      jump\t// out\n        /* \"#utility.yul\":545:684   */\n    tag_63:\n        /* \"#utility.yul\":591:596   */\n      0x00\n        /* \"#utility.yul\":629:635   */\n      dup2\n        /* \"#utility.yul\":616:636   */\n      calldataload\n        /* \"#utility.yul\":607:636   */\n      swap1\n      pop\n        /* \"#utility.yul\":645:678   */\n      tag_81\n        /* \"#utility.yul\":672:677   */\n      dup2\n        /* \"#utility.yul\":645:678   */\n      tag_62\n      jump\t// in\n    tag_81:\n        /* \"#utility.yul\":545:684   */\n      swap3\n      swap2\n      pop\n      pop\n      jump\t// out\n        /* \"#utility.yul\":690:1164   */\n    tag_10:\n        /* \"#utility.yul\":758:764   */\n      0x00\n        /* \"#utility.yul\":766:772   */\n      dup1\n        /* \"#utility.yul\":815:817   */\n      0x40\n        /* \"#utility.yul\":803:812   */\n      dup4\n        /* \"#utility.yul\":794:801   */\n      dup6\n        /* \"#utility.yul\":790:813   */\n      sub\n        /* \"#utility.yul\":786:818   */\n      slt\n        /* \"#utility.yul\":783:902   */\n      iszero\n      tag_83\n      jumpi\n        /* \"#utility.yul\":821:900   */\n      tag_84\n      tag_59\n      jump\t// in\n    tag_84:\n        /* \"#utility.yul\":783:902   */\n    tag_83:\n        /* \"#utility.yul\":941:942   */\n      0x00\n        /* \"#utility.yul\":966:1019   */\n      tag_85\n        /* \"#utility.yul\":1011:1018   */\n      dup6\n        /* \"#utility.yul\":1002:1008   */\n      dup3\n        /* \"#utility.yul\":991:1000   */\n      dup7\n        /* \"#utility.yul\":987:1009   */\n      add\n        /* \"#utility.yul\":966:1019   */\n      tag_63\n      jump\t// in\n    tag_85:\n        /* \"#utility.yul\":956:1019   */\n      swap3\n      pop\n        /* \"#utility.yul\":912:1029   */\n      pop\n        /* \"#utility.yul\":1068:1070   */\n      0x20\n        /* \"#utility.yul\":1094:1147   */\n      tag_86\n        /* \"#utility.yul\":1139:1146   */\n      dup6\n        /* \"#utility.yul\":1130:1136   */\n      dup3\n        /* \"#utility.yul\":1119:1128   */\n      dup7\n        /* \"#utility.yul\":1115:1137   */\n      add\n        /* \"#utility.yul\":1094:1147   */\n      tag_63\n      jump\t// in\n    tag_86:\n        /* \"#utility.yul\":1084:1147   */\n      swap2\n      pop\n        /* \"#utility.yul\":1039:1157   */\n      pop\n        /* \"#utility.yul\":690:1164   */\n      swap3\n      pop\n      swap3\n      swap1\n      pop\n      jump\t// out\n        /* \"#utility.yul\":1170:1288   */\n    tag_64:\n        /* \"#utility.yul\":1257:1281   */\n      tag_88\n        /* \"#utility.yul\":1275:1280   */\n      dup2\n        /* \"#utility.yul\":1257:1281   */\n      tag_61\n      jump\t// in\n    tag_88:\n        /* \"#utility.yul\":1252:1255   */\n      dup3\n        /* \"#utility.yul\":1245:1282   */\n      mstore\n        /* \"#utility.yul\":1170:1288   */\n      pop\n      pop\n      jump\t// out\n        /* \"#utility.yul\":1294:1516   */\n    tag_21:\n        /* \"#utility.yul\":1387:1391   */\n      0x00\n        /* \"#utility.yul\":1425:1427   */\n      0x20\n        /* \"#utility.yul\":1414:1423   */\n      dup3\n        /* \"#utility.yul\":1410:1428   */\n      add\n        /* \"#utility.yul\":1402:1428   */\n      swap1\n      pop\n        /* \"#utility.yul\":1438:1509   */\n      tag_90\n        /* \"#utility.yul\":1506:1507   */\n      0x00\n        /* \"#utility.yul\":1495:1504   */\n      dup4\n        /* \"#utility.yul\":1491:1508   */\n      add\n        /* \"#utility.yul\":1482:1488   */\n      dup5\n        /* \"#utility.yul\":1438:1509   */\n      tag_64\n      jump\t// in\n    tag_90:\n        /* \"#utility.yul\":1294:1516   */\n      swap3\n      swap2\n      pop\n      pop\n      jump\t// out\n        /* \"#utility.yul\":1522:1691   */\n    tag_65:\n        /* \"#utility.yul\":1606:1617   */\n      0x00\n        /* \"#utility.yul\":1640:1646   */\n      dup3\n        /* \"#utility.yul\":1635:1638   */\n      dup3\n        /* \"#utility.yul\":1628:1647   */\n      mstore\n        /* \"#utility.yul\":1680:1684   */\n      0x20\n        /* \"#utility.yul\":1675:1678   */\n      dup3\n        /* \"#utility.yul\":1671:1685   */\n      add\n        /* \"#utility.yul\":1656:1685   */\n      swap1\n      pop\n        /* \"#utility.yul\":1522:1691   */\n      swap3\n      swap2\n      pop\n      pop\n      jump\t// out\n        /* \"#utility.yul\":1697:1925   */\n    tag_66:\n        /* \"#utility.yul\":1837:1871   */\n      0x496e70757473206d75737420626520657175616c206f72206772656174657220\n        /* \"#utility.yul\":1833:1834   */\n      0x00\n        /* \"#utility.yul\":1825:1831   */\n      dup3\n        /* \"#utility.yul\":1821:1835   */\n      add\n        /* \"#utility.yul\":1814:1872   */\n      mstore\n        /* \"#utility.yul\":1906:1917   */\n      0x7468616e207a65726f0000000000000000000000000000000000000000000000\n        /* \"#utility.yul\":1901:1903   */\n      0x20\n        /* \"#utility.yul\":1893:1899   */\n      dup3\n        /* \"#utility.yul\":1889:1904   */\n      add\n        /* \"#utility.yul\":1882:1918   */\n      mstore\n        /* \"#utility.yul\":1697:1925   */\n      pop\n      jump\t// out\n        /* \"#utility.yul\":1931:2297   */\n    tag_67:\n        /* \"#utility.yul\":2073:2076   */\n      0x00\n        /* \"#utility.yul\":2094:2161   */\n      tag_94\n        /* \"#utility.yul\":2158:2160   */\n      0x29\n        /* \"#utility.yul\":2153:2156   */\n      dup4\n        /* \"#utility.yul\":2094:2161   */\n      tag_65\n      jump\t// in\n    tag_94:\n        /* \"#utility.yul\":2087:2161   */\n      swap2\n      pop\n        /* \"#utility.yul\":2170:2263   */\n      tag_95\n        /* \"#utility.yul\":2259:2262   */\n      dup3\n        /* \"#utility.yul\":2170:2263   */\n      tag_66\n      jump\t// in\n    tag_95:\n        /* \"#utility.yul\":2288:2290   */\n      0x40\n        /* \"#utility.yul\":2283:2286   */\n      dup3\n        /* \"#utility.yul\":2279:2291   */\n      add\n        /* \"#utility.yul\":2272:2291   */\n      swap1\n      pop\n        /* \"#utility.yul\":1931:2297   */\n      swap2\n      swap1\n      pop\n      jump\t// out\n        /* \"#utility.yul\":2303:2722   */\n    tag_29:\n        /* \"#utility.yul\":2469:2473   */\n      0x00\n        /* \"#utility.yul\":2507:2509   */\n      0x20\n        /* \"#utility.yul\":2496:2505   */\n      dup3\n        /* \"#utility.yul\":2492:2510   */\n      add\n        /* \"#utility.yul\":2484:2510   */\n      swap1\n      pop\n        /* \"#utility.yul\":2556:2565   */\n      dup2\n        /* \"#utility.yul\":2550:2554   */\n      dup2\n        /* \"#utility.yul\":2546:2566   */\n      sub\n        /* \"#utility.yul\":2542:2543   */\n      0x00\n        /* \"#utility.yul\":2531:2540   */\n      dup4\n        /* \"#utility.yul\":2527:2544   */\n      add\n        /* \"#utility.yul\":2520:2567   */\n      mstore\n        /* \"#utility.yul\":2584:2715   */\n      tag_97\n        /* \"#utility.yul\":2710:2714   */\n      dup2\n        /* \"#utility.yul\":2584:2715   */\n      tag_67\n      jump\t// in\n    tag_97:\n        /* \"#utility.yul\":2576:2715   */\n      swap1\n      pop\n        /* \"#utility.yul\":2303:2722   */\n      swap2\n      swap1\n      pop\n      jump\t// out\n        /* \"#utility.yul\":2728:2908   */\n    tag_68:\n        /* \"#utility.yul\":2776:2853   */\n      0x4e487b7100000000000000000000000000000000000000000000000000000000\n        /* \"#utility.yul\":2773:2774   */\n      0x00\n        /* \"#utility.yul\":2766:2854   */\n      mstore\n        /* \"#utility.yul\":2873:2877   */\n      0x11\n        /* \"#utility.yul\":2870:2871   */\n      0x04\n        /* \"#utility.yul\":2863:2878   */\n      mstore\n        /* \"#utility.yul\":2897:2901   */\n      0x24\n        /* \"#utility.yul\":2894:2895   */\n      0x00\n        /* \"#utility.yul\":2887:2902   */\n      revert\n        /* \"#utility.yul\":2914:3324   */\n    tag_32:\n        /* \"#utility.yul\":2954:2961   */\n      0x00\n        /* \"#utility.yul\":2977:2997   */\n      tag_100\n        /* \"#utility.yul\":2995:2996   */\n      dup3\n        /* \"#utility.yul\":2977:2997   */\n      tag_61\n      jump\t// in\n    tag_100:\n        /* \"#utility.yul\":2972:2997   */\n      swap2\n      pop\n        /* \"#utility.yul\":3011:3031   */\n      tag_101\n        /* \"#utility.yul\":3029:3030   */\n      dup4\n        /* \"#utility.yul\":3011:3031   */\n      tag_61\n      jump\t// in\n    tag_101:\n        /* \"#utility.yul\":3006:3031   */\n      swap3\n      pop\n        /* \"#utility.yul\":3066:3067   */\n      dup3\n        /* \"#utility.yul\":3063:3064   */\n      dup3\n        /* \"#utility.yul\":3059:3068   */\n      mul\n        /* \"#utility.yul\":3088:3118   */\n      tag_102\n        /* \"#utility.yul\":3106:3117   */\n      dup2\n        /* \"#utility.yul\":3088:3118   */\n      tag_61\n      jump\t// in\n    tag_102:\n        /* \"#utility.yul\":3077:3118   */\n      swap2\n      pop\n        /* \"#utility.yul\":3267:3268   */\n      dup3\n        /* \"#utility.yul\":3258:3265   */\n      dup3\n        /* \"#utility.yul\":3254:3269   */\n      div\n        /* \"#utility.yul\":3251:3252   */\n      dup5\n        /* \"#utility.yul\":3248:3270   */\n      eq\n        /* \"#utility.yul\":3228:3229   */\n      dup4\n        /* \"#utility.yul\":3221:3230   */\n      iszero\n        /* \"#utility.yul\":3201:3284   */\n      or\n        /* \"#utility.yul\":3178:3317   */\n      tag_103\n      jumpi\n        /* \"#utility.yul\":3297:3315   */\n      tag_104\n      tag_68\n      jump\t// in\n    tag_104:\n        /* \"#utility.yul\":3178:3317   */\n    tag_103:\n        /* \"#utility.yul\":2962:3324   */\n      pop\n        /* \"#utility.yul\":2914:3324   */\n      swap3\n      swap2\n      pop\n      pop\n      jump\t// out\n        /* \"#utility.yul\":3330:3524   */\n    tag_39:\n        /* \"#utility.yul\":3370:3374   */\n      0x00\n        /* \"#utility.yul\":3390:3410   */\n      tag_106\n        /* \"#utility.yul\":3408:3409   */\n      dup3\n        /* \"#utility.yul\":3390:3410   */\n      tag_61\n      jump\t// in\n    tag_106:\n        /* \"#utility.yul\":3385:3410   */\n      swap2\n      pop\n        /* \"#utility.yul\":3424:3444   */\n      tag_107\n        /* \"#utility.yul\":3442:3443   */\n      dup4\n        /* \"#utility.yul\":3424:3444   */\n      tag_61\n      jump\t// in\n    tag_107:\n        /* \"#utility.yul\":3419:3444   */\n      swap3\n      pop\n        /* \"#utility.yul\":3468:3469   */\n      dup3\n        /* \"#utility.yul\":3465:3466   */\n      dup3\n        /* \"#utility.yul\":3461:3470   */\n      sub\n        /* \"#utility.yul\":3453:3470   */\n      swap1\n      pop\n        /* \"#utility.yul\":3492:3493   */\n      dup2\n        /* \"#utility.yul\":3486:3490   */\n      dup2\n        /* \"#utility.yul\":3483:3494   */\n      gt\n        /* \"#utility.yul\":3480:3517   */\n      iszero\n      tag_108\n      jumpi\n        /* \"#utility.yul\":3497:3515   */\n      tag_109\n      tag_68\n      jump\t// in\n    tag_109:\n        /* \"#utility.yul\":3480:3517   */\n    tag_108:\n        /* \"#utility.yul\":3330:3524   */\n      swap3\n      swap2\n      pop\n      pop\n      jump\t// out\n        /* \"#utility.yul\":3530:3721   */\n    tag_46:\n        /* \"#utility.yul\":3570:3573   */\n      0x00\n        /* \"#utility.yul\":3589:3609   */\n      tag_111\n        /* \"#utility.yul\":3607:3608   */\n      dup3\n        /* \"#utility.yul\":3589:3609   */\n      tag_61\n      jump\t// in\n    tag_111:\n        /* \"#utility.yul\":3584:3609   */\n      swap2\n      pop\n        /* \"#utility.yul\":3623:3643   */\n      tag_112\n        /* \"#utility.yul\":3641:3642   */\n      dup4\n        /* \"#utility.yul\":3623:3643   */\n      tag_61\n      jump\t// in\n    tag_112:\n        /* \"#utility.yul\":3618:3643   */\n      swap3\n      pop\n        /* \"#utility.yul\":3666:3667   */\n      dup3\n        /* \"#utility.yul\":3663:3664   */\n      dup3\n        /* \"#utility.yul\":3659:3668   */\n      add\n        /* \"#utility.yul\":3652:3668   */\n      swap1\n      pop\n        /* \"#utility.yul\":3687:3690   */\n      dup1\n        /* \"#utility.yul\":3684:3685   */\n      dup3\n        /* \"#utility.yul\":3681:3691   */\n      gt\n        /* \"#utility.yul\":3678:3714   */\n      iszero\n      tag_113\n      jumpi\n        /* \"#utility.yul\":3694:3712   */\n      tag_114\n      tag_68\n      jump\t// in\n    tag_114:\n        /* \"#utility.yul\":3678:3714   */\n    tag_113:\n        /* \"#utility.yul\":3530:3721   */\n      swap3\n      swap2\n      pop\n      pop\n      jump\t// out\n        /* \"#utility.yul\":3727:3908   */\n    tag_69:\n        /* \"#utility.yul\":3867:3900   */\n      0x4469766973696f6e206279207a65726f206973206e6f7420616c6c6f77656400\n        /* \"#utility.yul\":3863:3864   */\n      0x00\n        /* \"#utility.yul\":3855:3861   */\n      dup3\n        /* \"#utility.yul\":3851:3865   */\n      add\n        /* \"#utility.yul\":3844:3901   */\n      mstore\n        /* \"#utility.yul\":3727:3908   */\n      pop\n      jump\t// out\n        /* \"#utility.yul\":3914:4280   */\n    tag_70:\n        /* \"#utility.yul\":4056:4059   */\n      0x00\n        /* \"#utility.yul\":4077:4144   */\n      tag_117\n        /* \"#utility.yul\":4141:4143   */\n      0x1f\n        /* \"#utility.yul\":4136:4139   */\n      dup4\n        /* \"#utility.yul\":4077:4144   */\n      tag_65\n      jump\t// in\n    tag_117:\n        /* \"#utility.yul\":4070:4144   */\n      swap2\n      pop\n        /* \"#utility.yul\":4153:4246   */\n      tag_118\n        /* \"#utility.yul\":4242:4245   */\n      dup3\n        /* \"#utility.yul\":4153:4246   */\n      tag_69\n      jump\t// in\n    tag_118:\n        /* \"#utility.yul\":4271:4273   */\n      0x20\n        /* \"#utility.yul\":4266:4269   */\n      dup3\n        /* \"#utility.yul\":4262:4274   */\n      add\n        /* \"#utility.yul\":4255:4274   */\n      swap1\n      pop\n        /* \"#utility.yul\":3914:4280   */\n      swap2\n      swap1\n      pop\n      jump\t// out\n        /* \"#utility.yul\":4286:4705   */\n    tag_55:\n        /* \"#utility.yul\":4452:4456   */\n      0x00\n        /* \"#utility.yul\":4490:4492   */\n      0x20\n        /* \"#utility.yul\":4479:4488   */\n      dup3\n        /* \"#utility.yul\":4475:4493   */\n      add\n        /* \"#utility.yul\":4467:4493   */\n      swap1\n      pop\n        /* \"#utility.yul\":4539:4548   */\n      dup2\n        /* \"#utility.yul\":4533:4537   */\n      dup2\n        /* \"#utility.yul\":4529:4549   */\n      sub\n        /* \"#utility.yul\":4525:4526   */\n      0x00\n        /* \"#utility.yul\":4514:4523   */\n      dup4\n        /* \"#utility.yul\":4510:4527   */\n      add\n        /* \"#utility.yul\":4503:4550   */\n      mstore\n        /* \"#utility.yul\":4567:4698   */\n      tag_120\n        /* \"#utility.yul\":4693:4697   */\n      dup2\n        /* \"#utility.yul\":4567:4698   */\n      tag_70\n      jump\t// in\n    tag_120:\n        /* \"#utility.yul\":4559:4698   */\n      swap1\n      pop\n        /* \"#utility.yul\":4286:4705   */\n      swap2\n      swap1\n      pop\n      jump\t// out\n        /* \"#utility.yul\":4711:4891   */\n    tag_71:\n        /* \"#utility.yul\":4759:4836   */\n      0x4e487b7100000000000000000000000000000000000000000000000000000000\n        /* \"#utility.yul\":4756:4757   */\n      0x00\n        /* \"#utility.yul\":4749:4837   */\n      mstore\n        /* \"#utility.yul\":4856:4860   */\n      0x12\n        /* \"#utility.yul\":4853:4854   */\n      0x04\n        /* \"#utility.yul\":4846:4861   */\n      mstore\n        /* \"#utility.yul\":4880:4884   */\n      0x24\n        /* \"#utility.yul\":4877:4878   */\n      0x00\n        /* \"#utility.yul\":4870:4885   */\n      revert\n        /* \"#utility.yul\":4897:5082   */\n    tag_57:\n        /* \"#utility.yul\":4937:4938   */\n      0x00\n        /* \"#utility.yul\":4954:4974   */\n      tag_123\n        /* \"#utility.yul\":4972:4973   */\n      dup3\n        /* \"#utility.yul\":4954:4974   */\n      tag_61\n      jump\t// in\n    tag_123:\n        /* \"#utility.yul\":4949:4974   */\n      swap2\n      pop\n        /* \"#utility.yul\":4988:5008   */\n      tag_124\n        /* \"#utility.yul\":5006:5007   */\n      dup4\n        /* \"#utility.yul\":4988:5008   */\n      tag_61\n      jump\t// in\n    tag_124:\n        /* \"#utility.yul\":4983:5008   */\n      swap3\n      pop\n        /* \"#utility.yul\":5027:5028   */\n      dup3\n        /* \"#utility.yul\":5017:5052   */\n      tag_125\n      jumpi\n        /* \"#utility.yul\":5032:5050   */\n      tag_126\n      tag_71\n      jump\t// in\n    tag_126:\n        /* \"#utility.yul\":5017:5052   */\n    tag_125:\n        /* \"#utility.yul\":5074:5075   */\n      dup3\n        /* \"#utility.yul\":5071:5072   */\n      dup3\n        /* \"#utility.yul\":5067:5076   */\n      div\n        /* \"#utility.yul\":5062:5076   */\n      swap1\n      pop\n        /* \"#utility.yul\":4897:5082   */\n      swap3\n      swap2\n      pop\n      pop\n      jump\t// out\n\n    auxdata: 0xa2646970667358221220574df74384c60d398593748bde3ed1c2426f30adb0b4a243842251c8b64c5a3664736f6c63430008150033\n}\n",
				"bytecode": {
					"linkReferences": {},
					"object": "608060405234801561000f575f80fd5b505f80819055506105db806100235f395ff3fe608060405234801561000f575f80fd5b5060043610610055575f3560e01c8063165c4a16146100595780633ef5e44514610075578063771602f714610091578063de292789146100ad578063f88e9fbf146100cb575b5f80fd5b610073600480360381019061006e9190610308565b6100e7565b005b61008f600480360381019061008a9190610308565b61014f565b005b6100ab60048036038101906100a69190610308565b6101b7565b005b6100b561021f565b6040516100c29190610355565b60405180910390f35b6100e560048036038101906100e09190610308565b610227565b005b81815f82101580156100f957505f8110155b610138576040517f08c379a000000000000000000000000000000000000000000000000000000000815260040161012f906103ee565b60405180910390fd5b82846101449190610439565b5f8190555050505050565b81815f821015801561016157505f8110155b6101a0576040517f08c379a0000000000000000000000000000000000000000000000000000000008152600401610197906103ee565b60405180910390fd5b82846101ac919061047a565b5f8190555050505050565b81815f82101580156101c957505f8110155b610208576040517f08c379a00000000000000000000000000000000000000000000000000000000081526004016101ff906103ee565b60405180910390fd5b828461021491906104ad565b5f8190555050505050565b5f8054905090565b81815f821015801561023957505f8110155b610278576040517f08c379a000000000000000000000000000000000000000000000000000000000815260040161026f906103ee565b60405180910390fd5b5f83036102ba576040517f08c379a00000000000000000000000000000000000000000000000000000000081526004016102b19061052a565b60405180910390fd5b82846102c69190610575565b5f8190555050505050565b5f80fd5b5f819050919050565b6102e7816102d5565b81146102f1575f80fd5b50565b5f81359050610302816102de565b92915050565b5f806040838503121561031e5761031d6102d1565b5b5f61032b858286016102f4565b925050602061033c858286016102f4565b9150509250929050565b61034f816102d5565b82525050565b5f6020820190506103685f830184610346565b92915050565b5f82825260208201905092915050565b7f496e70757473206d75737420626520657175616c206f722067726561746572205f8201527f7468616e207a65726f0000000000000000000000000000000000000000000000602082015250565b5f6103d860298361036e565b91506103e38261037e565b604082019050919050565b5f6020820190508181035f830152610405816103cc565b9050919050565b7f4e487b71000000000000000000000000000000000000000000000000000000005f52601160045260245ffd5b5f610443826102d5565b915061044e836102d5565b925082820261045c816102d5565b915082820484148315176104735761047261040c565b5b5092915050565b5f610484826102d5565b915061048f836102d5565b92508282039050818111156104a7576104a661040c565b5b92915050565b5f6104b7826102d5565b91506104c2836102d5565b92508282019050808211156104da576104d961040c565b5b92915050565b7f4469766973696f6e206279207a65726f206973206e6f7420616c6c6f776564005f82015250565b5f610514601f8361036e565b915061051f826104e0565b602082019050919050565b5f6020820190508181035f83015261054181610508565b9050919050565b7f4e487b71000000000000000000000000000000000000000000000000000000005f52601260045260245ffd5b5f61057f826102d5565b915061058a836102d5565b92508261059a57610599610548565b5b82820490509291505056fea2646970667358221220574df74384c60d398593748bde3ed1c2426f30adb0b4a243842251c8b64c5a3664736f6c63430008150033",
					"opcodes": "PUSH1 0x80 PUSH1 0x40 MSTORE CALLVALUE DUP1 ISZERO PUSH2 0xF JUMPI PUSH0 DUP1 REVERT JUMPDEST POP PUSH0 DUP1 DUP2 SWAP1 SSTORE POP PUSH2 0x5DB DUP1 PUSH2 0x23 PUSH0 CODECOPY PUSH0 RETURN INVALID PUSH1 0x80 PUSH1 0x40 MSTORE CALLVALUE DUP1 ISZERO PUSH2 0xF JUMPI PUSH0 DUP1 REVERT JUMPDEST POP PUSH1 0x4 CALLDATASIZE LT PUSH2 0x55 JUMPI PUSH0 CALLDATALOAD PUSH1 0xE0 SHR DUP1 PUSH4 0x165C4A16 EQ PUSH2 0x59 JUMPI DUP1 PUSH4 0x3EF5E445 EQ PUSH2 0x75 JUMPI DUP1 PUSH4 0x771602F7 EQ PUSH2 0x91 JUMPI DUP1 PUSH4 0xDE292789 EQ PUSH2 0xAD JUMPI DUP1 PUSH4 0xF88E9FBF EQ PUSH2 0xCB JUMPI JUMPDEST PUSH0 DUP1 REVERT JUMPDEST PUSH2 0x73 PUSH1 0x4 DUP1 CALLDATASIZE SUB DUP2 ADD SWAP1 PUSH2 0x6E SWAP2 SWAP1 PUSH2 0x308 JUMP JUMPDEST PUSH2 0xE7 JUMP JUMPDEST STOP JUMPDEST PUSH2 0x8F PUSH1 0x4 DUP1 CALLDATASIZE SUB DUP2 ADD SWAP1 PUSH2 0x8A SWAP2 SWAP1 PUSH2 0x308 JUMP JUMPDEST PUSH2 0x14F JUMP JUMPDEST STOP JUMPDEST PUSH2 0xAB PUSH1 0x4 DUP1 CALLDATASIZE SUB DUP2 ADD SWAP1 PUSH2 0xA6 SWAP2 SWAP1 PUSH2 0x308 JUMP JUMPDEST PUSH2 0x1B7 JUMP JUMPDEST STOP JUMPDEST PUSH2 0xB5 PUSH2 0x21F JUMP JUMPDEST PUSH1 0x40 MLOAD PUSH2 0xC2 SWAP2 SWAP1 PUSH2 0x355 JUMP JUMPDEST PUSH1 0x40 MLOAD DUP1 SWAP2 SUB SWAP1 RETURN JUMPDEST PUSH2 0xE5 PUSH1 0x4 DUP1 CALLDATASIZE SUB DUP2 ADD SWAP1 PUSH2 0xE0 SWAP2 SWAP1 PUSH2 0x308 JUMP JUMPDEST PUSH2 0x227 JUMP JUMPDEST STOP JUMPDEST DUP2 DUP2 PUSH0 DUP3 LT ISZERO DUP1 ISZERO PUSH2 0xF9 JUMPI POP PUSH0 DUP2 LT ISZERO JUMPDEST PUSH2 0x138 JUMPI PUSH1 0x40 MLOAD PUSH32 0x8C379A000000000000000000000000000000000000000000000000000000000 DUP2 MSTORE PUSH1 0x4 ADD PUSH2 0x12F SWAP1 PUSH2 0x3EE JUMP JUMPDEST PUSH1 0x40 MLOAD DUP1 SWAP2 SUB SWAP1 REVERT JUMPDEST DUP3 DUP5 PUSH2 0x144 SWAP2 SWAP1 PUSH2 0x439 JUMP JUMPDEST PUSH0 DUP2 SWAP1 SSTORE POP POP POP POP POP JUMP JUMPDEST DUP2 DUP2 PUSH0 DUP3 LT ISZERO DUP1 ISZERO PUSH2 0x161 JUMPI POP PUSH0 DUP2 LT ISZERO JUMPDEST PUSH2 0x1A0 JUMPI PUSH1 0x40 MLOAD PUSH32 0x8C379A000000000000000000000000000000000000000000000000000000000 DUP2 MSTORE PUSH1 0x4 ADD PUSH2 0x197 SWAP1 PUSH2 0x3EE JUMP JUMPDEST PUSH1 0x40 MLOAD DUP1 SWAP2 SUB SWAP1 REVERT JUMPDEST DUP3 DUP5 PUSH2 0x1AC SWAP2 SWAP1 PUSH2 0x47A JUMP JUMPDEST PUSH0 DUP2 SWAP1 SSTORE POP POP POP POP POP JUMP JUMPDEST DUP2 DUP2 PUSH0 DUP3 LT ISZERO DUP1 ISZERO PUSH2 0x1C9 JUMPI POP PUSH0 DUP2 LT ISZERO JUMPDEST PUSH2 0x208 JUMPI PUSH1 0x40 MLOAD PUSH32 0x8C379A000000000000000000000000000000000000000000000000000000000 DUP2 MSTORE PUSH1 0x4 ADD PUSH2 0x1FF SWAP1 PUSH2 0x3EE JUMP JUMPDEST PUSH1 0x40 MLOAD DUP1 SWAP2 SUB SWAP1 REVERT JUMPDEST DUP3 DUP5 PUSH2 0x214 SWAP2 SWAP1 PUSH2 0x4AD JUMP JUMPDEST PUSH0 DUP2 SWAP1 SSTORE POP POP POP POP POP JUMP JUMPDEST PUSH0 DUP1 SLOAD SWAP1 POP SWAP1 JUMP JUMPDEST DUP2 DUP2 PUSH0 DUP3 LT ISZERO DUP1 ISZERO PUSH2 0x239 JUMPI POP PUSH0 DUP2 LT ISZERO JUMPDEST PUSH2 0x278 JUMPI PUSH1 0x40 MLOAD PUSH32 0x8C379A000000000000000000000000000000000000000000000000000000000 DUP2 MSTORE PUSH1 0x4 ADD PUSH2 0x26F SWAP1 PUSH2 0x3EE JUMP JUMPDEST PUSH1 0x40 MLOAD DUP1 SWAP2 SUB SWAP1 REVERT JUMPDEST PUSH0 DUP4 SUB PUSH2 0x2BA JUMPI PUSH1 0x40 MLOAD PUSH32 0x8C379A000000000000000000000000000000000000000000000000000000000 DUP2 MSTORE PUSH1 0x4 ADD PUSH2 0x2B1 SWAP1 PUSH2 0x52A JUMP JUMPDEST PUSH1 0x40 MLOAD DUP1 SWAP2 SUB SWAP1 REVERT JUMPDEST DUP3 DUP5 PUSH2 0x2C6 SWAP2 SWAP1 PUSH2 0x575 JUMP JUMPDEST PUSH0 DUP2 SWAP1 SSTORE POP POP POP POP POP JUMP JUMPDEST PUSH0 DUP1 REVERT JUMPDEST PUSH0 DUP2 SWAP1 POP SWAP2 SWAP1 POP JUMP JUMPDEST PUSH2 0x2E7 DUP2 PUSH2 0x2D5 JUMP JUMPDEST DUP2 EQ PUSH2 0x2F1 JUMPI PUSH0 DUP1 REVERT JUMPDEST POP JUMP JUMPDEST PUSH0 DUP2 CALLDATALOAD SWAP1 POP PUSH2 0x302 DUP2 PUSH2 0x2DE JUMP JUMPDEST SWAP3 SWAP2 POP POP JUMP JUMPDEST PUSH0 DUP1 PUSH1 0x40 DUP4 DUP6 SUB SLT ISZERO PUSH2 0x31E JUMPI PUSH2 0x31D PUSH2 0x2D1 JUMP JUMPDEST JUMPDEST PUSH0 PUSH2 0x32B DUP6 DUP3 DUP7 ADD PUSH2 0x2F4 JUMP JUMPDEST SWAP3 POP POP PUSH1 0x20 PUSH2 0x33C DUP6 DUP3 DUP7 ADD PUSH2 0x2F4 JUMP JUMPDEST SWAP2 POP POP SWAP3 POP SWAP3 SWAP1 POP JUMP JUMPDEST PUSH2 0x34F DUP2 PUSH2 0x2D5 JUMP JUMPDEST DUP3 MSTORE POP POP JUMP JUMPDEST PUSH0 PUSH1 0x20 DUP3 ADD SWAP1 POP PUSH2 0x368 PUSH0 DUP4 ADD DUP5 PUSH2 0x346 JUMP JUMPDEST SWAP3 SWAP2 POP POP JUMP JUMPDEST PUSH0 DUP3 DUP3 MSTORE PUSH1 0x20 DUP3 ADD SWAP1 POP SWAP3 SWAP2 POP POP JUMP JUMPDEST PUSH32 0x496E70757473206D75737420626520657175616C206F72206772656174657220 PUSH0 DUP3 ADD MSTORE PUSH32 0x7468616E207A65726F0000000000000000000000000000000000000000000000 PUSH1 0x20 DUP3 ADD MSTORE POP JUMP JUMPDEST PUSH0 PUSH2 0x3D8 PUSH1 0x29 DUP4 PUSH2 0x36E JUMP JUMPDEST SWAP2 POP PUSH2 0x3E3 DUP3 PUSH2 0x37E JUMP JUMPDEST PUSH1 0x40 DUP3 ADD SWAP1 POP SWAP2 SWAP1 POP JUMP JUMPDEST PUSH0 PUSH1 0x20 DUP3 ADD SWAP1 POP DUP2 DUP2 SUB PUSH0 DUP4 ADD MSTORE PUSH2 0x405 DUP2 PUSH2 0x3CC JUMP JUMPDEST SWAP1 POP SWAP2 SWAP1 POP JUMP JUMPDEST PUSH32 0x4E487B7100000000000000000000000000000000000000000000000000000000 PUSH0 MSTORE PUSH1 0x11 PUSH1 0x4 MSTORE PUSH1 0x24 PUSH0 REVERT JUMPDEST PUSH0 PUSH2 0x443 DUP3 PUSH2 0x2D5 JUMP JUMPDEST SWAP2 POP PUSH2 0x44E DUP4 PUSH2 0x2D5 JUMP JUMPDEST SWAP3 POP DUP3 DUP3 MUL PUSH2 0x45C DUP2 PUSH2 0x2D5 JUMP JUMPDEST SWAP2 POP DUP3 DUP3 DIV DUP5 EQ DUP4 ISZERO OR PUSH2 0x473 JUMPI PUSH2 0x472 PUSH2 0x40C JUMP JUMPDEST JUMPDEST POP SWAP3 SWAP2 POP POP JUMP JUMPDEST PUSH0 PUSH2 0x484 DUP3 PUSH2 0x2D5 JUMP JUMPDEST SWAP2 POP PUSH2 0x48F DUP4 PUSH2 0x2D5 JUMP JUMPDEST SWAP3 POP DUP3 DUP3 SUB SWAP1 POP DUP2 DUP2 GT ISZERO PUSH2 0x4A7 JUMPI PUSH2 0x4A6 PUSH2 0x40C JUMP JUMPDEST JUMPDEST SWAP3 SWAP2 POP POP JUMP JUMPDEST PUSH0 PUSH2 0x4B7 DUP3 PUSH2 0x2D5 JUMP JUMPDEST SWAP2 POP PUSH2 0x4C2 DUP4 PUSH2 0x2D5 JUMP JUMPDEST SWAP3 POP DUP3 DUP3 ADD SWAP1 POP DUP1 DUP3 GT ISZERO PUSH2 0x4DA JUMPI PUSH2 0x4D9 PUSH2 0x40C JUMP JUMPDEST JUMPDEST SWAP3 SWAP2 POP POP JUMP JUMPDEST PUSH32 0x4469766973696F6E206279207A65726F206973206E6F7420616C6C6F77656400 PUSH0 DUP3 ADD MSTORE POP JUMP JUMPDEST PUSH0 PUSH2 0x514 PUSH1 0x1F DUP4 PUSH2 0x36E JUMP JUMPDEST SWAP2 POP PUSH2 0x51F DUP3 PUSH2 0x4E0 JUMP JUMPDEST PUSH1 0x20 DUP3 ADD SWAP1 POP SWAP2 SWAP1 POP JUMP JUMPDEST PUSH0 PUSH1 0x20 DUP3 ADD SWAP1 POP DUP2 DUP2 SUB PUSH0 DUP4 ADD MSTORE PUSH2 0x541 DUP2 PUSH2 0x508 JUMP JUMPDEST SWAP1 POP SWAP2 SWAP1 POP JUMP JUMPDEST PUSH32 0x4E487B7100000000000000000000000000000000000000000000000000000000 PUSH0 MSTORE PUSH1 0x12 PUSH1 0x4 MSTORE PUSH1 0x24 PUSH0 REVERT JUMPDEST PUSH0 PUSH2 0x57F DUP3 PUSH2 0x2D5 JUMP JUMPDEST SWAP2 POP PUSH2 0x58A DUP4 PUSH2 0x2D5 JUMP JUMPDEST SWAP3 POP DUP3 PUSH2 0x59A JUMPI PUSH2 0x599 PUSH2 0x548 JUMP JUMPDEST JUMPDEST DUP3 DUP3 DIV SWAP1 POP SWAP3 SWAP2 POP POP JUMP INVALID LOG2 PUSH5 0x6970667358 0x22 SLT KECCAK256 JUMPI 0x4D 0xF7 NUMBER DUP5 0xC6 0xD CODECOPY DUP6 SWAP4 PUSH21 0x8BDE3ED1C2426F30ADB0B4A243842251C8B64C5A36 PUSH5 0x736F6C6343 STOP ADDMOD ISZERO STOP CALLER "
				},
				"gasEstimates": {
					"creation": {
						"codeDepositCost": "299800",
						"executionCost": "5348",
						"totalCost": "305148"
					},
					"external": {
						"add(uint256,uint256)": "infinite",
						"divide(uint256,uint256)": "infinite",
						"getResult()": "2476",
						"multiply(uint256,uint256)": "infinite",
						"subtract(uint256,uint256)": "infinite"
					}
				},
				"methodIdentifiers": {
					"add(uint256,uint256)": "771602f7",
					"divide(uint256,uint256)": "f88e9fbf",
					"getResult()": "de292789",
					"multiply(uint256,uint256)": "165c4a16",
					"subtract(uint256,uint256)": "3ef5e445"
				}
			},
			"storageLayout": {
				"storage": [
					{
						"astId": 3,
						"contract": "Basic calculator2.sol:BasicCalculator",
						"label": "result",
						"offset": 0,
						"slot": "0",
						"type": "t_uint256"
					}
				],
				"types": {
					"t_uint256": {
						"encoding": "inplace",
						"label": "uint256",
						"numberOfBytes": "32"
					}
				}
			},
			"userdoc": {
				"kind": "user",
				"methods": {},
				"version": 1
			}
		}
	}
}