{
	"Sap SmartContractProj.sol": {
		"Election": {
			"abi": [
				{
					"inputs": [],
					"stateMutability": "nonpayable",
					"type": "constructor"
				},
				{
					"anonymous": false,
					"inputs": [
						{
							"indexed": true,
							"internalType": "address",
							"name": "_sender",
							"type": "address"
						},
						{
							"indexed": false,
							"internalType": "uint256",
							"name": "_amount",
							"type": "uint256"
						}
					],
					"name": "DonationReceived",
					"type": "event"
				},
				{
					"inputs": [
						{
							"internalType": "string",
							"name": "",
							"type": "string"
						}
					],
					"name": "candidates",
					"outputs": [
						{
							"internalType": "uint256",
							"name": "",
							"type": "uint256"
						}
					],
					"stateMutability": "view",
					"type": "function"
				},
				{
					"inputs": [],
					"name": "donate",
					"outputs": [],
					"stateMutability": "payable",
					"type": "function"
				},
				{
					"inputs": [
						{
							"internalType": "string",
							"name": "_name",
							"type": "string"
						}
					],
					"name": "getCandidateVoteCount",
					"outputs": [
						{
							"components": [
								{
									"internalType": "string",
									"name": "name",
									"type": "string"
								},
								{
									"internalType": "uint256",
									"name": "voteCount",
									"type": "uint256"
								}
							],
							"internalType": "struct Election.Candidate",
							"name": "",
							"type": "tuple"
						}
					],
					"stateMutability": "view",
					"type": "function"
				},
				{
					"inputs": [
						{
							"internalType": "string",
							"name": "_name",
							"type": "string"
						}
					],
					"name": "vote",
					"outputs": [],
					"stateMutability": "nonpayable",
					"type": "function"
				}
			],
			"devdoc": {
				"kind": "dev",
				"methods": {},
				"version": 1
			},
			"evm": {
				"assembly": "    /* \"Sap SmartContractProj.sol\":66:913  contract Election {... */\n  mstore(0x40, 0x80)\n    /* \"Sap SmartContractProj.sol\":221:309  constructor() {... */\n  callvalue\n  dup1\n  iszero\n  tag_1\n  jumpi\n  0x00\n  dup1\n  revert\ntag_1:\n  pop\n    /* \"Sap SmartContractProj.sol\":267:268  0 */\n  0x00\n    /* \"Sap SmartContractProj.sol\":246:256  candidates */\n  dup1\n    /* \"Sap SmartContractProj.sol\":246:264  candidates[\"John\"] */\n  mload(0x40)\n  tag_4\n  swap1\n  tag_5\n  jump\t// in\ntag_4:\n  swap1\n  dup2\n  mstore\n  0x20\n  add\n  mload(0x40)\n  dup1\n  swap2\n  sub\n  swap1\n  keccak256\n    /* \"Sap SmartContractProj.sol\":246:268  candidates[\"John\"] = 0 */\n  dup2\n  swap1\n  sstore\n  pop\n    /* \"Sap SmartContractProj.sol\":300:301  0 */\n  0x00\n    /* \"Sap SmartContractProj.sol\":279:289  candidates */\n  dup1\n    /* \"Sap SmartContractProj.sol\":279:297  candidates[\"Paul\"] */\n  mload(0x40)\n  tag_6\n  swap1\n  tag_7\n  jump\t// in\ntag_6:\n  swap1\n  dup2\n  mstore\n  0x20\n  add\n  mload(0x40)\n  dup1\n  swap2\n  sub\n  swap1\n  keccak256\n    /* \"Sap SmartContractProj.sol\":279:301  candidates[\"Paul\"] = 0 */\n  dup2\n  swap1\n  sstore\n  pop\n    /* \"Sap SmartContractProj.sol\":66:913  contract Election {... */\n  jump(tag_8)\n    /* \"#utility.yul\":7:155   */\ntag_9:\n    /* \"#utility.yul\":109:120   */\n  0x00\n    /* \"#utility.yul\":146:149   */\n  dup2\n    /* \"#utility.yul\":131:149   */\n  swap1\n  pop\n    /* \"#utility.yul\":7:155   */\n  swap3\n  swap2\n  pop\n  pop\n  jump\t// out\n    /* \"#utility.yul\":161:315   */\ntag_10:\n    /* \"#utility.yul\":301:307   */\n  0x4a6f686e00000000000000000000000000000000000000000000000000000000\n    /* \"#utility.yul\":297:298   */\n  0x00\n    /* \"#utility.yul\":289:295   */\n  dup3\n    /* \"#utility.yul\":285:299   */\n  add\n    /* \"#utility.yul\":278:308   */\n  mstore\n    /* \"#utility.yul\":161:315   */\n  pop\n  jump\t// out\n    /* \"#utility.yul\":321:721   */\ntag_11:\n    /* \"#utility.yul\":481:484   */\n  0x00\n    /* \"#utility.yul\":502:586   */\n  tag_18\n    /* \"#utility.yul\":584:585   */\n  0x04\n    /* \"#utility.yul\":579:582   */\n  dup4\n    /* \"#utility.yul\":502:586   */\n  tag_9\n  jump\t// in\ntag_18:\n    /* \"#utility.yul\":495:586   */\n  swap2\n  pop\n    /* \"#utility.yul\":595:688   */\n  tag_19\n    /* \"#utility.yul\":684:687   */\n  dup3\n    /* \"#utility.yul\":595:688   */\n  tag_10\n  jump\t// in\ntag_19:\n    /* \"#utility.yul\":713:714   */\n  0x04\n    /* \"#utility.yul\":708:711   */\n  dup3\n    /* \"#utility.yul\":704:715   */\n  add\n    /* \"#utility.yul\":697:715   */\n  swap1\n  pop\n    /* \"#utility.yul\":321:721   */\n  swap2\n  swap1\n  pop\n  jump\t// out\n    /* \"#utility.yul\":727:1108   */\ntag_5:\n    /* \"#utility.yul\":912:915   */\n  0x00\n    /* \"#utility.yul\":934:1082   */\n  tag_21\n    /* \"#utility.yul\":1078:1081   */\n  dup3\n    /* \"#utility.yul\":934:1082   */\n  tag_11\n  jump\t// in\ntag_21:\n    /* \"#utility.yul\":927:1082   */\n  swap2\n  pop\n    /* \"#utility.yul\":1099:1102   */\n  dup2\n    /* \"#utility.yul\":1092:1102   */\n  swap1\n  pop\n    /* \"#utility.yul\":727:1108   */\n  swap2\n  swap1\n  pop\n  jump\t// out\n    /* \"#utility.yul\":1114:1268   */\ntag_12:\n    /* \"#utility.yul\":1254:1260   */\n  0x5061756c00000000000000000000000000000000000000000000000000000000\n    /* \"#utility.yul\":1250:1251   */\n  0x00\n    /* \"#utility.yul\":1242:1248   */\n  dup3\n    /* \"#utility.yul\":1238:1252   */\n  add\n    /* \"#utility.yul\":1231:1261   */\n  mstore\n    /* \"#utility.yul\":1114:1268   */\n  pop\n  jump\t// out\n    /* \"#utility.yul\":1274:1674   */\ntag_13:\n    /* \"#utility.yul\":1434:1437   */\n  0x00\n    /* \"#utility.yul\":1455:1539   */\n  tag_24\n    /* \"#utility.yul\":1537:1538   */\n  0x04\n    /* \"#utility.yul\":1532:1535   */\n  dup4\n    /* \"#utility.yul\":1455:1539   */\n  tag_9\n  jump\t// in\ntag_24:\n    /* \"#utility.yul\":1448:1539   */\n  swap2\n  pop\n    /* \"#utility.yul\":1548:1641   */\n  tag_25\n    /* \"#utility.yul\":1637:1640   */\n  dup3\n    /* \"#utility.yul\":1548:1641   */\n  tag_12\n  jump\t// in\ntag_25:\n    /* \"#utility.yul\":1666:1667   */\n  0x04\n    /* \"#utility.yul\":1661:1664   */\n  dup3\n    /* \"#utility.yul\":1657:1668   */\n  add\n    /* \"#utility.yul\":1650:1668   */\n  swap1\n  pop\n    /* \"#utility.yul\":1274:1674   */\n  swap2\n  swap1\n  pop\n  jump\t// out\n    /* \"#utility.yul\":1680:2061   */\ntag_7:\n    /* \"#utility.yul\":1865:1868   */\n  0x00\n    /* \"#utility.yul\":1887:2035   */\n  tag_27\n    /* \"#utility.yul\":2031:2034   */\n  dup3\n    /* \"#utility.yul\":1887:2035   */\n  tag_13\n  jump\t// in\ntag_27:\n    /* \"#utility.yul\":1880:2035   */\n  swap2\n  pop\n    /* \"#utility.yul\":2052:2055   */\n  dup2\n    /* \"#utility.yul\":2045:2055   */\n  swap1\n  pop\n    /* \"#utility.yul\":1680:2061   */\n  swap2\n  swap1\n  pop\n  jump\t// out\n    /* \"Sap SmartContractProj.sol\":66:913  contract Election {... */\ntag_8:\n  dataSize(sub_0)\n  dup1\n  dataOffset(sub_0)\n  0x00\n  codecopy\n  0x00\n  return\nstop\n\nsub_0: assembly {\n        /* \"Sap SmartContractProj.sol\":66:913  contract Election {... */\n      mstore(0x40, 0x80)\n      jumpi(tag_1, lt(calldatasize, 0x04))\n      shr(0xe0, calldataload(0x00))\n      dup1\n      0xc5539cc2\n      eq\n      tag_2\n      jumpi\n      dup1\n      0xed88c68e\n      eq\n      tag_3\n      jumpi\n      dup1\n      0xf6ddc61e\n      eq\n      tag_4\n      jumpi\n      dup1\n      0xfc36e15b\n      eq\n      tag_5\n      jumpi\n    tag_1:\n      0x00\n      dup1\n      revert\n        /* \"Sap SmartContractProj.sol\":171:212  mapping(string => uint) public candidates */\n    tag_2:\n      callvalue\n      dup1\n      iszero\n      tag_6\n      jumpi\n      0x00\n      dup1\n      revert\n    tag_6:\n      pop\n      tag_7\n      0x04\n      dup1\n      calldatasize\n      sub\n      dup2\n      add\n      swap1\n      tag_8\n      swap2\n      swap1\n      tag_9\n      jump\t// in\n    tag_8:\n      tag_10\n      jump\t// in\n    tag_7:\n      mload(0x40)\n      tag_11\n      swap2\n      swap1\n      tag_12\n      jump\t// in\n    tag_11:\n      mload(0x40)\n      dup1\n      swap2\n      sub\n      swap1\n      return\n        /* \"Sap SmartContractProj.sol\":744:840  function donate() public payable {... */\n    tag_3:\n      tag_13\n      tag_14\n      jump\t// in\n    tag_13:\n      stop\n        /* \"Sap SmartContractProj.sol\":584:736  function getCandidateVoteCount(string memory _name) public view returns (Candidate memory) {... */\n    tag_4:\n      callvalue\n      dup1\n      iszero\n      tag_15\n      jumpi\n      0x00\n      dup1\n      revert\n    tag_15:\n      pop\n      tag_16\n      0x04\n      dup1\n      calldatasize\n      sub\n      dup2\n      add\n      swap1\n      tag_17\n      swap2\n      swap1\n      tag_9\n      jump\t// in\n    tag_17:\n      tag_18\n      jump\t// in\n    tag_16:\n      mload(0x40)\n      tag_19\n      swap2\n      swap1\n      tag_20\n      jump\t// in\n    tag_19:\n      mload(0x40)\n      dup1\n      swap2\n      sub\n      swap1\n      return\n        /* \"Sap SmartContractProj.sol\":467:576  function vote(string memory _name) public onlyValidCandidate(_name) {... */\n    tag_5:\n      callvalue\n      dup1\n      iszero\n      tag_21\n      jumpi\n      0x00\n      dup1\n      revert\n    tag_21:\n      pop\n      tag_22\n      0x04\n      dup1\n      calldatasize\n      sub\n      dup2\n      add\n      swap1\n      tag_23\n      swap2\n      swap1\n      tag_9\n      jump\t// in\n    tag_23:\n      tag_24\n      jump\t// in\n    tag_22:\n      stop\n        /* \"Sap SmartContractProj.sol\":171:212  mapping(string => uint) public candidates */\n    tag_10:\n      0x00\n      dup2\n      dup1\n      mload\n      0x20\n      dup2\n      add\n      dup3\n      add\n      dup1\n      mload\n      dup5\n      dup3\n      mstore\n      0x20\n      dup4\n      add\n      0x20\n      dup6\n      add\n      keccak256\n      dup2\n      dup4\n      mstore\n      dup1\n      swap6\n      pop\n      pop\n      pop\n      pop\n      pop\n      pop\n      0x00\n      swap2\n      pop\n      swap1\n      pop\n      sload\n      dup2\n      jump\t// out\n        /* \"Sap SmartContractProj.sol\":744:840  function donate() public payable {... */\n    tag_14:\n        /* \"Sap SmartContractProj.sol\":810:820  msg.sender */\n      caller\n        /* \"Sap SmartContractProj.sol\":793:832  DonationReceived(msg.sender, msg.value) */\n      0xffffffffffffffffffffffffffffffffffffffff\n      and\n      0x264f630d9efa0d07053a31163641d9fcc0adafc9d9e76f1c37c2ce3a558d2c52\n        /* \"Sap SmartContractProj.sol\":822:831  msg.value */\n      callvalue\n        /* \"Sap SmartContractProj.sol\":793:832  DonationReceived(msg.sender, msg.value) */\n      mload(0x40)\n      tag_26\n      swap2\n      swap1\n      tag_12\n      jump\t// in\n    tag_26:\n      mload(0x40)\n      dup1\n      swap2\n      sub\n      swap1\n      log2\n        /* \"Sap SmartContractProj.sol\":744:840  function donate() public payable {... */\n      jump\t// out\n        /* \"Sap SmartContractProj.sol\":584:736  function getCandidateVoteCount(string memory _name) public view returns (Candidate memory) {... */\n    tag_18:\n        /* \"Sap SmartContractProj.sol\":657:673  Candidate memory */\n      tag_27\n      tag_28\n      jump\t// in\n    tag_27:\n        /* \"Sap SmartContractProj.sol\":693:728  Candidate(_name, candidates[_name]) */\n      mload(0x40)\n      dup1\n      0x40\n      add\n      0x40\n      mstore\n      dup1\n        /* \"Sap SmartContractProj.sol\":703:708  _name */\n      dup4\n        /* \"Sap SmartContractProj.sol\":693:728  Candidate(_name, candidates[_name]) */\n      dup2\n      mstore\n      0x20\n      add\n        /* \"Sap SmartContractProj.sol\":710:720  candidates */\n      0x00\n        /* \"Sap SmartContractProj.sol\":721:726  _name */\n      dup5\n        /* \"Sap SmartContractProj.sol\":710:727  candidates[_name] */\n      mload(0x40)\n      tag_30\n      swap2\n      swap1\n      tag_31\n      jump\t// in\n    tag_30:\n      swap1\n      dup2\n      mstore\n      0x20\n      add\n      mload(0x40)\n      dup1\n      swap2\n      sub\n      swap1\n      keccak256\n      sload\n        /* \"Sap SmartContractProj.sol\":693:728  Candidate(_name, candidates[_name]) */\n      dup2\n      mstore\n      pop\n        /* \"Sap SmartContractProj.sol\":686:728  return Candidate(_name, candidates[_name]) */\n      swap1\n      pop\n        /* \"Sap SmartContractProj.sol\":584:736  function getCandidateVoteCount(string memory _name) public view returns (Candidate memory) {... */\n      swap2\n      swap1\n      pop\n      jump\t// out\n        /* \"Sap SmartContractProj.sol\":467:576  function vote(string memory _name) public onlyValidCandidate(_name) {... */\n    tag_24:\n        /* \"Sap SmartContractProj.sol\":528:533  _name */\n      dup1\n        /* \"Sap SmartContractProj.sol\":406:407  0 */\n      0x00\n        /* \"Sap SmartContractProj.sol\":385:395  candidates */\n      dup1\n        /* \"Sap SmartContractProj.sol\":396:401  _name */\n      dup3\n        /* \"Sap SmartContractProj.sol\":385:402  candidates[_name] */\n      mload(0x40)\n      tag_33\n      swap2\n      swap1\n      tag_31\n      jump\t// in\n    tag_33:\n      swap1\n      dup2\n      mstore\n      0x20\n      add\n      mload(0x40)\n      dup1\n      swap2\n      sub\n      swap1\n      keccak256\n      sload\n        /* \"Sap SmartContractProj.sol\":385:407  candidates[_name] != 0 */\n      sub\n        /* \"Sap SmartContractProj.sol\":377:439  require(candidates[_name] != 0, \"You are not allowed to vote\") */\n      tag_34\n      jumpi\n      mload(0x40)\n      0x08c379a000000000000000000000000000000000000000000000000000000000\n      dup2\n      mstore\n      0x04\n      add\n      tag_35\n      swap1\n      tag_36\n      jump\t// in\n    tag_35:\n      mload(0x40)\n      dup1\n      swap2\n      sub\n      swap1\n      revert\n    tag_34:\n        /* \"Sap SmartContractProj.sol\":567:568  1 */\n      0x01\n        /* \"Sap SmartContractProj.sol\":546:556  candidates */\n      0x00\n        /* \"Sap SmartContractProj.sol\":557:562  _name */\n      dup4\n        /* \"Sap SmartContractProj.sol\":546:563  candidates[_name] */\n      mload(0x40)\n      tag_38\n      swap2\n      swap1\n      tag_31\n      jump\t// in\n    tag_38:\n      swap1\n      dup2\n      mstore\n      0x20\n      add\n      mload(0x40)\n      dup1\n      swap2\n      sub\n      swap1\n      keccak256\n      0x00\n        /* \"Sap SmartContractProj.sol\":546:568  candidates[_name] += 1 */\n      dup3\n      dup3\n      sload\n      tag_39\n      swap2\n      swap1\n      tag_40\n      jump\t// in\n    tag_39:\n      swap3\n      pop\n      pop\n      dup2\n      swap1\n      sstore\n      pop\n        /* \"Sap SmartContractProj.sol\":467:576  function vote(string memory _name) public onlyValidCandidate(_name) {... */\n      pop\n      pop\n      jump\t// out\n    tag_28:\n      mload(0x40)\n      dup1\n      0x40\n      add\n      0x40\n      mstore\n      dup1\n      0x60\n      dup2\n      mstore\n      0x20\n      add\n      0x00\n      dup2\n      mstore\n      pop\n      swap1\n      jump\t// out\n        /* \"#utility.yul\":7:82   */\n    tag_41:\n        /* \"#utility.yul\":40:46   */\n      0x00\n        /* \"#utility.yul\":73:75   */\n      0x40\n        /* \"#utility.yul\":67:76   */\n      mload\n        /* \"#utility.yul\":57:76   */\n      swap1\n      pop\n        /* \"#utility.yul\":7:82   */\n      swap1\n      jump\t// out\n        /* \"#utility.yul\":88:205   */\n    tag_42:\n        /* \"#utility.yul\":197:198   */\n      0x00\n        /* \"#utility.yul\":194:195   */\n      dup1\n        /* \"#utility.yul\":187:199   */\n      revert\n        /* \"#utility.yul\":211:328   */\n    tag_43:\n        /* \"#utility.yul\":320:321   */\n      0x00\n        /* \"#utility.yul\":317:318   */\n      dup1\n        /* \"#utility.yul\":310:322   */\n      revert\n        /* \"#utility.yul\":334:451   */\n    tag_44:\n        /* \"#utility.yul\":443:444   */\n      0x00\n        /* \"#utility.yul\":440:441   */\n      dup1\n        /* \"#utility.yul\":433:445   */\n      revert\n        /* \"#utility.yul\":457:574   */\n    tag_45:\n        /* \"#utility.yul\":566:567   */\n      0x00\n        /* \"#utility.yul\":563:564   */\n      dup1\n        /* \"#utility.yul\":556:568   */\n      revert\n        /* \"#utility.yul\":580:682   */\n    tag_46:\n        /* \"#utility.yul\":621:627   */\n      0x00\n        /* \"#utility.yul\":672:674   */\n      0x1f\n        /* \"#utility.yul\":668:675   */\n      not\n        /* \"#utility.yul\":663:665   */\n      0x1f\n        /* \"#utility.yul\":656:661   */\n      dup4\n        /* \"#utility.yul\":652:666   */\n      add\n        /* \"#utility.yul\":648:676   */\n      and\n        /* \"#utility.yul\":638:676   */\n      swap1\n      pop\n        /* \"#utility.yul\":580:682   */\n      swap2\n      swap1\n      pop\n      jump\t// out\n        /* \"#utility.yul\":688:868   */\n    tag_47:\n        /* \"#utility.yul\":736:813   */\n      0x4e487b7100000000000000000000000000000000000000000000000000000000\n        /* \"#utility.yul\":733:734   */\n      0x00\n        /* \"#utility.yul\":726:814   */\n      mstore\n        /* \"#utility.yul\":833:837   */\n      0x41\n        /* \"#utility.yul\":830:831   */\n      0x04\n        /* \"#utility.yul\":823:838   */\n      mstore\n        /* \"#utility.yul\":857:861   */\n      0x24\n        /* \"#utility.yul\":854:855   */\n      0x00\n        /* \"#utility.yul\":847:862   */\n      revert\n        /* \"#utility.yul\":874:1155   */\n    tag_48:\n        /* \"#utility.yul\":957:984   */\n      tag_77\n        /* \"#utility.yul\":979:983   */\n      dup3\n        /* \"#utility.yul\":957:984   */\n      tag_46\n      jump\t// in\n    tag_77:\n        /* \"#utility.yul\":949:955   */\n      dup2\n        /* \"#utility.yul\":945:985   */\n      add\n        /* \"#utility.yul\":1087:1093   */\n      dup2\n        /* \"#utility.yul\":1075:1085   */\n      dup2\n        /* \"#utility.yul\":1072:1094   */\n      lt\n        /* \"#utility.yul\":1051:1069   */\n      0xffffffffffffffff\n        /* \"#utility.yul\":1039:1049   */\n      dup3\n        /* \"#utility.yul\":1036:1070   */\n      gt\n        /* \"#utility.yul\":1033:1095   */\n      or\n        /* \"#utility.yul\":1030:1118   */\n      iszero\n      tag_78\n      jumpi\n        /* \"#utility.yul\":1098:1116   */\n      tag_79\n      tag_47\n      jump\t// in\n    tag_79:\n        /* \"#utility.yul\":1030:1118   */\n    tag_78:\n        /* \"#utility.yul\":1138:1148   */\n      dup1\n        /* \"#utility.yul\":1134:1136   */\n      0x40\n        /* \"#utility.yul\":1127:1149   */\n      mstore\n        /* \"#utility.yul\":917:1155   */\n      pop\n        /* \"#utility.yul\":874:1155   */\n      pop\n      pop\n      jump\t// out\n        /* \"#utility.yul\":1161:1290   */\n    tag_49:\n        /* \"#utility.yul\":1195:1201   */\n      0x00\n        /* \"#utility.yul\":1222:1242   */\n      tag_81\n      tag_41\n      jump\t// in\n    tag_81:\n        /* \"#utility.yul\":1212:1242   */\n      swap1\n      pop\n        /* \"#utility.yul\":1251:1284   */\n      tag_82\n        /* \"#utility.yul\":1279:1283   */\n      dup3\n        /* \"#utility.yul\":1271:1277   */\n      dup3\n        /* \"#utility.yul\":1251:1284   */\n      tag_48\n      jump\t// in\n    tag_82:\n        /* \"#utility.yul\":1161:1290   */\n      swap2\n      swap1\n      pop\n      jump\t// out\n        /* \"#utility.yul\":1296:1604   */\n    tag_50:\n        /* \"#utility.yul\":1358:1362   */\n      0x00\n        /* \"#utility.yul\":1448:1466   */\n      0xffffffffffffffff\n        /* \"#utility.yul\":1440:1446   */\n      dup3\n        /* \"#utility.yul\":1437:1467   */\n      gt\n        /* \"#utility.yul\":1434:1490   */\n      iszero\n      tag_84\n      jumpi\n        /* \"#utility.yul\":1470:1488   */\n      tag_85\n      tag_47\n      jump\t// in\n    tag_85:\n        /* \"#utility.yul\":1434:1490   */\n    tag_84:\n        /* \"#utility.yul\":1508:1537   */\n      tag_86\n        /* \"#utility.yul\":1530:1536   */\n      dup3\n        /* \"#utility.yul\":1508:1537   */\n      tag_46\n      jump\t// in\n    tag_86:\n        /* \"#utility.yul\":1500:1537   */\n      swap1\n      pop\n        /* \"#utility.yul\":1592:1596   */\n      0x20\n        /* \"#utility.yul\":1586:1590   */\n      dup2\n        /* \"#utility.yul\":1582:1597   */\n      add\n        /* \"#utility.yul\":1574:1597   */\n      swap1\n      pop\n        /* \"#utility.yul\":1296:1604   */\n      swap2\n      swap1\n      pop\n      jump\t// out\n        /* \"#utility.yul\":1610:1756   */\n    tag_51:\n        /* \"#utility.yul\":1707:1713   */\n      dup3\n        /* \"#utility.yul\":1702:1705   */\n      dup2\n        /* \"#utility.yul\":1697:1700   */\n      dup4\n        /* \"#utility.yul\":1684:1714   */\n      calldatacopy\n        /* \"#utility.yul\":1748:1749   */\n      0x00\n        /* \"#utility.yul\":1739:1745   */\n      dup4\n        /* \"#utility.yul\":1734:1737   */\n      dup4\n        /* \"#utility.yul\":1730:1746   */\n      add\n        /* \"#utility.yul\":1723:1750   */\n      mstore\n        /* \"#utility.yul\":1610:1756   */\n      pop\n      pop\n      pop\n      jump\t// out\n        /* \"#utility.yul\":1762:2187   */\n    tag_52:\n        /* \"#utility.yul\":1840:1845   */\n      0x00\n        /* \"#utility.yul\":1865:1931   */\n      tag_89\n        /* \"#utility.yul\":1881:1930   */\n      tag_90\n        /* \"#utility.yul\":1923:1929   */\n      dup5\n        /* \"#utility.yul\":1881:1930   */\n      tag_50\n      jump\t// in\n    tag_90:\n        /* \"#utility.yul\":1865:1931   */\n      tag_49\n      jump\t// in\n    tag_89:\n        /* \"#utility.yul\":1856:1931   */\n      swap1\n      pop\n        /* \"#utility.yul\":1954:1960   */\n      dup3\n        /* \"#utility.yul\":1947:1952   */\n      dup2\n        /* \"#utility.yul\":1940:1961   */\n      mstore\n        /* \"#utility.yul\":1992:1996   */\n      0x20\n        /* \"#utility.yul\":1985:1990   */\n      dup2\n        /* \"#utility.yul\":1981:1997   */\n      add\n        /* \"#utility.yul\":2030:2033   */\n      dup5\n        /* \"#utility.yul\":2021:2027   */\n      dup5\n        /* \"#utility.yul\":2016:2019   */\n      dup5\n        /* \"#utility.yul\":2012:2028   */\n      add\n        /* \"#utility.yul\":2009:2034   */\n      gt\n        /* \"#utility.yul\":2006:2118   */\n      iszero\n      tag_91\n      jumpi\n        /* \"#utility.yul\":2037:2116   */\n      tag_92\n      tag_45\n      jump\t// in\n    tag_92:\n        /* \"#utility.yul\":2006:2118   */\n    tag_91:\n        /* \"#utility.yul\":2127:2181   */\n      tag_93\n        /* \"#utility.yul\":2174:2180   */\n      dup5\n        /* \"#utility.yul\":2169:2172   */\n      dup3\n        /* \"#utility.yul\":2164:2167   */\n      dup6\n        /* \"#utility.yul\":2127:2181   */\n      tag_51\n      jump\t// in\n    tag_93:\n        /* \"#utility.yul\":1846:2187   */\n      pop\n        /* \"#utility.yul\":1762:2187   */\n      swap4\n      swap3\n      pop\n      pop\n      pop\n      jump\t// out\n        /* \"#utility.yul\":2207:2547   */\n    tag_53:\n        /* \"#utility.yul\":2263:2268   */\n      0x00\n        /* \"#utility.yul\":2312:2315   */\n      dup3\n        /* \"#utility.yul\":2305:2309   */\n      0x1f\n        /* \"#utility.yul\":2297:2303   */\n      dup4\n        /* \"#utility.yul\":2293:2310   */\n      add\n        /* \"#utility.yul\":2289:2316   */\n      slt\n        /* \"#utility.yul\":2279:2401   */\n      tag_95\n      jumpi\n        /* \"#utility.yul\":2320:2399   */\n      tag_96\n      tag_44\n      jump\t// in\n    tag_96:\n        /* \"#utility.yul\":2279:2401   */\n    tag_95:\n        /* \"#utility.yul\":2437:2443   */\n      dup2\n        /* \"#utility.yul\":2424:2444   */\n      calldataload\n        /* \"#utility.yul\":2462:2541   */\n      tag_97\n        /* \"#utility.yul\":2537:2540   */\n      dup5\n        /* \"#utility.yul\":2529:2535   */\n      dup3\n        /* \"#utility.yul\":2522:2526   */\n      0x20\n        /* \"#utility.yul\":2514:2520   */\n      dup7\n        /* \"#utility.yul\":2510:2527   */\n      add\n        /* \"#utility.yul\":2462:2541   */\n      tag_52\n      jump\t// in\n    tag_97:\n        /* \"#utility.yul\":2453:2541   */\n      swap2\n      pop\n        /* \"#utility.yul\":2269:2547   */\n      pop\n        /* \"#utility.yul\":2207:2547   */\n      swap3\n      swap2\n      pop\n      pop\n      jump\t// out\n        /* \"#utility.yul\":2553:3062   */\n    tag_9:\n        /* \"#utility.yul\":2622:2628   */\n      0x00\n        /* \"#utility.yul\":2671:2673   */\n      0x20\n        /* \"#utility.yul\":2659:2668   */\n      dup3\n        /* \"#utility.yul\":2650:2657   */\n      dup5\n        /* \"#utility.yul\":2646:2669   */\n      sub\n        /* \"#utility.yul\":2642:2674   */\n      slt\n        /* \"#utility.yul\":2639:2758   */\n      iszero\n      tag_99\n      jumpi\n        /* \"#utility.yul\":2677:2756   */\n      tag_100\n      tag_42\n      jump\t// in\n    tag_100:\n        /* \"#utility.yul\":2639:2758   */\n    tag_99:\n        /* \"#utility.yul\":2825:2826   */\n      0x00\n        /* \"#utility.yul\":2814:2823   */\n      dup3\n        /* \"#utility.yul\":2810:2827   */\n      add\n        /* \"#utility.yul\":2797:2828   */\n      calldataload\n        /* \"#utility.yul\":2855:2873   */\n      0xffffffffffffffff\n        /* \"#utility.yul\":2847:2853   */\n      dup2\n        /* \"#utility.yul\":2844:2874   */\n      gt\n        /* \"#utility.yul\":2841:2958   */\n      iszero\n      tag_101\n      jumpi\n        /* \"#utility.yul\":2877:2956   */\n      tag_102\n      tag_43\n      jump\t// in\n    tag_102:\n        /* \"#utility.yul\":2841:2958   */\n    tag_101:\n        /* \"#utility.yul\":2982:3045   */\n      tag_103\n        /* \"#utility.yul\":3037:3044   */\n      dup5\n        /* \"#utility.yul\":3028:3034   */\n      dup3\n        /* \"#utility.yul\":3017:3026   */\n      dup6\n        /* \"#utility.yul\":3013:3035   */\n      add\n        /* \"#utility.yul\":2982:3045   */\n      tag_53\n      jump\t// in\n    tag_103:\n        /* \"#utility.yul\":2972:3045   */\n      swap2\n      pop\n        /* \"#utility.yul\":2768:3055   */\n      pop\n        /* \"#utility.yul\":2553:3062   */\n      swap3\n      swap2\n      pop\n      pop\n      jump\t// out\n        /* \"#utility.yul\":3068:3145   */\n    tag_54:\n        /* \"#utility.yul\":3105:3112   */\n      0x00\n        /* \"#utility.yul\":3134:3139   */\n      dup2\n        /* \"#utility.yul\":3123:3139   */\n      swap1\n      pop\n        /* \"#utility.yul\":3068:3145   */\n      swap2\n      swap1\n      pop\n      jump\t// out\n        /* \"#utility.yul\":3151:3269   */\n    tag_55:\n        /* \"#utility.yul\":3238:3262   */\n      tag_106\n        /* \"#utility.yul\":3256:3261   */\n      dup2\n        /* \"#utility.yul\":3238:3262   */\n      tag_54\n      jump\t// in\n    tag_106:\n        /* \"#utility.yul\":3233:3236   */\n      dup3\n        /* \"#utility.yul\":3226:3263   */\n      mstore\n        /* \"#utility.yul\":3151:3269   */\n      pop\n      pop\n      jump\t// out\n        /* \"#utility.yul\":3275:3497   */\n    tag_12:\n        /* \"#utility.yul\":3368:3372   */\n      0x00\n        /* \"#utility.yul\":3406:3408   */\n      0x20\n        /* \"#utility.yul\":3395:3404   */\n      dup3\n        /* \"#utility.yul\":3391:3409   */\n      add\n        /* \"#utility.yul\":3383:3409   */\n      swap1\n      pop\n        /* \"#utility.yul\":3419:3490   */\n      tag_108\n        /* \"#utility.yul\":3487:3488   */\n      0x00\n        /* \"#utility.yul\":3476:3485   */\n      dup4\n        /* \"#utility.yul\":3472:3489   */\n      add\n        /* \"#utility.yul\":3463:3469   */\n      dup5\n        /* \"#utility.yul\":3419:3490   */\n      tag_55\n      jump\t// in\n    tag_108:\n        /* \"#utility.yul\":3275:3497   */\n      swap3\n      swap2\n      pop\n      pop\n      jump\t// out\n        /* \"#utility.yul\":3503:3602   */\n    tag_56:\n        /* \"#utility.yul\":3555:3561   */\n      0x00\n        /* \"#utility.yul\":3589:3594   */\n      dup2\n        /* \"#utility.yul\":3583:3595   */\n      mload\n        /* \"#utility.yul\":3573:3595   */\n      swap1\n      pop\n        /* \"#utility.yul\":3503:3602   */\n      swap2\n      swap1\n      pop\n      jump\t// out\n        /* \"#utility.yul\":3608:3767   */\n    tag_57:\n        /* \"#utility.yul\":3682:3693   */\n      0x00\n        /* \"#utility.yul\":3716:3722   */\n      dup3\n        /* \"#utility.yul\":3711:3714   */\n      dup3\n        /* \"#utility.yul\":3704:3723   */\n      mstore\n        /* \"#utility.yul\":3756:3760   */\n      0x20\n        /* \"#utility.yul\":3751:3754   */\n      dup3\n        /* \"#utility.yul\":3747:3761   */\n      add\n        /* \"#utility.yul\":3732:3761   */\n      swap1\n      pop\n        /* \"#utility.yul\":3608:3767   */\n      swap3\n      swap2\n      pop\n      pop\n      jump\t// out\n        /* \"#utility.yul\":3773:4019   */\n    tag_58:\n        /* \"#utility.yul\":3854:3855   */\n      0x00\n        /* \"#utility.yul\":3864:3977   */\n    tag_112:\n        /* \"#utility.yul\":3878:3884   */\n      dup4\n        /* \"#utility.yul\":3875:3876   */\n      dup2\n        /* \"#utility.yul\":3872:3885   */\n      lt\n        /* \"#utility.yul\":3864:3977   */\n      iszero\n      tag_114\n      jumpi\n        /* \"#utility.yul\":3963:3964   */\n      dup1\n        /* \"#utility.yul\":3958:3961   */\n      dup3\n        /* \"#utility.yul\":3954:3965   */\n      add\n        /* \"#utility.yul\":3948:3966   */\n      mload\n        /* \"#utility.yul\":3944:3945   */\n      dup2\n        /* \"#utility.yul\":3939:3942   */\n      dup5\n        /* \"#utility.yul\":3935:3946   */\n      add\n        /* \"#utility.yul\":3928:3967   */\n      mstore\n        /* \"#utility.yul\":3900:3902   */\n      0x20\n        /* \"#utility.yul\":3897:3898   */\n      dup2\n        /* \"#utility.yul\":3893:3903   */\n      add\n        /* \"#utility.yul\":3888:3903   */\n      swap1\n      pop\n        /* \"#utility.yul\":3864:3977   */\n      jump(tag_112)\n    tag_114:\n        /* \"#utility.yul\":4011:4012   */\n      0x00\n        /* \"#utility.yul\":4002:4008   */\n      dup5\n        /* \"#utility.yul\":3997:4000   */\n      dup5\n        /* \"#utility.yul\":3993:4009   */\n      add\n        /* \"#utility.yul\":3986:4013   */\n      mstore\n        /* \"#utility.yul\":3835:4019   */\n      pop\n        /* \"#utility.yul\":3773:4019   */\n      pop\n      pop\n      pop\n      jump\t// out\n        /* \"#utility.yul\":4025:4382   */\n    tag_59:\n        /* \"#utility.yul\":4103:4106   */\n      0x00\n        /* \"#utility.yul\":4131:4170   */\n      tag_116\n        /* \"#utility.yul\":4164:4169   */\n      dup3\n        /* \"#utility.yul\":4131:4170   */\n      tag_56\n      jump\t// in\n    tag_116:\n        /* \"#utility.yul\":4186:4247   */\n      tag_117\n        /* \"#utility.yul\":4240:4246   */\n      dup2\n        /* \"#utility.yul\":4235:4238   */\n      dup6\n        /* \"#utility.yul\":4186:4247   */\n      tag_57\n      jump\t// in\n    tag_117:\n        /* \"#utility.yul\":4179:4247   */\n      swap4\n      pop\n        /* \"#utility.yul\":4256:4321   */\n      tag_118\n        /* \"#utility.yul\":4314:4320   */\n      dup2\n        /* \"#utility.yul\":4309:4312   */\n      dup6\n        /* \"#utility.yul\":4302:4306   */\n      0x20\n        /* \"#utility.yul\":4295:4300   */\n      dup7\n        /* \"#utility.yul\":4291:4307   */\n      add\n        /* \"#utility.yul\":4256:4321   */\n      tag_58\n      jump\t// in\n    tag_118:\n        /* \"#utility.yul\":4346:4375   */\n      tag_119\n        /* \"#utility.yul\":4368:4374   */\n      dup2\n        /* \"#utility.yul\":4346:4375   */\n      tag_46\n      jump\t// in\n    tag_119:\n        /* \"#utility.yul\":4341:4344   */\n      dup5\n        /* \"#utility.yul\":4337:4376   */\n      add\n        /* \"#utility.yul\":4330:4376   */\n      swap2\n      pop\n        /* \"#utility.yul\":4107:4382   */\n      pop\n        /* \"#utility.yul\":4025:4382   */\n      swap3\n      swap2\n      pop\n      pop\n      jump\t// out\n        /* \"#utility.yul\":4388:4496   */\n    tag_60:\n        /* \"#utility.yul\":4465:4489   */\n      tag_121\n        /* \"#utility.yul\":4483:4488   */\n      dup2\n        /* \"#utility.yul\":4465:4489   */\n      tag_54\n      jump\t// in\n    tag_121:\n        /* \"#utility.yul\":4460:4463   */\n      dup3\n        /* \"#utility.yul\":4453:4490   */\n      mstore\n        /* \"#utility.yul\":4388:4496   */\n      pop\n      pop\n      jump\t// out\n        /* \"#utility.yul\":4564:5173   */\n    tag_61:\n        /* \"#utility.yul\":4681:4684   */\n      0x00\n        /* \"#utility.yul\":4717:4721   */\n      0x40\n        /* \"#utility.yul\":4712:4715   */\n      dup4\n        /* \"#utility.yul\":4708:4722   */\n      add\n        /* \"#utility.yul\":4804:4808   */\n      0x00\n        /* \"#utility.yul\":4797:4802   */\n      dup4\n        /* \"#utility.yul\":4793:4809   */\n      add\n        /* \"#utility.yul\":4787:4810   */\n      mload\n        /* \"#utility.yul\":4857:4860   */\n      dup5\n        /* \"#utility.yul\":4851:4855   */\n      dup3\n        /* \"#utility.yul\":4847:4861   */\n      sub\n        /* \"#utility.yul\":4840:4844   */\n      0x00\n        /* \"#utility.yul\":4835:4838   */\n      dup7\n        /* \"#utility.yul\":4831:4845   */\n      add\n        /* \"#utility.yul\":4824:4862   */\n      mstore\n        /* \"#utility.yul\":4883:4956   */\n      tag_123\n        /* \"#utility.yul\":4951:4955   */\n      dup3\n        /* \"#utility.yul\":4937:4949   */\n      dup3\n        /* \"#utility.yul\":4883:4956   */\n      tag_59\n      jump\t// in\n    tag_123:\n        /* \"#utility.yul\":4875:4956   */\n      swap2\n      pop\n        /* \"#utility.yul\":4732:4967   */\n      pop\n        /* \"#utility.yul\":5054:5058   */\n      0x20\n        /* \"#utility.yul\":5047:5052   */\n      dup4\n        /* \"#utility.yul\":5043:5059   */\n      add\n        /* \"#utility.yul\":5037:5060   */\n      mload\n        /* \"#utility.yul\":5073:5136   */\n      tag_124\n        /* \"#utility.yul\":5130:5134   */\n      0x20\n        /* \"#utility.yul\":5125:5128   */\n      dup7\n        /* \"#utility.yul\":5121:5135   */\n      add\n        /* \"#utility.yul\":5107:5119   */\n      dup3\n        /* \"#utility.yul\":5073:5136   */\n      tag_60\n      jump\t// in\n    tag_124:\n        /* \"#utility.yul\":4977:5146   */\n      pop\n        /* \"#utility.yul\":5163:5167   */\n      dup1\n        /* \"#utility.yul\":5156:5167   */\n      swap2\n      pop\n        /* \"#utility.yul\":4686:5173   */\n      pop\n        /* \"#utility.yul\":4564:5173   */\n      swap3\n      swap2\n      pop\n      pop\n      jump\t// out\n        /* \"#utility.yul\":5179:5548   */\n    tag_20:\n        /* \"#utility.yul\":5320:5324   */\n      0x00\n        /* \"#utility.yul\":5358:5360   */\n      0x20\n        /* \"#utility.yul\":5347:5356   */\n      dup3\n        /* \"#utility.yul\":5343:5361   */\n      add\n        /* \"#utility.yul\":5335:5361   */\n      swap1\n      pop\n        /* \"#utility.yul\":5407:5416   */\n      dup2\n        /* \"#utility.yul\":5401:5405   */\n      dup2\n        /* \"#utility.yul\":5397:5417   */\n      sub\n        /* \"#utility.yul\":5393:5394   */\n      0x00\n        /* \"#utility.yul\":5382:5391   */\n      dup4\n        /* \"#utility.yul\":5378:5395   */\n      add\n        /* \"#utility.yul\":5371:5418   */\n      mstore\n        /* \"#utility.yul\":5435:5541   */\n      tag_126\n        /* \"#utility.yul\":5536:5540   */\n      dup2\n        /* \"#utility.yul\":5527:5533   */\n      dup5\n        /* \"#utility.yul\":5435:5541   */\n      tag_61\n      jump\t// in\n    tag_126:\n        /* \"#utility.yul\":5427:5541   */\n      swap1\n      pop\n        /* \"#utility.yul\":5179:5548   */\n      swap3\n      swap2\n      pop\n      pop\n      jump\t// out\n        /* \"#utility.yul\":5554:5702   */\n    tag_62:\n        /* \"#utility.yul\":5656:5667   */\n      0x00\n        /* \"#utility.yul\":5693:5696   */\n      dup2\n        /* \"#utility.yul\":5678:5696   */\n      swap1\n      pop\n        /* \"#utility.yul\":5554:5702   */\n      swap3\n      swap2\n      pop\n      pop\n      jump\t// out\n        /* \"#utility.yul\":5708:6098   */\n    tag_63:\n        /* \"#utility.yul\":5814:5817   */\n      0x00\n        /* \"#utility.yul\":5842:5881   */\n      tag_129\n        /* \"#utility.yul\":5875:5880   */\n      dup3\n        /* \"#utility.yul\":5842:5881   */\n      tag_56\n      jump\t// in\n    tag_129:\n        /* \"#utility.yul\":5897:5986   */\n      tag_130\n        /* \"#utility.yul\":5979:5985   */\n      dup2\n        /* \"#utility.yul\":5974:5977   */\n      dup6\n        /* \"#utility.yul\":5897:5986   */\n      tag_62\n      jump\t// in\n    tag_130:\n        /* \"#utility.yul\":5890:5986   */\n      swap4\n      pop\n        /* \"#utility.yul\":5995:6060   */\n      tag_131\n        /* \"#utility.yul\":6053:6059   */\n      dup2\n        /* \"#utility.yul\":6048:6051   */\n      dup6\n        /* \"#utility.yul\":6041:6045   */\n      0x20\n        /* \"#utility.yul\":6034:6039   */\n      dup7\n        /* \"#utility.yul\":6030:6046   */\n      add\n        /* \"#utility.yul\":5995:6060   */\n      tag_58\n      jump\t// in\n    tag_131:\n        /* \"#utility.yul\":6085:6091   */\n      dup1\n        /* \"#utility.yul\":6080:6083   */\n      dup5\n        /* \"#utility.yul\":6076:6092   */\n      add\n        /* \"#utility.yul\":6069:6092   */\n      swap2\n      pop\n        /* \"#utility.yul\":5818:6098   */\n      pop\n        /* \"#utility.yul\":5708:6098   */\n      swap3\n      swap2\n      pop\n      pop\n      jump\t// out\n        /* \"#utility.yul\":6104:6379   */\n    tag_31:\n        /* \"#utility.yul\":6236:6239   */\n      0x00\n        /* \"#utility.yul\":6258:6353   */\n      tag_133\n        /* \"#utility.yul\":6349:6352   */\n      dup3\n        /* \"#utility.yul\":6340:6346   */\n      dup5\n        /* \"#utility.yul\":6258:6353   */\n      tag_63\n      jump\t// in\n    tag_133:\n        /* \"#utility.yul\":6251:6353   */\n      swap2\n      pop\n        /* \"#utility.yul\":6370:6373   */\n      dup2\n        /* \"#utility.yul\":6363:6373   */\n      swap1\n      pop\n        /* \"#utility.yul\":6104:6379   */\n      swap3\n      swap2\n      pop\n      pop\n      jump\t// out\n        /* \"#utility.yul\":6385:6554   */\n    tag_64:\n        /* \"#utility.yul\":6469:6480   */\n      0x00\n        /* \"#utility.yul\":6503:6509   */\n      dup3\n        /* \"#utility.yul\":6498:6501   */\n      dup3\n        /* \"#utility.yul\":6491:6510   */\n      mstore\n        /* \"#utility.yul\":6543:6547   */\n      0x20\n        /* \"#utility.yul\":6538:6541   */\n      dup3\n        /* \"#utility.yul\":6534:6548   */\n      add\n        /* \"#utility.yul\":6519:6548   */\n      swap1\n      pop\n        /* \"#utility.yul\":6385:6554   */\n      swap3\n      swap2\n      pop\n      pop\n      jump\t// out\n        /* \"#utility.yul\":6560:6737   */\n    tag_65:\n        /* \"#utility.yul\":6700:6729   */\n      0x596f7520617265206e6f7420616c6c6f77656420746f20766f74650000000000\n        /* \"#utility.yul\":6696:6697   */\n      0x00\n        /* \"#utility.yul\":6688:6694   */\n      dup3\n        /* \"#utility.yul\":6684:6698   */\n      add\n        /* \"#utility.yul\":6677:6730   */\n      mstore\n        /* \"#utility.yul\":6560:6737   */\n      pop\n      jump\t// out\n        /* \"#utility.yul\":6743:7109   */\n    tag_66:\n        /* \"#utility.yul\":6885:6888   */\n      0x00\n        /* \"#utility.yul\":6906:6973   */\n      tag_137\n        /* \"#utility.yul\":6970:6972   */\n      0x1b\n        /* \"#utility.yul\":6965:6968   */\n      dup4\n        /* \"#utility.yul\":6906:6973   */\n      tag_64\n      jump\t// in\n    tag_137:\n        /* \"#utility.yul\":6899:6973   */\n      swap2\n      pop\n        /* \"#utility.yul\":6982:7075   */\n      tag_138\n        /* \"#utility.yul\":7071:7074   */\n      dup3\n        /* \"#utility.yul\":6982:7075   */\n      tag_65\n      jump\t// in\n    tag_138:\n        /* \"#utility.yul\":7100:7102   */\n      0x20\n        /* \"#utility.yul\":7095:7098   */\n      dup3\n        /* \"#utility.yul\":7091:7103   */\n      add\n        /* \"#utility.yul\":7084:7103   */\n      swap1\n      pop\n        /* \"#utility.yul\":6743:7109   */\n      swap2\n      swap1\n      pop\n      jump\t// out\n        /* \"#utility.yul\":7115:7534   */\n    tag_36:\n        /* \"#utility.yul\":7281:7285   */\n      0x00\n        /* \"#utility.yul\":7319:7321   */\n      0x20\n        /* \"#utility.yul\":7308:7317   */\n      dup3\n        /* \"#utility.yul\":7304:7322   */\n      add\n        /* \"#utility.yul\":7296:7322   */\n      swap1\n      pop\n        /* \"#utility.yul\":7368:7377   */\n      dup2\n        /* \"#utility.yul\":7362:7366   */\n      dup2\n        /* \"#utility.yul\":7358:7378   */\n      sub\n        /* \"#utility.yul\":7354:7355   */\n      0x00\n        /* \"#utility.yul\":7343:7352   */\n      dup4\n        /* \"#utility.yul\":7339:7356   */\n      add\n        /* \"#utility.yul\":7332:7379   */\n      mstore\n        /* \"#utility.yul\":7396:7527   */\n      tag_140\n        /* \"#utility.yul\":7522:7526   */\n      dup2\n        /* \"#utility.yul\":7396:7527   */\n      tag_66\n      jump\t// in\n    tag_140:\n        /* \"#utility.yul\":7388:7527   */\n      swap1\n      pop\n        /* \"#utility.yul\":7115:7534   */\n      swap2\n      swap1\n      pop\n      jump\t// out\n        /* \"#utility.yul\":7540:7720   */\n    tag_67:\n        /* \"#utility.yul\":7588:7665   */\n      0x4e487b7100000000000000000000000000000000000000000000000000000000\n        /* \"#utility.yul\":7585:7586   */\n      0x00\n        /* \"#utility.yul\":7578:7666   */\n      mstore\n        /* \"#utility.yul\":7685:7689   */\n      0x11\n        /* \"#utility.yul\":7682:7683   */\n      0x04\n        /* \"#utility.yul\":7675:7690   */\n      mstore\n        /* \"#utility.yul\":7709:7713   */\n      0x24\n        /* \"#utility.yul\":7706:7707   */\n      0x00\n        /* \"#utility.yul\":7699:7714   */\n      revert\n        /* \"#utility.yul\":7726:7917   */\n    tag_40:\n        /* \"#utility.yul\":7766:7769   */\n      0x00\n        /* \"#utility.yul\":7785:7805   */\n      tag_143\n        /* \"#utility.yul\":7803:7804   */\n      dup3\n        /* \"#utility.yul\":7785:7805   */\n      tag_54\n      jump\t// in\n    tag_143:\n        /* \"#utility.yul\":7780:7805   */\n      swap2\n      pop\n        /* \"#utility.yul\":7819:7839   */\n      tag_144\n        /* \"#utility.yul\":7837:7838   */\n      dup4\n        /* \"#utility.yul\":7819:7839   */\n      tag_54\n      jump\t// in\n    tag_144:\n        /* \"#utility.yul\":7814:7839   */\n      swap3\n      pop\n        /* \"#utility.yul\":7862:7863   */\n      dup3\n        /* \"#utility.yul\":7859:7860   */\n      dup3\n        /* \"#utility.yul\":7855:7864   */\n      add\n        /* \"#utility.yul\":7848:7864   */\n      swap1\n      pop\n        /* \"#utility.yul\":7883:7886   */\n      dup1\n        /* \"#utility.yul\":7880:7881   */\n      dup3\n        /* \"#utility.yul\":7877:7887   */\n      gt\n        /* \"#utility.yul\":7874:7910   */\n      iszero\n      tag_145\n      jumpi\n        /* \"#utility.yul\":7890:7908   */\n      tag_146\n      tag_67\n      jump\t// in\n    tag_146:\n        /* \"#utility.yul\":7874:7910   */\n    tag_145:\n        /* \"#utility.yul\":7726:7917   */\n      swap3\n      swap2\n      pop\n      pop\n      jump\t// out\n\n    auxdata: 0xa2646970667358221220d594db48ebd875d0aacf5a0513de7c755c6c4fed0e75827d8e6c7ef5c994c64f64736f6c63430008150033\n}\n",
				"bytecode": {
					"linkReferences": {},
					"object": "608060405234801561000f575f80fd5b505f8060405161001e906100a9565b9081526020016040518091039020819055505f8060405161003e90610107565b90815260200160405180910390208190555061011b565b5f81905092915050565b7f4a6f686e000000000000000000000000000000000000000000000000000000005f82015250565b5f610093600483610055565b915061009e8261005f565b600482019050919050565b5f6100b382610087565b9150819050919050565b7f5061756c000000000000000000000000000000000000000000000000000000005f82015250565b5f6100f1600483610055565b91506100fc826100bd565b600482019050919050565b5f610111826100e5565b9150819050919050565b610660806101285f395ff3fe60806040526004361061003e575f3560e01c8063c5539cc214610042578063ed88c68e1461007e578063f6ddc61e14610088578063fc36e15b146100c4575b5f80fd5b34801561004d575f80fd5b50610068600480360381019061006391906103a7565b6100ec565b6040516100759190610406565b60405180910390f35b610086610118565b005b348015610093575f80fd5b506100ae60048036038101906100a991906103a7565b610168565b6040516100bb91906104e2565b60405180910390f35b3480156100cf575f80fd5b506100ea60048036038101906100e591906103a7565b6101a9565b005b5f818051602081018201805184825260208301602085012081835280955050505050505f915090505481565b3373ffffffffffffffffffffffffffffffffffffffff167f264f630d9efa0d07053a31163641d9fcc0adafc9d9e76f1c37c2ce3a558d2c523460405161015e9190610406565b60405180910390a2565b610170610241565b60405180604001604052808381526020015f84604051610190919061053c565b9081526020016040518091039020548152509050919050565b805f80826040516101ba919061053c565b90815260200160405180910390205403610209576040517f08c379a0000000000000000000000000000000000000000000000000000000008152600401610200906105ac565b60405180910390fd5b60015f8360405161021a919061053c565b90815260200160405180910390205f82825461023691906105f7565b925050819055505050565b6040518060400160405280606081526020015f81525090565b5f604051905090565b5f80fd5b5f80fd5b5f80fd5b5f80fd5b5f601f19601f8301169050919050565b7f4e487b71000000000000000000000000000000000000000000000000000000005f52604160045260245ffd5b6102b982610273565b810181811067ffffffffffffffff821117156102d8576102d7610283565b5b80604052505050565b5f6102ea61025a565b90506102f682826102b0565b919050565b5f67ffffffffffffffff82111561031557610314610283565b5b61031e82610273565b9050602081019050919050565b828183375f83830152505050565b5f61034b610346846102fb565b6102e1565b9050828152602081018484840111156103675761036661026f565b5b61037284828561032b565b509392505050565b5f82601f83011261038e5761038d61026b565b5b813561039e848260208601610339565b91505092915050565b5f602082840312156103bc576103bb610263565b5b5f82013567ffffffffffffffff8111156103d9576103d8610267565b5b6103e58482850161037a565b91505092915050565b5f819050919050565b610400816103ee565b82525050565b5f6020820190506104195f8301846103f7565b92915050565b5f81519050919050565b5f82825260208201905092915050565b5f5b8381101561045657808201518184015260208101905061043b565b5f8484015250505050565b5f61046b8261041f565b6104758185610429565b9350610485818560208601610439565b61048e81610273565b840191505092915050565b6104a2816103ee565b82525050565b5f604083015f8301518482035f8601526104c28282610461565b91505060208301516104d76020860182610499565b508091505092915050565b5f6020820190508181035f8301526104fa81846104a8565b905092915050565b5f81905092915050565b5f6105168261041f565b6105208185610502565b9350610530818560208601610439565b80840191505092915050565b5f610547828461050c565b915081905092915050565b5f82825260208201905092915050565b7f596f7520617265206e6f7420616c6c6f77656420746f20766f746500000000005f82015250565b5f610596601b83610552565b91506105a182610562565b602082019050919050565b5f6020820190508181035f8301526105c38161058a565b9050919050565b7f4e487b71000000000000000000000000000000000000000000000000000000005f52601160045260245ffd5b5f610601826103ee565b915061060c836103ee565b9250828201905080821115610624576106236105ca565b5b9291505056fea2646970667358221220d594db48ebd875d0aacf5a0513de7c755c6c4fed0e75827d8e6c7ef5c994c64f64736f6c63430008150033",
					"opcodes": "PUSH1 0x80 PUSH1 0x40 MSTORE CALLVALUE DUP1 ISZERO PUSH2 0xF JUMPI PUSH0 DUP1 REVERT JUMPDEST POP PUSH0 DUP1 PUSH1 0x40 MLOAD PUSH2 0x1E SWAP1 PUSH2 0xA9 JUMP JUMPDEST SWAP1 DUP2 MSTORE PUSH1 0x20 ADD PUSH1 0x40 MLOAD DUP1 SWAP2 SUB SWAP1 KECCAK256 DUP2 SWAP1 SSTORE POP PUSH0 DUP1 PUSH1 0x40 MLOAD PUSH2 0x3E SWAP1 PUSH2 0x107 JUMP JUMPDEST SWAP1 DUP2 MSTORE PUSH1 0x20 ADD PUSH1 0x40 MLOAD DUP1 SWAP2 SUB SWAP1 KECCAK256 DUP2 SWAP1 SSTORE POP PUSH2 0x11B JUMP JUMPDEST PUSH0 DUP2 SWAP1 POP SWAP3 SWAP2 POP POP JUMP JUMPDEST PUSH32 0x4A6F686E00000000000000000000000000000000000000000000000000000000 PUSH0 DUP3 ADD MSTORE POP JUMP JUMPDEST PUSH0 PUSH2 0x93 PUSH1 0x4 DUP4 PUSH2 0x55 JUMP JUMPDEST SWAP2 POP PUSH2 0x9E DUP3 PUSH2 0x5F JUMP JUMPDEST PUSH1 0x4 DUP3 ADD SWAP1 POP SWAP2 SWAP1 POP JUMP JUMPDEST PUSH0 PUSH2 0xB3 DUP3 PUSH2 0x87 JUMP JUMPDEST SWAP2 POP DUP2 SWAP1 POP SWAP2 SWAP1 POP JUMP JUMPDEST PUSH32 0x5061756C00000000000000000000000000000000000000000000000000000000 PUSH0 DUP3 ADD MSTORE POP JUMP JUMPDEST PUSH0 PUSH2 0xF1 PUSH1 0x4 DUP4 PUSH2 0x55 JUMP JUMPDEST SWAP2 POP PUSH2 0xFC DUP3 PUSH2 0xBD JUMP JUMPDEST PUSH1 0x4 DUP3 ADD SWAP1 POP SWAP2 SWAP1 POP JUMP JUMPDEST PUSH0 PUSH2 0x111 DUP3 PUSH2 0xE5 JUMP JUMPDEST SWAP2 POP DUP2 SWAP1 POP SWAP2 SWAP1 POP JUMP JUMPDEST PUSH2 0x660 DUP1 PUSH2 0x128 PUSH0 CODECOPY PUSH0 RETURN INVALID PUSH1 0x80 PUSH1 0x40 MSTORE PUSH1 0x4 CALLDATASIZE LT PUSH2 0x3E JUMPI PUSH0 CALLDATALOAD PUSH1 0xE0 SHR DUP1 PUSH4 0xC5539CC2 EQ PUSH2 0x42 JUMPI DUP1 PUSH4 0xED88C68E EQ PUSH2 0x7E JUMPI DUP1 PUSH4 0xF6DDC61E EQ PUSH2 0x88 JUMPI DUP1 PUSH4 0xFC36E15B EQ PUSH2 0xC4 JUMPI JUMPDEST PUSH0 DUP1 REVERT JUMPDEST CALLVALUE DUP1 ISZERO PUSH2 0x4D JUMPI PUSH0 DUP1 REVERT JUMPDEST POP PUSH2 0x68 PUSH1 0x4 DUP1 CALLDATASIZE SUB DUP2 ADD SWAP1 PUSH2 0x63 SWAP2 SWAP1 PUSH2 0x3A7 JUMP JUMPDEST PUSH2 0xEC JUMP JUMPDEST PUSH1 0x40 MLOAD PUSH2 0x75 SWAP2 SWAP1 PUSH2 0x406 JUMP JUMPDEST PUSH1 0x40 MLOAD DUP1 SWAP2 SUB SWAP1 RETURN JUMPDEST PUSH2 0x86 PUSH2 0x118 JUMP JUMPDEST STOP JUMPDEST CALLVALUE DUP1 ISZERO PUSH2 0x93 JUMPI PUSH0 DUP1 REVERT JUMPDEST POP PUSH2 0xAE PUSH1 0x4 DUP1 CALLDATASIZE SUB DUP2 ADD SWAP1 PUSH2 0xA9 SWAP2 SWAP1 PUSH2 0x3A7 JUMP JUMPDEST PUSH2 0x168 JUMP JUMPDEST PUSH1 0x40 MLOAD PUSH2 0xBB SWAP2 SWAP1 PUSH2 0x4E2 JUMP JUMPDEST PUSH1 0x40 MLOAD DUP1 SWAP2 SUB SWAP1 RETURN JUMPDEST CALLVALUE DUP1 ISZERO PUSH2 0xCF JUMPI PUSH0 DUP1 REVERT JUMPDEST POP PUSH2 0xEA PUSH1 0x4 DUP1 CALLDATASIZE SUB DUP2 ADD SWAP1 PUSH2 0xE5 SWAP2 SWAP1 PUSH2 0x3A7 JUMP JUMPDEST PUSH2 0x1A9 JUMP JUMPDEST STOP JUMPDEST PUSH0 DUP2 DUP1 MLOAD PUSH1 0x20 DUP2 ADD DUP3 ADD DUP1 MLOAD DUP5 DUP3 MSTORE PUSH1 0x20 DUP4 ADD PUSH1 0x20 DUP6 ADD KECCAK256 DUP2 DUP4 MSTORE DUP1 SWAP6 POP POP POP POP POP POP PUSH0 SWAP2 POP SWAP1 POP SLOAD DUP2 JUMP JUMPDEST CALLER PUSH20 0xFFFFFFFFFFFFFFFFFFFFFFFFFFFFFFFFFFFFFFFF AND PUSH32 0x264F630D9EFA0D07053A31163641D9FCC0ADAFC9D9E76F1C37C2CE3A558D2C52 CALLVALUE PUSH1 0x40 MLOAD PUSH2 0x15E SWAP2 SWAP1 PUSH2 0x406 JUMP JUMPDEST PUSH1 0x40 MLOAD DUP1 SWAP2 SUB SWAP1 LOG2 JUMP JUMPDEST PUSH2 0x170 PUSH2 0x241 JUMP JUMPDEST PUSH1 0x40 MLOAD DUP1 PUSH1 0x40 ADD PUSH1 0x40 MSTORE DUP1 DUP4 DUP2 MSTORE PUSH1 0x20 ADD PUSH0 DUP5 PUSH1 0x40 MLOAD PUSH2 0x190 SWAP2 SWAP1 PUSH2 0x53C JUMP JUMPDEST SWAP1 DUP2 MSTORE PUSH1 0x20 ADD PUSH1 0x40 MLOAD DUP1 SWAP2 SUB SWAP1 KECCAK256 SLOAD DUP2 MSTORE POP SWAP1 POP SWAP2 SWAP1 POP JUMP JUMPDEST DUP1 PUSH0 DUP1 DUP3 PUSH1 0x40 MLOAD PUSH2 0x1BA SWAP2 SWAP1 PUSH2 0x53C JUMP JUMPDEST SWAP1 DUP2 MSTORE PUSH1 0x20 ADD PUSH1 0x40 MLOAD DUP1 SWAP2 SUB SWAP1 KECCAK256 SLOAD SUB PUSH2 0x209 JUMPI PUSH1 0x40 MLOAD PUSH32 0x8C379A000000000000000000000000000000000000000000000000000000000 DUP2 MSTORE PUSH1 0x4 ADD PUSH2 0x200 SWAP1 PUSH2 0x5AC JUMP JUMPDEST PUSH1 0x40 MLOAD DUP1 SWAP2 SUB SWAP1 REVERT JUMPDEST PUSH1 0x1 PUSH0 DUP4 PUSH1 0x40 MLOAD PUSH2 0x21A SWAP2 SWAP1 PUSH2 0x53C JUMP JUMPDEST SWAP1 DUP2 MSTORE PUSH1 0x20 ADD PUSH1 0x40 MLOAD DUP1 SWAP2 SUB SWAP1 KECCAK256 PUSH0 DUP3 DUP3 SLOAD PUSH2 0x236 SWAP2 SWAP1 PUSH2 0x5F7 JUMP JUMPDEST SWAP3 POP POP DUP2 SWAP1 SSTORE POP POP POP JUMP JUMPDEST PUSH1 0x40 MLOAD DUP1 PUSH1 0x40 ADD PUSH1 0x40 MSTORE DUP1 PUSH1 0x60 DUP2 MSTORE PUSH1 0x20 ADD PUSH0 DUP2 MSTORE POP SWAP1 JUMP JUMPDEST PUSH0 PUSH1 0x40 MLOAD SWAP1 POP SWAP1 JUMP JUMPDEST PUSH0 DUP1 REVERT JUMPDEST PUSH0 DUP1 REVERT JUMPDEST PUSH0 DUP1 REVERT JUMPDEST PUSH0 DUP1 REVERT JUMPDEST PUSH0 PUSH1 0x1F NOT PUSH1 0x1F DUP4 ADD AND SWAP1 POP SWAP2 SWAP1 POP JUMP JUMPDEST PUSH32 0x4E487B7100000000000000000000000000000000000000000000000000000000 PUSH0 MSTORE PUSH1 0x41 PUSH1 0x4 MSTORE PUSH1 0x24 PUSH0 REVERT JUMPDEST PUSH2 0x2B9 DUP3 PUSH2 0x273 JUMP JUMPDEST DUP2 ADD DUP2 DUP2 LT PUSH8 0xFFFFFFFFFFFFFFFF DUP3 GT OR ISZERO PUSH2 0x2D8 JUMPI PUSH2 0x2D7 PUSH2 0x283 JUMP JUMPDEST JUMPDEST DUP1 PUSH1 0x40 MSTORE POP POP POP JUMP JUMPDEST PUSH0 PUSH2 0x2EA PUSH2 0x25A JUMP JUMPDEST SWAP1 POP PUSH2 0x2F6 DUP3 DUP3 PUSH2 0x2B0 JUMP JUMPDEST SWAP2 SWAP1 POP JUMP JUMPDEST PUSH0 PUSH8 0xFFFFFFFFFFFFFFFF DUP3 GT ISZERO PUSH2 0x315 JUMPI PUSH2 0x314 PUSH2 0x283 JUMP JUMPDEST JUMPDEST PUSH2 0x31E DUP3 PUSH2 0x273 JUMP JUMPDEST SWAP1 POP PUSH1 0x20 DUP2 ADD SWAP1 POP SWAP2 SWAP1 POP JUMP JUMPDEST DUP3 DUP2 DUP4 CALLDATACOPY PUSH0 DUP4 DUP4 ADD MSTORE POP POP POP JUMP JUMPDEST PUSH0 PUSH2 0x34B PUSH2 0x346 DUP5 PUSH2 0x2FB JUMP JUMPDEST PUSH2 0x2E1 JUMP JUMPDEST SWAP1 POP DUP3 DUP2 MSTORE PUSH1 0x20 DUP2 ADD DUP5 DUP5 DUP5 ADD GT ISZERO PUSH2 0x367 JUMPI PUSH2 0x366 PUSH2 0x26F JUMP JUMPDEST JUMPDEST PUSH2 0x372 DUP5 DUP3 DUP6 PUSH2 0x32B JUMP JUMPDEST POP SWAP4 SWAP3 POP POP POP JUMP JUMPDEST PUSH0 DUP3 PUSH1 0x1F DUP4 ADD SLT PUSH2 0x38E JUMPI PUSH2 0x38D PUSH2 0x26B JUMP JUMPDEST JUMPDEST DUP2 CALLDATALOAD PUSH2 0x39E DUP5 DUP3 PUSH1 0x20 DUP7 ADD PUSH2 0x339 JUMP JUMPDEST SWAP2 POP POP SWAP3 SWAP2 POP POP JUMP JUMPDEST PUSH0 PUSH1 0x20 DUP3 DUP5 SUB SLT ISZERO PUSH2 0x3BC JUMPI PUSH2 0x3BB PUSH2 0x263 JUMP JUMPDEST JUMPDEST PUSH0 DUP3 ADD CALLDATALOAD PUSH8 0xFFFFFFFFFFFFFFFF DUP2 GT ISZERO PUSH2 0x3D9 JUMPI PUSH2 0x3D8 PUSH2 0x267 JUMP JUMPDEST JUMPDEST PUSH2 0x3E5 DUP5 DUP3 DUP6 ADD PUSH2 0x37A JUMP JUMPDEST SWAP2 POP POP SWAP3 SWAP2 POP POP JUMP JUMPDEST PUSH0 DUP2 SWAP1 POP SWAP2 SWAP1 POP JUMP JUMPDEST PUSH2 0x400 DUP2 PUSH2 0x3EE JUMP JUMPDEST DUP3 MSTORE POP POP JUMP JUMPDEST PUSH0 PUSH1 0x20 DUP3 ADD SWAP1 POP PUSH2 0x419 PUSH0 DUP4 ADD DUP5 PUSH2 0x3F7 JUMP JUMPDEST SWAP3 SWAP2 POP POP JUMP JUMPDEST PUSH0 DUP2 MLOAD SWAP1 POP SWAP2 SWAP1 POP JUMP JUMPDEST PUSH0 DUP3 DUP3 MSTORE PUSH1 0x20 DUP3 ADD SWAP1 POP SWAP3 SWAP2 POP POP JUMP JUMPDEST PUSH0 JUMPDEST DUP4 DUP2 LT ISZERO PUSH2 0x456 JUMPI DUP1 DUP3 ADD MLOAD DUP2 DUP5 ADD MSTORE PUSH1 0x20 DUP2 ADD SWAP1 POP PUSH2 0x43B JUMP JUMPDEST PUSH0 DUP5 DUP5 ADD MSTORE POP POP POP POP JUMP JUMPDEST PUSH0 PUSH2 0x46B DUP3 PUSH2 0x41F JUMP JUMPDEST PUSH2 0x475 DUP2 DUP6 PUSH2 0x429 JUMP JUMPDEST SWAP4 POP PUSH2 0x485 DUP2 DUP6 PUSH1 0x20 DUP7 ADD PUSH2 0x439 JUMP JUMPDEST PUSH2 0x48E DUP2 PUSH2 0x273 JUMP JUMPDEST DUP5 ADD SWAP2 POP POP SWAP3 SWAP2 POP POP JUMP JUMPDEST PUSH2 0x4A2 DUP2 PUSH2 0x3EE JUMP JUMPDEST DUP3 MSTORE POP POP JUMP JUMPDEST PUSH0 PUSH1 0x40 DUP4 ADD PUSH0 DUP4 ADD MLOAD DUP5 DUP3 SUB PUSH0 DUP7 ADD MSTORE PUSH2 0x4C2 DUP3 DUP3 PUSH2 0x461 JUMP JUMPDEST SWAP2 POP POP PUSH1 0x20 DUP4 ADD MLOAD PUSH2 0x4D7 PUSH1 0x20 DUP7 ADD DUP3 PUSH2 0x499 JUMP JUMPDEST POP DUP1 SWAP2 POP POP SWAP3 SWAP2 POP POP JUMP JUMPDEST PUSH0 PUSH1 0x20 DUP3 ADD SWAP1 POP DUP2 DUP2 SUB PUSH0 DUP4 ADD MSTORE PUSH2 0x4FA DUP2 DUP5 PUSH2 0x4A8 JUMP JUMPDEST SWAP1 POP SWAP3 SWAP2 POP POP JUMP JUMPDEST PUSH0 DUP2 SWAP1 POP SWAP3 SWAP2 POP POP JUMP JUMPDEST PUSH0 PUSH2 0x516 DUP3 PUSH2 0x41F JUMP JUMPDEST PUSH2 0x520 DUP2 DUP6 PUSH2 0x502 JUMP JUMPDEST SWAP4 POP PUSH2 0x530 DUP2 DUP6 PUSH1 0x20 DUP7 ADD PUSH2 0x439 JUMP JUMPDEST DUP1 DUP5 ADD SWAP2 POP POP SWAP3 SWAP2 POP POP JUMP JUMPDEST PUSH0 PUSH2 0x547 DUP3 DUP5 PUSH2 0x50C JUMP JUMPDEST SWAP2 POP DUP2 SWAP1 POP SWAP3 SWAP2 POP POP JUMP JUMPDEST PUSH0 DUP3 DUP3 MSTORE PUSH1 0x20 DUP3 ADD SWAP1 POP SWAP3 SWAP2 POP POP JUMP JUMPDEST PUSH32 0x596F7520617265206E6F7420616C6C6F77656420746F20766F74650000000000 PUSH0 DUP3 ADD MSTORE POP JUMP JUMPDEST PUSH0 PUSH2 0x596 PUSH1 0x1B DUP4 PUSH2 0x552 JUMP JUMPDEST SWAP2 POP PUSH2 0x5A1 DUP3 PUSH2 0x562 JUMP JUMPDEST PUSH1 0x20 DUP3 ADD SWAP1 POP SWAP2 SWAP1 POP JUMP JUMPDEST PUSH0 PUSH1 0x20 DUP3 ADD SWAP1 POP DUP2 DUP2 SUB PUSH0 DUP4 ADD MSTORE PUSH2 0x5C3 DUP2 PUSH2 0x58A JUMP JUMPDEST SWAP1 POP SWAP2 SWAP1 POP JUMP JUMPDEST PUSH32 0x4E487B7100000000000000000000000000000000000000000000000000000000 PUSH0 MSTORE PUSH1 0x11 PUSH1 0x4 MSTORE PUSH1 0x24 PUSH0 REVERT JUMPDEST PUSH0 PUSH2 0x601 DUP3 PUSH2 0x3EE JUMP JUMPDEST SWAP2 POP PUSH2 0x60C DUP4 PUSH2 0x3EE JUMP JUMPDEST SWAP3 POP DUP3 DUP3 ADD SWAP1 POP DUP1 DUP3 GT ISZERO PUSH2 0x624 JUMPI PUSH2 0x623 PUSH2 0x5CA JUMP JUMPDEST JUMPDEST SWAP3 SWAP2 POP POP JUMP INVALID LOG2 PUSH5 0x6970667358 0x22 SLT KECCAK256 0xD5 SWAP5 0xDB BASEFEE 0xEB 0xD8 PUSH22 0xD0AACF5A0513DE7C755C6C4FED0E75827D8E6C7EF5C9 SWAP5 0xC6 0x4F PUSH5 0x736F6C6343 STOP ADDMOD ISZERO STOP CALLER "
				},
				"gasEstimates": {
					"creation": {
						"codeDepositCost": "326400",
						"executionCost": "infinite",
						"totalCost": "infinite"
					},
					"external": {
						"candidates(string)": "infinite",
						"donate()": "1689",
						"getCandidateVoteCount(string)": "infinite",
						"vote(string)": "infinite"
					}
				},
				"methodIdentifiers": {
					"candidates(string)": "c5539cc2",
					"donate()": "ed88c68e",
					"getCandidateVoteCount(string)": "f6ddc61e",
					"vote(string)": "fc36e15b"
				}
			},
			"storageLayout": {
				"storage": [
					{
						"astId": 10,
						"contract": "Sap SmartContractProj.sol:Election",
						"label": "candidates",
						"offset": 0,
						"slot": "0",
						"type": "t_mapping(t_string_memory_ptr,t_uint256)"
					}
				],
				"types": {
					"t_mapping(t_string_memory_ptr,t_uint256)": {
						"encoding": "mapping",
						"key": "t_string_memory_ptr",
						"label": "mapping(string => uint256)",
						"numberOfBytes": "32",
						"value": "t_uint256"
					},
					"t_string_memory_ptr": {
						"encoding": "bytes",
						"label": "string",
						"numberOfBytes": "32"
					},
					"t_uint256": {
						"encoding": "inplace",
						"label": "uint256",
						"numberOfBytes": "32"
					}
				}
			},
			"userdoc": {
				"kind": "user",
				"methods": {},
				"version": 1
			}
		}
	}
}